:020000040800F2
:1000000000500020DD6400082518000827180008AB
:10001000291800082B1800082D18000800000000FF
:10002000000000000000000000000000B1460008D1
:100030002F180008000000005147000895470008ED
:100040002565000825650008256500082565000868
:100050002565000825650008256500082565000858
:100060002565000825650008256500082565000848
:100070002565000825650008256500082565000838
:100080002565000825650008256500082565000828
:10009000311800082565000825650008411800088A
:1000A000256500084D18000825650008256500082D
:1000B00025650008256500082565000825650008F8
:1000C00025650008256500082565000825650008E8
:1000D00025650008256500082565000825650008D8
:1000E000256500082565000825650008000000005A
:1000F0000000000000000000000000000000000000
:0C01000000000000000000005FF808F1A3
:1001100081F0004102E000BF83F0004330B54FEAB8
:1001200041044FEA430594EA050F08BF90EA020F25
:100130001FBF54EA000C55EA020C7FEA645C7FEAB8
:10014000655C00F0E2804FEA5454D4EB5555B8BFDB
:100150006D420CDD2C4480EA020281EA030382EA4C
:10016000000083EA010180EA020281EA0303362DDE
:1001700088BF30BD11F0004F4FEA01314FF4801CB1
:100180004CEA113102D0404261EB410113F0004FC3
:100190004FEA03334CEA133302D0524263EB43037A
:1001A00094EA050F00F0A780A4F10104D5F1200E18
:1001B0000DDB02FA0EFC22FA05F2801841F1000173
:1001C00003FA0EF2801843FA05F359410EE0A5F147
:1001D00020050EF1200E012A03FA0EFC28BF4CF078
:1001E000020C43FA05F3C01851EBE37101F000452E
:1001F00007D54FF0000EDCF1000C7EEB00006EEB3B
:100200000101B1F5801F1BD3B1F5001F0CD34908C4
:100210005FEA30004FEA3C0C04F101044FEA44521B
:1002200012F5800F80F09A80BCF1004F08BF5FEAA2
:10023000500C50F1000041EB045141EA050130BD82
:100240005FEA4C0C404141EB0101013C28BFB1F594
:10025000801FE9D291F0000F04BF01460020B1FADF
:1002600081F308BF2033A3F10B03B3F120020CDAB2
:100270000C3208DD02F1140CC2F10C0201FA0CF090
:1002800021FA02F10CE002F11402D8BFC2F1200CF5
:1002900001FA02F120FA0CFCDCBF41EA0C019040AB
:1002A000E41AA2BF01EB0451294330BD6FEA0404F4
:1002B0001F3C1CDA0C340EDC04F11404C4F12002DF
:1002C00020FA04F001FA02F340EA030021FA04F3F1
:1002D00045EA030130BDC4F10C04C4F1200220FA48
:1002E00002F001FA04F340EA0300294630BD21FA86
:1002F00004F0294630BD94F0000F83F4801306BF4C
:1003000081F480110134013D4EE77FEA645C18BF3F
:100310007FEA655C29D094EA050F08BF90EA020FD6
:1003200005D054EA000C04BF1946104630BD91EACE
:10033000030F1EBF0021002030BD5FEA545C05D1D1
:100340004000494128BF41F0004130BD14F5800410
:100350003CBF01F5801130BD01F0004545F0FE4184
:1003600041F470014FF0000030BD7FEA645C1ABFB9
:10037000194610467FEA655C1CBF0B46024650EAF0
:10038000013406BF52EA033591EA030F41F400211C
:1003900030BD00BF90F0000F04BF0021704730B5A2
:1003A0004FF4806404F132044FF000054FF0000177
:1003B00050E700BF90F0000F04BF0021704730B538
:1003C0004FF4806404F1320410F0004548BF40420D
:1003D0004FF000013EE700BF42004FEAE2014FEA62
:1003E00031014FEA02701FBF12F07F4393F07F4F3D
:1003F00081F06051704732F07F4208BF704793F040
:100400007F4F04BF41F40021704730B54FF4607452
:1004100001F0004521F000411CE700BF50EA010255
:1004200008BF704730B54FF000050AE050EA0102FE
:1004300008BF704730B511F0004502D5404261EB6E
:1004400041014FF4806404F132045FEA915C3FF4AF
:10045000D8AE4FF003025FEADC0C18BF03325FEA4C
:10046000DC0C18BF033202EBDC02C2F1200300FAFD
:1004700003FC20FA02F001FA03FE40EA0E0021FA22
:1004800002F11444BDE600BF70B54FF0FF0C4CF410
:10049000E06C1CEA11541DBF1CEA135594EA0C0FC2
:1004A00095EA0C0F00F0DEF82C4481EA030621EAFD
:1004B0004C5123EA4C5350EA013518BF52EA033538
:1004C00041F4801143F4801338D0A0FB02CE4FF0EA
:1004D0000005E1FB02E506F00042E0FB03E54FF01A
:1004E0000006E1FB03569CF0000F18BF4EF0010E12
:1004F000A4F1FF04B6F5007F64F5407404D25FEA0E
:100500004E0E6D4146EB060642EAC62141EA5551C0
:100510004FEAC52040EA5E504FEACE2EB4F1FD0C02
:1005200088BFBCF5E06F1ED8BEF1004F08BF5FEA80
:10053000500E50F1000041EB045170BD06F0004632
:1005400046EA010140EA020081EA0301B4EB5C04DF
:10055000C2BFD4EB0C0541EA045170BD41F48011D7
:100560004FF0000E013C00F3AB8014F1360FDEBFFC
:10057000002001F0004170BDC4F10004203C35DAD8
:100580000C341BDC04F11404C4F1200500FA05F35B
:1005900020FA04F001FA05F240EA020001F00042FC
:1005A00021F0004110EBD37021FA04F642EB060172
:1005B0005EEA430E08BF20EAD37070BDC4F10C049C
:1005C000C4F1200500FA04F320FA05F001FA04F260
:1005D00040EA020001F0004110EBD37041F100014C
:1005E0005EEA430E08BF20EAD37070BDC4F1200557
:1005F00000FA05F24EEA020E20FA04F301FA05F2BF
:1006000043EA020321FA04F001F0004121FA04F266
:1006100020EA020000EBD3705EEA430E08BF20EA36
:10062000D37070BD94F0000F0FD101F00046400070
:1006300041EB010111F4801F08BF013CF7D041EAF2
:10064000060195F0000F18BF704703F000465200F6
:1006500043EB030313F4801F08BF013DF7D043EAC7
:100660000603704794EA0C0F0CEA135518BF95EA7D
:100670000C0F0CD050EA410618BF52EA4306D1D104
:1006800081EA030101F000414FF0000070BD50EA23
:10069000410606BF1046194652EA430619D094EAAD
:1006A0000C0F02D150EA013613D195EA0C0F05D197
:1006B00052EA03361CBF104619460AD181EA0301EB
:1006C00001F0004141F0FE4141F470014FF00000A3
:1006D00070BD41F0FE4141F4780170BD70B54FF03E
:1006E000FF0C4CF4E06C1CEA11541DBF1CEA1355BE
:1006F00094EA0C0F95EA0C0F00F0A7F8A4EB0504A0
:1007000081EA030E52EA03354FEA013100F0888096
:100710004FEA03334FF0805545EA131343EA12635F
:100720004FEA022245EA111545EA10654FEA002614
:100730000EF000419D4208BF964244F1FD0404F5CD
:10074000407402D25B084FEA3202B61A65EB030529
:100750005B084FEA32024FF480104FF4002CB6EBE6
:10076000020E75EB030E22BFB61A754640EA0C0066
:100770005B084FEA3202B6EB020E75EB030E22BFA6
:10078000B61A754640EA5C005B084FEA3202B6EBE7
:10079000020E75EB030E22BFB61A754640EA9C00A6
:1007A0005B084FEA3202B6EB020E75EB030E22BF76
:1007B000B61A754640EADC0055EA060E18D04FEA34
:1007C000051545EA16754FEA06164FEAC30343EAD4
:1007D00052734FEAC2025FEA1C1CC0D111F4801FA1
:1007E0000BD141EA00014FF000004FF0004CB6E79A
:1007F00011F4801F04BF01430020B4F1FD0C88BF39
:10080000BCF5E06F3FF6AFAEB5EB030C04BFB6EB43
:10081000020C5FEA500C50F1000041EB045170BD36
:100820000EF0004E4EEA113114EB5C04C2BFD4EB63
:100830000C0541EA045170BD41F480114FF0000EE7
:10084000013C90E645EA060E8DE60CEA135594EA63
:100850000C0F08BF95EA0C0F3FF43BAF94EA0C0F66
:100860000AD150EA01347FF434AF95EA0C0F7FF4DB
:1008700025AF104619462CE795EA0C0F06D152EA2F
:1008800003353FF4FDAE1046194622E750EA410613
:1008900018BF52EA43067FF4C5AE50EA41047FF424
:1008A0000DAF52EA43057FF4EBAE12E74FEA410287
:1008B000B2F1E04324BFB3F5001CDCF1FE5C0DD9BE
:1008C00001F0004C4FEAC0024CEA5070B2F1004F08
:1008D00040EB830008BF20F00100704711F0804F0B
:1008E00021D113F13872BCBF01F00040704741F4D0
:1008F00080114FEA5252C2F11802C2F1200C10FAD4
:100900000CF320FA02F018BF40F001004FEAC123B7
:100910004FEAD32303FA0CFC40EA0C0023FA02F35B
:100920004FEA4303CCE77FEA625307D150EA013331
:100930001EBF4FF0FE4040F44000704701F0004001
:1009400040F0FE4040F40000704700BF80F00040DF
:1009500002E000BF81F0004142001FBF5FEA410397
:1009600092EA030F7FEA226C7FEA236C6AD04FEA97
:100970001262D2EB1363C1BFD218414048404140DC
:10098000B8BF5B42192B88BF704710F0004F40F48E
:10099000000020F07F4018BF404211F0004F41F4AA
:1009A000000121F07F4118BF494292EA030F3FD076
:1009B000A2F1010241FA03FC10EB0C00C3F1200389
:1009C00001FA03F100F0004302D5494260EB400018
:1009D000B0F5000F13D3B0F1807F06D340084FEA83
:1009E000310102F10102FE2A51D2B1F1004F40EB78
:1009F000C25008BF20F0010040EA030070474900E0
:100A000040EB0000013A28BFB0F5000FEDD2B0FA7C
:100A100080FCACF1080CB2EB0C0200FA0CF0AABF9F
:100A200000EBC25052421843BCBFD040184370473D
:100A300092F0000F81F4000106BF80F40000013243
:100A4000013BB5E74FEA41037FEA226C18BF7FEA1A
:100A5000236C21D092EA030F04D092F0000F08BF5C
:100A60000846704790EA010F1CBF0020704712F043
:100A70007F4F04D1400028BF40F00040704712F182
:100A800000723CBF00F50000704700F0004343F0E7
:100A9000FE4040F4000070477FEA226216BF08461D
:100AA0007FEA23630146420206BF5FEA412390EAE0
:100AB000010F40F4800070474FF0000304E000BFD6
:100AC00010F0004348BF40425FEA000C08BF704787
:100AD00043F0964301464FF000001CE050EA01024B
:100AE00008BF70474FF000030AE000BF50EA010260
:100AF00008BF704711F0004302D5404261EB41014D
:100B00005FEA010C02BF84460146002043F0B64371
:100B100008BFA3F18053A3F50003BCFA8CF2083A96
:100B2000A3EBC25310DB01FA02FC634400FA02FC9F
:100B3000C2F12002BCF1004F20FA02F243EB0200A6
:100B400008BF20F00100704702F1200201FA02FC08
:100B5000C2F1200250EA4C0021FA02F243EB0200FB
:100B600008BF20EADC7070474FF0FF0C1CEAD0523F
:100B70001EBF1CEAD15392EA0C0F93EA0C0F6FD000
:100B80001A4480EA010C400218BF5FEA41211ED0DE
:100B90004FF0006343EA501043EA5111A0FB0131CA
:100BA0000CF00040B1F5000F3EBF490041EAD3719F
:100BB0005B0040EA010062F17F02FD2A1DD8B3F11B
:100BC000004F40EBC25008BF20F00100704790F08A
:100BD000000F0CF0004C08BF49024CEA502040EADC
:100BE00051207F3AC2BFD2F1FF0340EAC2507047A2
:100BF00040F400004FF00003013A5DDC12F1190FE0
:100C0000DCBF00F000407047C2F10002410021FA51
:100C100002F1C2F1200200FA02FC5FEA310040F169
:100C2000000053EA4C0308BF20EADC70704792F0E2
:100C3000000F00F0004C02BF400010F4000F013A1A
:100C4000F9D040EA0C0093F0000F01F0004C02BF15
:100C5000490011F4000F013BF9D041EA0C018FE784
:100C60000CEAD15392EA0C0F18BF93EA0C0F0AD08A
:100C700030F0004C18BF31F0004CD8D180EA0100B0
:100C800000F00040704790F0000F17BF90F0004F49
:100C9000084691F0000F91F0004F14D092EA0C0F2B
:100CA00001D142020FD193EA0C0F03D14B0218BFBE
:100CB000084608D180EA010000F0004040F0FE4004
:100CC00040F40000704740F0FE4040F440007047A0
:100CD0004FF0FF0C1CEAD0521EBF1CEAD15392EA1F
:100CE0000C0F93EA0C0F69D0A2EB030280EA010C0F
:100CF00049024FEA402037D04FF0805343EA1111A8
:100D000043EA10130CF000408B4238BF5B0042F105
:100D10007D024FF4000C8B4224BF5B1A40EA0C00AA
:100D2000B3EB510F24BFA3EB510340EA5C00B3EBDC
:100D3000910F24BFA3EB910340EA9C00B3EBD10FCA
:100D400024BFA3EBD10340EADC001B0118BF5FEA1C
:100D50001C1CE0D1FD2A3FF650AF8B4240EBC25045
:100D600008BF20F0010070470CF0004C4CEA502006
:100D70007F32C2BFD2F1FF0340EAC250704740F455
:100D800000004FF00003013A37E792F0000F00F047
:100D9000004C02BF400010F4000F013AF9D040EAC5
:100DA0000C0093F0000F01F0004C02BF490011F459
:100DB000000F013BF9D041EA0C0195E70CEAD15351
:100DC00092EA0C0F08D142027FF47DAF93EA0C0F38
:100DD0007FF470AF084676E793EA0C0F04D14B021C
:100DE0003FF44CAF08466EE730F0004C18BF31F0CE
:100DF000004CCAD130F000427FF45CAF31F00043C8
:100E00007FF43CAF5FE700BF10B5054C237833B9E2
:100E1000044B13B10448AFF300800123237010BDCD
:100E200060000020000000008468000808B5034B43
:100E30001BB103490348AFF3008008BD0000000068
:100E4000640000208468000800B585B00023019389
:100E5000029303932548264A02604FF48072826011
:100E600003730122027582614FF46022C261436004
:100E70000423036100F0B6FF40BB0023019301226D
:100E80000292039301A9194800F028FE08BB012330
:100E900001930223029301A9144800F01FFED8B960
:100EA000022301930323029301A9104800F016FEC8
:100EB000A8B905230193042302930DEB03010B480A
:100EC00000F00CFE70B905B05DF804FB00F058FBB3
:100ED000D3E700F055FBDAE700F052FBE0E700F063
:100EE0004FFBE6E700F04CFBEDE700BF7C00002085
:100EF0000024014000B587B00023029303930493BC
:100F000005930268114B9A4202D007B05DF804FBCA
:100F100003F56C439A6942F400729A619A6902F48B
:100F200000720092009A9A6942F004029A619B69E9
:100F300003F004030193019B2723029303230393EC
:100F400002A9034801F080FCDFE700BF0024014054
:100F50000008014070B5064600240DE0084D284603
:100F600000F0A0FE0121284600F0F2FC284600F027
:100F7000B1FD26F814000134032CEFDD70BD00BF75
:100F80007C0000200000000038B505460C460088B3
:100F9000FFF710FA0EA3D3E90023FFF775FA00223A
:100FA0000F4BFFF771FA0CA3D3E90023FFF796FB71
:100FB000FFF77CFC20606888FFF77EFDA060A888B2
:100FC000FFF77AFDE060E888FFF776FD606038BDE6
:100FD0006666666666660A400000000000FEAF4076
:100FE0000000104010B51D4A40F24643136008232C
:100FF000136100239360D360194A01211162536188
:1010000013619361D161136053609360D36015489D
:10101000154A0260142242608360C3604FF460226C
:1010200002614FF480124261037643768376C37681
:101030000377437700F0DAFF60B90A4C084920468D
:1010400001F07AF80221204601F054FA204601F01E
:10105000F9F810BD00F094FAEFE700BF200100207E
:10106000F8000020AC0000200064004010B586B0FD
:101070000023029303930493059302681E4B9A4244
:1010800001D006B010BD03F5D633DA6942F0007224
:10109000DA61DA6902F000720092009A9A6942F00D
:1010A00008029A619B6903F008030193019B4FF4C6
:1010B00080730293114C02A9204601F0C5FB4FF446
:1010C00000730293022303930323059302A920468E
:1010D00001F0BAFB0A4A536823F4C04343F0E063CB
:1010E00043F48043536000220521142001F08EFB5D
:1010F000142001F09BFBC4E700640040000C014099
:101100000000014070B5054616461C46017043704C
:10111000184605F009FA68602246314605F05CFB86
:1011200070BD000008B5037804490B6043780B617B
:10113000034B4268034801F0B3F808BD20010020CA
:10114000F4000020AC00002008B54FF40051034823
:1011500001F08EFC1E2002F05DFEF6E7001001405B
:1011600070B582B0082005F0DFF9064632E00122B2
:101170004FF40051304801F075FC286803F07AF80C
:1011800019238DF8073001230DF10702062130469F
:10119000FFF7B8FF3046FFF7C5FF2BE001224FF401
:1011A000005100F1804000F5883001F05BFC3046D2
:1011B000FFF7B8FF706805F0BFF9012002F02AFEC2
:1011C00022E01E4B1B681A781D4B1A601D4B1868D5
:1011D00002F020FE00224FF40051174801F042FCBB
:1011E000194D286803F02AF80446286803F020F80F
:1011F0008442BCD24FF0FF330022314612480068CF
:1012000002F0C8FF0028C9D002F0DEFD0128DDD1C0
:101210000E4B1B684C2BD4D04D2B07D04B2BD5D16C
:10122000064B1B681A780A4B1A60CFE7034B1B6802
:101230001A78044B1A60C9E700100140D40000205E
:1012400058010020500100203C010020D80000205F
:101250005401002000B585B0124C4FF0FF3300223E
:101260000121206802F09AFE0F4800F0F5F9009085
:1012700002F0D4FC019004236A46002102A8FFF783
:1012800041FF00231A4602A90848006802F032FF15
:101290000121206802F052FE054B186802F0BAFDE9
:1012A000DAE700BF38010020680100203C0100207F
:1012B0005401002010B58EB008A8FFF74BFE0AA914
:1012C00008A8FFF761FE0A9B04930B9B05930C9BF8
:1012D00002930D9B0393082304AA012106A8FFF79C
:1012E00011FF164C00231A4606A9206802F002FFDF
:1012F00008230DEB0302022106A8FFF703FF0023DA
:101300001A4606A9206802F0F5FE00F0CDFA00F0BA
:10131000EDFA009002F082FC019008236A46042155
:1013200006A8FFF7EFFE00231A4606A9206802F080
:10133000E1FE034B186802F06DFDBDE73C010020A3
:101340005801002008B5144A0821084602F074FE2E
:10135000124B1860124A0021124802F075FC124B21
:101360001860124A0021124802F06EFC114B1860FE
:10137000114A0021114802F067FC114B1860114A14
:101380000021114802F060FC104B1860104802F078
:1013900063FD104B186008BD0C6900083C0100207B
:1013A00024690008B5120008400100206C6900089B
:1013B0006111000848010020486900085512000822
:1013C0004401002090690008491100084C010020E8
:1013D000FC680008380100202DE9F04188B00024A5
:1013E00004940594069407942E4B9A6942F01002D7
:1013F0009A619A6902F010020092009A9A6942F08A
:1014000020029A619A6902F020020192019A9A6977
:1014100042F004029A619A6902F004020292029A6E
:101420009A6942F008029A619B6903F008030393EA
:10143000039BDFF8748022464FF40051404601F0D0
:1014400011FB1A4E22464FF48051304601F00AFB40
:101450004FF400530493012705970694022507953E
:1014600004A9404601F0F0F980230493104B059342
:10147000069504A90F4801F0E7F94FF4805304934F
:1014800005970694079504A9304601F0DDF9224638
:101490000521172001F0BAF9172001F0C7F908B0AB
:1014A000BDE8F0810010024000100140000C014036
:1014B0000000111000080140802800D0704770B56E
:1014C00002F0ACFB174B1860174D2B78174CA4FBA0
:1014D000032101F0FC0202EB91029B1ADBB21449DA
:1014E0000A68821A134E46F8232008604FF4005110
:1014F000114801F0BDFA2B78A4FB032404F0FC0290
:1015000002EB94029B1A13F0FF0F04D0064A1378E3
:101510000133137070BD0121084B186802F0D0FC34
:10152000F4E700BF5C01002064010020CDCCCCCCEE
:1015300060010020680100200010014038010020F7
:1015400008B5064B1B68064A002100F01EFF01216A
:10155000044B186802F0F0FB08BD00BFD400002067
:10156000D80000204801002008B50268034B9A42C9
:1015700000D008BD00F0DAF9FBE700BF002C014005
:1015800072B6FEE700B595B0282200210DEB0200EF
:1015900005F088F8002305930693079308930993B1
:1015A000019302930393049301220A924FF4803330
:1015B0000B930E920222119212934FF4E0131393A5
:1015C0000AA801F083FAC8B90F23059302210691F6
:1015D000002307934FF480620892099305A801F055
:1015E000A7FC68B9022301934FF44043039301A879
:1015F00001F088FD30B915B05DF804FBFFF7C0FFBE
:10160000FFF7BEFFFFF7BCFF08B50F4BFA221A60C9
:101610000E4B32221A600E4B00221A6000F074F951
:10162000FFF7B0FFFFF7D8FEFFF7DCFCFFF70CFC7D
:1016300000F02EF8074800F059FC02F0A7FAFFF777
:1016400081FE02F0C5FAFEE758010020500100209B
:10165000540100207C00002070B5064600240025BF
:1016600009E056F82400FFF727FA01462846FFF75D
:1016700073F905460134042CF3DD04492846FFF7CD
:1016800027FB0021FFF770FA70BD00BF0000A040EB
:1016900008B50F480F4B03604FF4827343604FF45B
:1016A000004383600023C360036143614FF4007211
:1016B00082612022C2610362436283620A23C362A1
:1016C00001F0C8FE00B908BDFFF75AFFFBE700BFF5
:1016D0007C0100200038004000B587B00023029351
:1016E0000393049305930268124B9A4202D007B009
:1016F0005DF804FB03F5EC33DA6942F48042DA6109
:10170000DA6902F480420092009A9A6942F0080273
:101710009A619B6903F008030193019B4FF42043F6
:101720000293022303930323059302A9024801F0C5
:101730008BF8DCE700380040000C014000B583B0B6
:10174000114B9A6942F001029A619A6902F0010212
:101750000092009ADA6942F08052DA61DB6903F0A4
:1017600080530193019B00220F216FF0010001F0D3
:101770004DF8064A536823F0E06343F0007353606A
:1017800003B05DF804FB00BF001002400000014000
:1017900030B589B004461E4B9A6942F400629A61E2
:1017A0009B6903F400630193019B02A903A801F064
:1017B0008BFC01F079FC174AA2FB00239B0C013B38
:1017C0001548164A026040F2E732C26043600023C7
:1017D00003618360836102F0ABF9054610B12846CE
:1017E00009B030BD0C4802F073F805460028F6D168
:1017F000192001F01BF80F2C01D90125EFE7002279
:101800002146192001F002F8054B1C60E7E700BFF4
:101810000010024083DE1B43D4010020002C014055
:1018200008000020FEE7FEE7FEE7FEE7FEE7704760
:1018300008B5024800F07CFE08BD00BFAC000020E7
:1018400008B5802001F01EF908BD000008B5024867
:1018500002F076F808BD00BFD401002010B50346A1
:101860000C4A0D490D48006840B10C48006803441B
:10187000521A934206D8094A136010BD0748084C13
:101880000460F2E704F07CFF0C2303604FF0FF30AC
:10189000F3E700BF00500020000400001C020020FD
:1018A000001F00207047000000B583B000224FF4F5
:1018B00080510C4801F0D6F8012302220DF10601F7
:1018C000094801F044FF50B901224FF48051054806
:1018D00001F0C8F8BDF8060003B05DF804FB4FF650
:1018E000FF70F9E7000C01407C01002008B5C0F34F
:1018F000C900FEF75FFD0022024BFEF7C5FDFEF7B3
:10190000D5FF08BD0000D03F08B5074A136843F073
:1019100010031360032000F067FF0F20FFF738FF6C
:10192000FFF70CFF002008BD00200240034A1168A9
:10193000034B1B780B441360704700BF200200204C
:1019400004000020014B1868704700BF20020020EF
:10195000F0B583B005460C4600230193FFF7F2FF74
:101960002B689A6812F4807F23D107465A6812F4D4
:10197000807F03D1DB6A13F4700F29D0504B1E68AF
:10198000022001F04BFCB6FBF0F62B6819694D4ABA
:10199000114236D1D96802F15C42114231D1196944
:1019A000494A114240D1DA68484B1A423ED02923B5
:1019B00041E0AB6A43F02003AB62002385F824309A
:1019C000012003B0F0BD2B681B6813F0020F0FD08D
:1019D0002B681B6813F0020F4FD1B4F1FF3FF7D013
:1019E000002CF0D0FFF7AEFFC31BA342F0D9EAE70B
:1019F000AB6A43F00403AB62002385F82430032074
:101A0000DFE71969304A114204D1D96802F16E4208
:101A100011420DD019692E4A0A405AB9DA682C4B86
:101A200013405BB1FC2306E0292304E0142302E009
:101A3000542300E0FC2303FB06F607E05423FAE7F7
:101A4000019BB34210D3019B01330193019BB3422D
:101A500013D2B4F1FF3FF6D0002CF1D0FFF772FFA4
:101A6000C01BA042EFD9EBE7AB6A43F00403AB62C3
:101A7000002385F824300320A3E72B686FF01202BF
:101A80001A60AB6A43F40073AB622B689B6803F483
:101A90006023B3F5602F01D0002092E7287B60B966
:101AA000AB6A23F48073AB62AB6A13F4805F88D1B6
:101AB000AB6A43F00103AB6283E7002081E700BF1C
:101AC00000000020244992249224491292244900C3
:101AD000499224000368D86C7047000030B482B08B
:101AE0000022019290F82420012A00F08F80034602
:101AF000012280F824204A68062A2DD80468606BE9
:101B000002EB8202053A4FF01F0C0CFA02FC20EAAD
:101B10000C000D6805FA02F2024362630A68092AA2
:101B200038D91C68E06802EB42021E3A4FF0070CFD
:101B30000CFA02FC20EA0C008D6805FA02F202435E
:101B4000E2600A68103A012A34D90020002283F8A2
:101B5000242002B030BC70470C2A0DD80568286BD1
:101B600002EB8202233A1F24944020EA04000C680E
:101B7000944020432863D1E70568E86A02EB8202BB
:101B8000413A1F24944020EA04000C68944020430A
:101B9000E862C3E71C68206902EB42024FF0070CC1
:101BA0000CFA02FC20EA0C008D6805FA02F20243EE
:101BB0002261C6E71A681648824205D09A6A42F046
:101BC00020029A620120C1E7906810F4000F1BD137
:101BD000906840F4000090600A68102A01D000204C
:101BE000B4E70C4A12680C49A1FB0212920C02EBFA
:101BF00082025200019202E0019A013A0192019A96
:101C0000002AF9D10020A1E700209FE70220A0E7E9
:101C1000002401400000002083DE1B4330B583B068
:101C20000023019303689A6812F0010F33D1044630
:101C30009A6842F001029A60184B1B68184AA2FB8E
:101C400003239B0C019302E0019B013B0193019B49
:101C5000002BF9D1FFF776FE054623689B6813F049
:101C6000010F16D1FFF76EFE431B022BF5D9236837
:101C70009B6813F0010FF0D1A36A43F01003A36235
:101C8000E36A43F00103E362002384F82430012077
:101C900002E0002000E0002003B030BD0000002082
:101CA00083DE1B4390F82430012B68D010B5044626
:101CB000012380F82430FFF7B1FF00285BD1A36A2D
:101CC00023F4407323F0010343F48073A362236879
:101CD0002C4A934227D0A26A22F48012A2625A6848
:101CE00012F4806F05D0A26A22F4405242F480526E
:101CF000A262A26A12F4805F2BD0E26A22F006028E
:101D0000E262002284F824206FF002021A60236845
:101D10009A6802F46022B2F5602F1DD09A6842F4EE
:101D200080129A602AE0A2F58062526812F4702F45
:101D3000D1D0A26A42F48012A262134A526812F40D
:101D4000806FD6D0A26A22F4405242F48052A2623E
:101D5000CFE70022E262D4E70A4A934204D09A68AD
:101D600042F4A0029A6009E0A2F58062526812F47F
:101D7000702FD3D1F3E7002384F8243010BD022064
:101D8000704700BF002801400024014038B50368B7
:101D90009A6812F0010F01D1002038BD04469A68FC
:101DA00022F001029A60FFF7CDFD054623689B688B
:101DB00013F0010F13D0FFF7C5FD431B022BF5D91C
:101DC00023689B6813F0010FF0D0A36A43F010035F
:101DD000A362E36A43F00103E3620120DDE7002030
:101DE000DBE7000000287BD070B50446836A002B37
:101DF0004DD02046FFF7CAFFA36A13F0100369D144
:101E0000002867D1A26A22F4885222F0020242F02E
:101E10000202A2626268E1690A43217B42EA41024E
:101E2000A568B5F5807F02D0012D36D01D46267DF0
:101E3000012E35D02668716821F46941294371600B
:101E40002568AE68274931401143A960A168B1F502
:101E5000807F01D0012902D12369013B1B05256840
:101E6000E96A21F470010B43EB62236899681E4B09
:101E70000B409A4225D0A36A23F0120343F01003CB
:101E8000A362E36A43F00103E362012027E0C36237
:101E900080F82430FFF72EF8ABE74FF48075C6E7E3
:101EA00031B9A169013945EA413141F40065C1E721
:101EB000A16A41F02001A162E16A41F00101E16201
:101EC000B8E70023E362A36A23F0030343F00103AE
:101ED000A36204E0A36A43F01003A362012070BD73
:101EE00001207047FDF7E1FFFE0E1FFF70B582B0C5
:101EF0000023019390F82430012B72D00446012373
:101F000080F82430FFF742FF2046FFF787FE0546A2
:101F100028B1002384F82430284602B070BDA36A9B
:101F200023F4885323F0020343F00203A3622E4BF1
:101F30001E68022001F072F9B6FBF0F676000196F9
:101F400002E0019B013B0193019B002BF9D1226828
:101F5000936843F008039360FFF7F4FC0646236898
:101F60009A6812F0080F14D0FFF7ECFC801B0A28C7
:101F7000F5D923689B6813F0080FF0D0A36A23F00B
:101F8000120343F01003A362002384F824300125D8
:101F9000C2E79A6842F004029A60FFF7D3FC064653
:101FA00023689B6813F0040F14D0FFF7CBFC801B51
:101FB0000A28F5D923689B6813F0040FF0D0A36AB0
:101FC00023F0120343F01003A362002384F82430AB
:101FD0000125A1E7A36A23F0030343F00103A362F1
:101FE00097E7022598E700BF00000020002800F0D6
:101FF000A18038B5044690F82030D3B12268136828
:1020000043F001031360FFF79DFC054623685A68FF
:1020100012F0010F10D1FFF795FC401B0A28F5D9EB
:10202000636A43F400336362052384F8203001209F
:1020300038BDFFF71BF8E1E71A6822F002021A60C8
:10204000FFF780FC054623685A6812F0020F0DD096
:10205000FFF778FC401B0A28F5D9636A43F4003384
:102060006362052384F820300120E1E7227E012A03
:102070003DD01A6822F080021A60637E012B3BD0AB
:102080002268136823F040031360A37E012B39D02C
:102090002268136823F020031360E37E012B37D0FE
:1020A0002268136843F010031360237F012B35D09F
:1020B0002268136823F008031360637F012B33D079
:1020C0002268136823F004031360A368E2681343D3
:1020D00022691343626913436268013A216813431A
:1020E000CB6100206062012384F82030A0E71A68E9
:1020F00042F080021A60C0E72268136843F0400390
:102100001360C2E72268136843F020031360C4E73A
:102110002268136823F010031360C6E7226813686F
:1021200043F008031360C8E72268136843F0040310
:102130001360CAE701207047026890F82030013B25
:10214000DBB2012B05D9436A43F4802343620120AB
:10215000704710B5D2F8003243F00103C2F80032E4
:102160004B6903F01F03012000FA03F3D2F81C02AD
:102170006FEA030C20EA0300C2F81C02C869C0B968
:10218000D2F80C020CEA0000C2F80C028C884869F4
:10219000D1F80CE044EA0E44483042F830400C8854
:1021A0004869D1F808E044EA0E44483002EBC00028
:1021B0004460C86901281AD0886988BBD2F8040233
:1021C0000CEA0000C2F80402086978BBD2F81402D5
:1021D0000CEA0000C2F81402096A01292CD0D2F8D6
:1021E000003223F00103C2F80032002010BDD2F803
:1021F0000C021843C2F80C028C884869D1F800E040
:1022000044EA0E44483042F830408C894869D1F89D
:1022100008E044EA0E44483002EBC0004460CBE7DB
:10222000D2F804021843C2F80402CDE7D2F814022F
:102230001843C2F81402CFE7D2F81C120B43C2F8BD
:102240001C32CCE770B5044690F82050EDB2012D59
:1022500006D0436A43F4002343620125284670BD3B
:10226000022380F820300268136823F00103136012
:10227000FFF768FB064623685B6813F0010F0CD07C
:10228000FFF760FB831B0A2BF5D9636A43F4003325
:102290006362052384F82030E0E700256562DDE70E
:1022A00030B590F820C00468A4680CF1FF3C5FFAD8
:1022B0008CFCBCF1010F62D814F0E05F59D0C4F37C
:1022C000016C012404FA0CF41C608B68002B3DD1D6
:1022D0000D68CB68046843EA45550CF118031B01EF
:1022E000E55003680C690CF1180E03EB0E135C60EB
:1022F0000B7D012B35D0D17993791B0443EA01631F
:10230000517943EA012314790168234301EB0C114D
:10231000C1F88C31D17893781B0443EA016351787A
:1023200043EA0123117802680B4302EB0C12C2F856
:10233000883102680CF1180C4FEA0C1C52F80C3072
:1023400043F0010342F80C3000201DE04C6843EAE2
:10235000C403CC6823430CF11804240105682B51F5
:10236000BFE7036803EB0E13596841F480715960AD
:10237000C1E7436A43F400134362012004E0436A67
:1023800043F480234362012030BD90F820C00CF15B
:10239000FF3C5FFA8CFCBCF1010F00F2A58030B469
:1023A00051B90468E46814F0030F10D1436A43F490
:1023B0000013436201207EE00468246914F0030FD7
:1023C00005D1436A43F400134362012073E00568BA
:1023D00001F11B0424012C5904F004049460002C26
:1023E0006BD1056801F11B0424012C59640D1460A4
:1023F000046801F11B0C4FEA0C1C54F80C4004F06B
:102400000204D4600468A444DCF8045015F0080FFA
:102410005BD008241461046801F11B0C04EB0C145C
:102420006468C4F307249461046804EB0C146468C2
:10243000240C5461026802EB0112D2F8B8211A7020
:10244000026802EB0112D2F8B821C2F307225A70D7
:10245000026802EB0112D2F8B821C2F307429A7067
:10246000026802EB0112D2F8B821120EDA7002688B
:1024700002EB0112D2F8BC211A71026802EB0112C0
:10248000D2F8BC21C2F307225A71026802EB011292
:10249000D2F8BC21C2F307429A71026802EB011222
:1024A000D2F8BC21120EDA71C1B90268D36843F0C8
:1024B0002003D360002030BC7047056801F11B0485
:1024C00024012C59E408546092E701F11B0504EB48
:1024D0000514646804F00F0414619CE70268136932
:1024E00043F020031361E5E7436A43F4802343622A
:1024F0000120704790F82030013BDBB2012B05D959
:10250000436A43F4802343620120704702685369A1
:102510000B43536100207047704770477047704706
:1025200070477047704770477047704770477047F3
:102530002DE9F84F054603685C69D3F804809F686D
:10254000D3F80CA0D3F81090D3F818B014F001060B
:102550003BD017F0010616D001229A6017F0020F47
:1025600008D117F0040F0CD117F0080606D04FF46D
:10257000805608E0FFF7D0FF002604E0FFF7CFFF0A
:1025800001E04FF4006617F4807F0DD02B684FF404
:1025900080729A6017F4007F40F0968017F4806F85
:1025A00000F0968046F4005617F4803F0DD02B685B
:1025B0004FF480329A6017F4003F40F0938017F494
:1025C000802F00F0938046F4004614F0080F07D0E7
:1025D0001AF0100F04D046F400762B681022DA604F
:1025E00014F0040F03D01AF0080F40F0898014F0A3
:1025F000020F05D02B68DB6813F0030F40F08780D3
:1026000014F0400F07D019F0100F04D046F4806684
:102610002B6810221A6114F0200F02D019F0080F55
:1026200079D114F0100F04D02B681B6913F0030F3D
:1026300078D114F4003F02D018F0100F76D114F4C2
:10264000803F02D018F0080F77D114F4004F37D034
:1026500018F0040F31D014F4807F04D01BF0010F68
:1026600001D046F0010614F4007F04D01BF0020FE5
:1026700001D046F0020614F4806F04D01BF0040F62
:1026800001D046F0040614F4006F16D01BF0700B56
:1026900013D0BBF1400F66D056D8BBF1200F5CD0F1
:1026A000BBF1300F5CD0BBF1100F01D146F0080632
:1026B0002A68936923F0700393612B6804225A609F
:1026C000002E56D1BDE8F88F2846FFF726FF6BE7AE
:1026D00017F4006F02D046F4804665E72846FFF7FE
:1026E0001FFF61E72846FFF719FF6EE717F4002F79
:1026F00002D046F4803668E72846FFF712FF64E709
:102700002B680822DA602846FFF70CFF6FE728469F
:10271000FEF716FF74E72B6808221A612846FFF7B8
:1027200003FF7EE72846FFF7FEFE82E72B681022B4
:102730005A602846FFF7F9FE81E72B6808225A60A5
:102740002846FFF7F3FE80E7BBF1500F0ED0BBF138
:10275000600FADD146F48076AAE746F01006A7E7F1
:1027600046F02006A4E746F04006A1E746F08006C2
:102770009EE76B6A33436B622846FFF7D8FEA1E7FA
:10278000002808DB0901C9B200F1604000F5614092
:1027900080F80013704700F00F000901C9B2014B27
:1027A0001954704714ED00E000B500F00700C0F1C7
:1027B000070CBCF1040F28BF4FF0040C031D062BBF
:1027C0000FD9C31E4FF0FF3E0EFA0CF021EA0001B4
:1027D00099400EFA03FE22EA0E0241EA02005DF879
:1027E00004FB0023EEE70000074AD36823F4E0630C
:1027F0001B041B0C000200F4E060034343F0BF63C2
:1028000043F40033D360704700ED00E010B5044698
:10281000054BD868C0F30220FFF7C6FF01462046EB
:10282000FFF7AEFF10BD00BF00ED00E0002807DBA2
:1028300000F01F02400901239340024A42F8203071
:10284000704700BF00E100E070B582B00024A446EC
:10285000A1E07E4DAB4214D00CD8A5F58015AB425B
:102860000FD005F57025AB420BD0A5F58015AB4216
:1028700010D106E0764DAB4203D005F58035AB4272
:1028800008D18B68002B50D0012B49D0426108241D
:1028900000E0CC68BEF1FF0F49D806464FEA8C0233
:1028A00033680F25954023EA050304FA02F2134327
:1028B00033604B6813F0805F6BD0664B9A6942F0CF
:1028C00001029A619B6903F001030193019B4FEAA6
:1028D0009C02951C604B53F825600CF00305AD007D
:1028E0000F23AB4026EA03065C4B984226D003F543
:1028F0008063984200F08C8003F58063984200F07A
:10290000898003F58063984216D0042317E0CC68D1
:102910000434BFE7CC680834BCE7CC680C34B9E7B2
:1029200002610824B6E70024B4E70424B2E7061DD8
:10293000ACF108029200B3E7032300E00023AB40B0
:1029400033430232444D45F822304B6813F4801F64
:1029500062D0434A936843EA0E0393604B6813F4D2
:10296000001F5FD03E4AD36843EA0E03D3604B6832
:1029700013F4003F5CD03A4A536843EA0E035360B5
:102980004B6813F4803F59D0354A136843EA0E036D
:1029900013600CF1010C0B6833FA0CF254D00122D5
:1029A00002FA0CF203EA020E32EA0303F1D14B6899
:1029B000122B3FF64EAF122B3FF66CAF01A555F828
:1029C00023F000BF83280008932800081529000879
:1029D0002729000895280008952800089528000850
:1029E00095280008952800089528000895280008D3
:1029F00095280008952800089528000895280008C3
:102A000095280008952800080F2900081B290008B0
:102A1000012394E7022392E7114A936823EA0E0305
:102A200093609BE70E4AD36823EA0E03D3609EE7C8
:102A30000B4A536823EA0E035360A1E7084A136860
:102A400023EA0E031360A4E702B070BD0000221059
:102A50000000311000100240000001400008014059
:102A6000000401400AB10161704709040161704727
:102A7000C36801EA030221EA030141EA024101615C
:102A80007047000008B5054B5B69034200D108BDE3
:102A9000024B5861FEF710FDF9E700BF000401404A
:102AA00082B0084B1B68084AA2FB03235B0A00FBA9
:102AB00003F3019300BF019B5A1E0192002BF9D131
:102AC00002B0704700000020D34D6210002800F0D3
:102AD000F18170B582B00446036813F0010F2CD069
:102AE000994B5B6803F00C03042B1DD0964B5B687D
:102AF00003F00C03082B12D06368B3F5803F41D07C
:102B0000002B55D103F1804303F504331A6822F4F6
:102B100080321A601A6822F480221A6037E08A4BE9
:102B20005B6813F4803FE7D0874B1B6813F4003FCA
:102B300003D06368002B00F0BF81236813F0020FFD
:102B400075D0814B5B6813F00C0F5FD07E4B5B68D8
:102B500003F00C03082B54D02369002B00F08A806B
:102B60007A4B01221A60FEF7EDFE0546764B1B6894
:102B700013F0020F75D1FEF7E5FE401B0228F5D9D0
:102B800003209EE1704A136843F480331360636846
:102B900043B3FEF7D7FE05466B4B1B6813F4003FAB
:102BA000CBD1FEF7CFFE401B6428F5D9032088E186
:102BB000B3F5A02F09D0644B1A6822F480321A6052
:102BC0001A6822F480221A60E1E703F18043A3F53A
:102BD0003C331A6842F480221A601A6842F4803248
:102BE0001A60D4E7FEF7AEFE0546574B1B6813F498
:102BF000003FA2D0FEF7A6FE401B6428F5D90320B3
:102C00005FE1514B5B6813F4803FA5D14E4B1B68CD
:102C100013F0020F03D02369012B40F04F814A4A81
:102C2000136823F0F803616943EAC1031360236862
:102C300013F0080F33D0A369002B5CD0434B012263
:102C4000C3F88024FEF77EFE05463F4B5B6A13F017
:102C5000020F21D1FEF776FE401B0228F5D9032092
:102C60002FE1394A136823F0F803616943EAC1038D
:102C70001360DCE7354B00221A60FEF763FE054661
:102C8000314B1B6813F0020FD1D0FEF75BFE401BE7
:102C90000228F5D9032014E10120FFF701FF236882
:102CA00013F0040F00F09680274BDB6913F0805F70
:102CB00034D1254BDA6942F08052DA61DB6903F0E6
:102CC00080530193019B0125214B1B6813F4807FE6
:102CD00026D0E368012B3DD0002B53D103F1804374
:102CE00003F504331A6A22F001021A621A6A22F00A
:102CF00004021A6233E0154B0022C3F88024FEF769
:102D000021FE0546104B5B6A13F0020FC7D0FEF799
:102D100019FE401B0228F5D90320D2E00025D3E795
:102D20000B4A136843F480731360FEF70BFE0646EC
:102D3000074B1B6813F4807FCBD1FEF703FE801B8B
:102D40006428F5D90320BCE0001002400000424294
:102D5000007000405F4A136A43F001031362E368A6
:102D600033B3FEF7EFFD06465A4B1B6A13F0020F12
:102D70002FD1FEF7E7FD801B41F288339842F3D94B
:102D800003209EE0052B09D0524B1A6A22F0010263
:102D90001A621A6A22F004021A62E0E74D4B1A6ABC
:102DA00042F004021A621A6A42F001021A62D6E77D
:102DB000FEF7C8FD0646474B1B6A13F0020F08D00A
:102DC000FEF7C0FD801B41F288339842F3D90320FF
:102DD00077E0E5B9E369002B72D03E4A526802F011
:102DE0000C02082A56D0022B17D03B4B00221A6641
:102DF000FEF7A8FD0446374B1B6813F0007F47D051
:102E0000FEF7A0FD001B0228F5D9032059E0314A46
:102E1000D36923F08053D361DCE72F4B00221A667D
:102E2000FEF790FD05462B4B1B6813F0007F06D084
:102E3000FEF788FD401B0228F5D9032041E0236AF4
:102E4000B3F5803F1AD023494B6823F47413226AE8
:102E5000606A024313434B601F4B01221A66FEF760
:102E600071FD04461B4B1B6813F0007F0ED1FEF76B
:102E700069FD001B0228F5D9032022E0154A53689A
:102E800023F40033A1680B435360DCE7002018E013
:102E9000002016E0012B16D00E4B5B6803F4803146
:102EA000226A914211D103F47013626A93420ED1E7
:102EB000002006E001207047012002E0012000E030
:102EC000002002B070BD0120FBE70120F9E70120DE
:102ED000F7E700BF00100240000042420F4B5B6862
:102EE00003F00C02082A01D00D487047C3F3834257
:102EF0000C49885C13F4803F0BD0084B5B68C3F32C
:102F00004043094AD35C064A02FB00F0B0FBF3F0F1
:102F10007047064B03FB00F0704700BF00100240F3
:102F200000127A00D0690008CC69000800093D0051
:102F3000002800F0A08070B50D460446524B1B6877
:102F400003F007038B420BD24F4A136823F00703A9
:102F50000B431360136803F007038B4240F08D802E
:102F6000236813F0020F17D013F0040F04D0474A60
:102F7000536843F4E0635360236813F0080F04D0F0
:102F8000424A536843F460535360404A536823F005
:102F9000F003A1680B435360236813F0010F31D095
:102FA0006368012B20D0022B25D0384A126812F01A
:102FB000020F64D035494A6822F0030213434B6084
:102FC000FEF7C0FC0646314B5B6803F00C036268F9
:102FD000B3EB820F16D0FEF7B5FC801B41F28833AD
:102FE0009842F0D9032045E0284A126812F4003FC5
:102FF000E0D101203EE0254A126812F0007FD9D1CD
:10300000012037E0204B1B6803F00703AB420AD9CD
:103010001D4A136823F007032B431360136803F062
:103020000703AB422DD1236813F0040F06D0174AD3
:10303000536823F4E063E1680B435360236813F0A3
:10304000080F07D0114A536823F46053216943EAFB
:10305000C1035360FFF742FF0C4B5B68C3F30313DC
:103060000B4AD35CD8400B4B18600B4B1868FEF72B
:103070008FFB002070BD012070470120FAE701207E
:10308000F8E70120F6E700BF0020024000100240F0
:10309000BC6900080000002008000020014B1868EF
:1030A000704700BF0000002008B5FFF7F7FF044B92
:1030B0005B68C3F3C223034AD35CD84008BD00BF9A
:1030C00000100240B46900080F2303600B4B5A68DC
:1030D00002F0030242605A6802F0F00282605A680D
:1030E00002F4E062C2605B68DB0803F4E063036142
:1030F000034B1B6803F007030B607047001002408E
:103100000020024070B582B00446036813F0010F3E
:1031100036D03F4BDB6913F0805F49D13C4BDA6915
:1031200042F08052DA61DB6903F080530193019B26
:103130000125384B1B6813F4807F3BD0344B1B6A4E
:1031400013F4407313D0626802F440729A420ED0B6
:103150002F4A136A23F440702F490126C1F84064B6
:103160000026C1F84064106213F0010F36D1284ADE
:10317000136A23F4407361680B431362002D3ED140
:10318000236813F0020F06D0214A536823F440430A
:10319000A1680B435360236813F0100F34D01C4A0E
:1031A000536823F48003E1680B43536000202CE054
:1031B0000025BEE7174A136843F480731360FEF7D7
:1031C000C1FB0646134B1B6813F4807FB6D1FEF794
:1031D000B9FB801B6428F5D9032016E0FEF7B2FB8B
:1031E00006460B4B1B6A13F0020FC0D1FEF7AAFB79
:1031F000801B41F288339842F3D9032005E0D3695C
:1032000023F08053D361BBE7002002B070BD00BF44
:1032100000100240007000400000424208B5022841
:103220004ED0102803D0012828D0002052E02B4B8C
:103230005A68186810F080704CD0C2F38343284954
:10324000C85C12F4803F15D0244B5B68C3F3404345
:10325000244AD25C244BB3FBF2F303FB00F01F4B78
:103260005B6813F4800F35D14000204BA3FB003086
:1032700040082FE01E4B03FB00F0F0E7174B1B6AE2
:1032800040F202321A40B2F5817F24D003F4407339
:10329000B3F5007F04D0B3F5407F09D0002019E0DA
:1032A0000E4A526A12F0020FF5D049F6404011E082
:1032B0000A4B186810F400300CD04FF2244009E09B
:1032C000FFF7F2FE054B5B68C3F3813301335B000C
:1032D000B0FBF3F008BD4FF40040FBE700100240E4
:1032E000E4690008E069000800127A00ABAAAAAA03
:1032F00000093D002DE9F04782B005468846174693
:103300001E46FEF71FFB0A9B1B1A03EB0609FEF77E
:1033100019FB8246284B1B68C3F3CB3309FB03F32D
:1033200001932B689C6838EA04040CBF0123002336
:10333000BB423DD0B6F1FF3FF3D0FEF703FBA0EB5D
:103340000A00484507D2019A02B14A46019B013B57
:1033500001939146E5E72A68536823F0E003536040
:103360006B68B3F5827F0BD0AB6AB3F5005F14D006
:10337000012385F85130002385F85030032018E0F0
:10338000AB68B3F5004F02D0B3F5806FECD12A687B
:10339000136823F040031360E6E72A68136823F4F8
:1033A000005313602A68136843F400531360DFE787
:1033B000002002B0BDE8F0870000002010B582B008
:1033C00004460B46009200228021FFF793FF08B9C4
:1033D00002B010BD636D43F0200363650320F7E77F
:1033E00010B582B004460B464168B1F5827F10D01B
:1033F0006168B1F5827F03D1A168B1F5806F15D006
:103400000092002280212046FFF774FFE0B902B04D
:1034100010BD8168B1F5004F02D0B1F5806FE7D1E2
:103420002068016821F040010160E1E7009200227C
:1034300001212046FFF75EFF0028E8D0636D43F0CE
:10344000200363650320E2E7636D43F020036365B7
:103450000320DCE7002856D010B50446436A33B990
:103460004368B3F5827F05D00023C36102E00023E7
:10347000036143610023A36294F85130002B3CD0D8
:10348000022384F851302268136823F0400313604C
:10349000636803F48273A26802F404421343E2688F
:1034A00002F400621343226902F0020213436269CC
:1034B00002F001021343A26902F400721343E269AD
:1034C00002F038021343226A02F080021343A26A18
:1034D00002F40052216813430B60638B226803F0EF
:1034E000040353602268D36923F40063D36100208E
:1034F0006065012384F8513010BD84F850302046B7
:10350000FEF7EAF8BCE7012070472DE9F04383B0ED
:103510001F460A9D90F85030012B00F0168104469A
:1035200088469146012380F85030FEF70BFA064694
:1035300094F85130DBB26268012B0AD0B2F5827F79
:1035400040F0F080A268002A40F0F380042B40F0A5
:10355000F280B8F1000F00F0F080B9F1000F00F038
:10356000EE80002F00F0ED8094F85130DBB2042B98
:1035700002D0052384F8513000236365C4F83890E5
:10358000E787A787C4F83080E786A786236463644B
:1035900023681A6812F0400F03D11A6842F0400203
:1035A0001A60E368B3F5006F11D063680BB1012FA7
:1035B0000BD1226B236812781A73236B01332363B8
:1035C000E38E9BB2013B9BB2E38601276EE063680A
:1035D0000BB1012F0BD1226B23681288DA60236BA9
:1035E00002332363E38E9BB2013B9BB2E386012748
:1035F0001BE023689A6812F0010F0ED0E28F92B29E
:103600005AB1DA68A36B1A80A36B0233A363E38F0A
:103610009BB2013B9BB2E3870127FEF793F9801B26
:10362000A84202D3B5F1FF3F1ED1E38E9BB21BB976
:10363000E38F9BB2002B5CD023689A6812F0020FD4
:10364000D7D0E28E92B2002AD3D0002FD1D0226BF5
:103650001288DA60236B02332363E38E9BB2013B53
:103660009BB2E3860027C4E7012384F8513003208E
:1036700059E023689A6812F0010F0ED0E28F92B2DF
:103680005AB1DA68A36B1A70A36B0133A363E38F9B
:103690009BB2013B9BB2E3870127FEF753F9831BE3
:1036A000AB4202D3B5F1FF3F1ED1EDB1E38E9BB229
:1036B00013B9E38F9BB2E3B123689A6812F0020F4B
:1036C000D7D0E28E92B2002AD3D0002FD1D0226B75
:1036D00012781A73236B01332363E38E9BB2013B91
:1036E0009BB2E3860027C4E7012384F8513003200E
:1036F00019E0324629462046FFF760FE70B9A368FC
:1037000033B901932368DA6801929B680193019BA6
:10371000636DC3B9012384F8513004E0202363654D
:10372000012000E00220002384F8503003B0BDE8FF
:10373000F0830220F7E70220F5E70120F3E70120FC
:10374000F1E70120EFE70120EDE70220EEE72DE9A8
:10375000F04383B0044690F85160F6B2012E40F079
:10376000AB80884691461D464368B3F5827F32D0D0
:1037700094F85030012B00F0A780012384F85030DA
:10378000FEF7E0F80746B8F1000F00F09680B9F1B7
:10379000000F00F09280042384F851300023636509
:1037A000C4F83880A4F83C90A4F83E902363A38624
:1037B000E38623646364A368B3F5004F18D02368DD
:1037C0001A6812F0400F03D11A6842F040021A60E2
:1037D000E3680BB343E08368002BC9D1042380F86E
:1037E0005130009513460A46FFF78FFE064667E004
:1037F0002268136823F0400313602268136823F4DF
:1038000080431360DBE7FEF79DF8C01BA84202D39C
:10381000B5F1FF3F15D1A5B1E38F9BB2002B3CD092
:1038200023689A6812F0010FEDD0A26B1B7B137016
:10383000A36B0133A363E38F9BB2013B9BB2E3878E
:10384000EAE7012384F85130032636E0FEF77AF8E0
:10385000C01BA84202D3B5F1FF3F19D1C5B1E38F18
:103860009BB2D3B123689A6812F0010FEED0DA68E8
:10387000A36B1A80A36B0233A363B4F83EC01FFA94
:103880008CFC0CF1FF3C1FFA8CFCA4F83EC0E6E770
:10389000012384F8513003260FE03A46294620469A
:1038A000FFF79EFD08B120236365636D2BB90123EB
:1038B00084F85130002600E00226002384F85030BE
:1038C000304603B0BDE8F0830226F9E770470000F8
:1038D00090F83D30DBB2012B27D1022380F83D3038
:1038E0000268D36843F00103D3600368114A93422E
:1038F00010D0B3F1804F0DD0A2F59432934209D08D
:1039000002F58062934205D01A6842F001021A6003
:10391000002070479A6802F00702062A07D01A684A
:1039200042F001021A600020704701207047002019
:10393000704700BF002C01407047704770477047C8
:1039400010B5044603681A6912F0020F11D0DA6844
:1039500012F0020F0DD06FF002021A6101230377FB
:1039600003689B6913F0030F70D0FFF7E6FF002395
:10397000237723681A6912F0040F12D0DA6812F064
:10398000040F0ED06FF004021A610223237723681C
:103990009B6913F4407F5FD02046FFF7CEFF0023E2
:1039A000237723681A6912F0080F12D0DA6812F030
:1039B000080F0ED06FF008021A61042323772368E2
:1039C000DB6913F0030F4ED02046FFF7B6FF00234C
:1039D000237723681A6912F0100F12D0DA6812F0F8
:1039E000100F0ED06FF010021A610823237723689E
:1039F000DB6913F4407F3DD02046FFF79EFF002394
:103A0000237723681A6912F0010F03D0DA6812F0E5
:103A1000010F36D123681A6912F0800F03D0DA68DB
:103A200012F0800F34D123681A6912F0400F03D0CE
:103A3000DA6812F0400F32D123681A6912F0200FB1
:103A400003D0DA6812F0200F30D110BDFFF774FFF9
:103A50002046FFF773FF8AE72046FFF76DFF2046F9
:103A6000FFF76CFF9BE72046FFF766FF2046FFF756
:103A700065FFACE72046FFF75FFF2046FFF75EFFDC
:103A8000BDE76FF001021A612046FDF76DFDC1E749
:103A90006FF080021A61204600F077F8C3E76FF0FC
:103AA00040021A612046FFF74AFFC5E76FF0200287
:103AB0001A61204600F068F8C7E7000003681B4A57
:103AC00090420AD0B0F1804F07D0A2F594329042D4
:103AD00003D002F58062904203D123F070034A685C
:103AE0001343124A90420AD0B0F1804F07D0A2F59A
:103AF0009432904203D002F58062904203D123F4C5
:103B00004073CA68134323F080034A691343036078
:103B10008B68C3620B688362044B984202D0012316
:103B2000436170470B690363F9E700BF002C014054
:103B300040B310B5044690F83D30F3B1022384F849
:103B40003D30214651F8040BFFF7B8FF012384F8FC
:103B5000463084F83E3084F83F3084F8403084F8B2
:103B6000413084F8423084F8433084F8443084F89B
:103B7000453084F83D30002010BD80F83C30FFF720
:103B8000A5FEDBE70120704770477047EFF3058320
:103B900093B9EFF3108393B90C4B1868022804D043
:103BA00080B90A4B01221A607047EFF31183002B92
:103BB000F6D06FF0050070476FF0050070476FF0AA
:103BC000050070474FF0FF30704700BF280B002002
:103BD00008B5EFF30583B3B9EFF31083B3B90E4B18
:103BE0001B68022B08D0012B13D10B4B02221A6049
:103BF00001F0B2FD002008BDEFF31182002AF2D0DF
:103C00006FF00500F7E76FF00500F4E76FF00500CF
:103C1000F1E74FF0FF30EEE7280B002008B5EFF397
:103C200005834BB9EFF3108333B9064B1B68022BA6
:103C300005D1EFF3118313B101F0F2FD08BD01F0DE
:103C4000E9FDFBE7280B0020F0B587B000240494C1
:103C5000EFF30584002C44D1EFF31083002B40D107
:103C6000344B1B68022B16D000283AD000238DF865
:103C700017306AB3156895B1936903B918235C1EB0
:103C8000372C52D8546814F0010F50D156694EB1F8
:103C90004FEA960C08E0EFF3118313BBE4E70DF154
:103CA0001705E9E74FF0800C946834B1D768B7F591
:103CB000C07F02D3176907B1B6B914B14FF0FF3412
:103CC0000CE0D46894B914699CB14FF0FF3405E05E
:103CD000002418234FF0800C0DF11705012C0AD099
:103CE000ACB1049807B0F0BD0124F7E74FF0FF3402
:103CF000F4E70024F2E714699268029201940093B9
:103D00000B466246294601F0B7FC0490E9E704AA95
:103D1000019200930B461FFA8CF2294601F0E8FC51
:103D20000128DED000230493DBE70020DAE700203F
:103D3000D8E700BF280B002030B585B078B3054622
:103D400000292CDB4FF0FF330393EFF305834BB9CE
:103D5000EFF3108333B91B4B1B68022B25D1EFF314
:103D6000118313B30024029402AB00932346012273
:103D7000284602F0FBF8009403AB22462146284671
:103D800002F0F4F8029B6BB14FF0E0234FF0805249
:103D9000C3F8042DBFF34F8FBFF36F8F02E06FF0B6
:103DA00003030393039805B030BD00230122284686
:103DB00002F066F803AB00221146284602F060F8D4
:103DC000F0E700BF280B002000B583B0EFF30583B8
:103DD0004BB9EFF3108333B90D4B1B68022B09D19C
:103DE000EFF3118333B16FF005030193019803B032
:103DF0005DF804FB01F0DAFF01AB0022114602F08E
:103E00003FF80128F2D04FF0FF330193EEE700BFF7
:103E1000280B002008B5EFF30583A3B9EFF3108357
:103E2000A3B90C4B1B68022B02D040B9002008BD7F
:103E3000EFF31183002BF8D06FF00500F7E701F0E6
:103E4000FFFD0020F3E76FF00500F0E76FF00500DD
:103E5000EDE700BF280B002008B5EFF3058333BB67
:103E6000EFF310832BBB154B1B68022B0CD0D0B18A
:103E7000836813B1C2681F2A11D85BB14FF0FF33BA
:103E8000CBB900F065FA13E0EFF31183002BEED00D
:103E900000200DE0C36843B14FF0FF33F0E7184650
:103EA00000F031FA04E00023EAE70023E8E700200D
:103EB00008BD0020FCE70020FAE700BF280B002027
:103EC00070B310B582B00C460346B1F1807F2AD2A0
:103ED000EFF305824AB9EFF3108232B9164A12683D
:103EE000022A18D1EFF31182AAB10022019201AA8D
:103EF0002146184600F04AFBC8B9019BD3B14FF0E8
:103F0000E0234FF08052C3F8042DBFF34F8FBFF36F
:103F10006F8F204609E02146184600F0EBFA04E0D6
:103F20006FF0030070476FF0030002B010BD6FF038
:103F30000200FAE72046F8E7280B002070B518B316
:103F40000C460646B1F1807F21D2EFF305834BB9D1
:103F5000EFF3108333B9104B1B68022B0ED1EFF334
:103F600011835BB1304600F0B7FA05462146304672
:103F700000F0A8FA68B96FF002050AE02146304661
:103F800000F079FA054604E06FF0030501E06FF0F8
:103F90000305284670BD00BF280B0020B0B370B5E4
:103FA00082B00C461D468446B1F1807F31D2EFF3DA
:103FB000058393BBEFF3108393BB1E4B1B68022B4F
:103FC00013D012F0010617D0012312F0020F15D002
:103FD000002200952146604600F0C8F986B184426F
:103FE00019D005B36FF0010015E0EFF31183002B3A
:103FF000E7D06FF005000EE00023E6E70122E8E7D6
:10400000044208D195B16FF0010004E06FF00300A5
:1040100070476FF0030002B070BD6FF00500FAE763
:104020006FF00500F7E76FF00200F4E76FF00200B1
:10403000F1E700BF280B002030B583B0EFF3058314
:10404000002B49D11546EFF31083002B48D1284BA4
:104050001B68022B21D0002844D0002944D0A5B3EE
:10406000AB6853B1EA684F2A07D92A692AB101FB24
:1040700000F4D5F814C0A44521D2A3B14FF0FF330A
:10408000A3BB002200F090FE044634B305B12D68B6
:104090002946204601F0FEF81FE0EFF31183002BC4
:1040A000D9D0002419E0EB688BB92B6913B14FF01C
:1040B000FF33E5E76B696BB14FF0FF33E0E70024B6
:1040C000009400F028FE0446DFE70023D8E74FF015
:1040D000FF33D5E70023D3E70024204603B030BDEB
:1040E0000024FAE70024F8E70024F6E70024F4E7C8
:1040F000280B002010B582B01C46EFF30583B3B93E
:10410000EFF310839BB9224B1B68022B0BD098B3A3
:10411000A9B30023224600F06EFE012832D09CB3E2
:104120006FF001001AE0EFF31183002BEFD0B8B16C
:10413000C9B1DCB90023019301AA00F020FF0128D6
:1041400017D1019850B14FF0E0234FF08052C3F8DF
:10415000042DBFF34F8FBFF36F8F002002B010BD4F
:104160006FF00300FAE76FF00300F7E76FF003006A
:10417000F4E76FF00200F1E76FF00300EEE76FF095
:104180000300EBE70020E9E76FF00200E6E700BF7D
:10419000280B002010B582B01C46EFF30583ABB9A5
:1041A000EFF3108393B9214B1B68022B0AD090B315
:1041B000A1B3224600F049FF012832D09CB36FF032
:1041C00001001AE0EFF31183002BF0D0B8B1C9B1B0
:1041D000DCB90023019301AA00F0E6FF012817D102
:1041E000019850B14FF0E0234FF08052C3F8042DF6
:1041F000BFF34F8FBFF36F8F002002B010BD6FF081
:104200000300FAE76FF00300F7E76FF00300F4E74D
:104210006FF00200F1E76FF00300EEE76FF00300CC
:10422000EBE70020E9E76FF00200E6E7280B00204B
:1042300008B1C06B7047002070470000B0B108B5EE
:104240000346EFF305824AB9EFF3108232B9084A08
:104250001268022A06D1EFF311821AB1184601F052
:104260000DF808BD184600F0F6FFFAE70020704789
:10427000280B002008B5EFF305839BB9EFF31083FB
:104280009BB90D4B1B68022B05D088B1002100F0B3
:10429000EFFC002008BDEFF31183002BF5D06FF089
:1042A0000500F7E76FF00500F4E76FF00500F1E7B0
:1042B0006FF00300EEE700BF280B0020034B036004
:1042C000034B0B6080231360704700BFA8090020D8
:1042D000A8070020034B0360034B0B604FF480736F
:1042E0001360704728060020240200201AB90842F3
:1042F00005D110467047814303D00020704701204C
:1043000070470120704780B110B582B00446202369
:104310000193019B202B11D04FF0500383F31188A0
:10432000BFF36F8FBFF34F8FFEE74FF0500383F360
:104330001188BFF36F8FBFF34F8FFEE7002340F864
:10434000043B00F02DF901232377204602B010BD75
:1043500038B5202000F038FB044628B1002540F88D
:10436000045B00F01DF92577204638BD88B12DE9A2
:10437000F0410C4616461D460746B1F1807F11D329
:104380004FF0500383F31188BFF36F8FBFF34F8F4C
:10439000FEE74FF0500383F31188BFF36F8FBFF335
:1043A0004F8FFEE741B94FF0500383F31188BFF3FD
:1043B0006F8FBFF34F8FFEE701F0FEFC50B9069BF5
:1043C00043B14FF0500383F31188BFF36F8FBFF3F6
:1043D0004F8FFEE701F016FAD7F800802A462146F3
:1043E0004046FFF783FFF8B18EB328EA04033B6031
:1043F0000023069301F0A8FA069B93B148B94FF049
:10440000E0234FF08052C3F8042DBFF34F8FBFF36A
:104410006F8F01F029FD804610F0007F1AD028F040
:104420007F484046BDE8F081069B002BE2D05EB994
:1044300000210DB141F08061069A2143381D01F041
:104440008FFB4FF00008D5E74FF08071F1E70023B4
:104450000693CFE700F03EF9D7F800802A462146C0
:104460004046FFF743FF18B116B128EA04043C6048
:1044700000F052F9D3E770B170B50C460546B1F1C2
:10448000807F11D34FF0500383F31188BFF36F8FF8
:10449000BFF34F8FFEE74FF0500383F31188BFF354
:1044A0006F8FBFF34F8FFEE700F014F92E6826EAF6
:1044B00004042C6000F030F9304670BD08B5FFF7F9
:1044C000DAFF08BD08B50A4600230146014801F09D
:1044D000F1FF08BDBD440008EFF311834FF0500217
:1044E00082F31188BFF36F8FBFF34F8F006883F3A0
:1044F00011887047F8B568B10D460446B1F1807F68
:1045000011D34FF0500383F31188BFF36F8FBFF3C4
:104510004F8FFEE74FF0500383F31188BFF36F8F87
:10452000BFF34F8FFEE700F10C0601F06BF9206935
:1045300023682B43236000270AE0216832EA010147
:1045400005D111E0216841F0007101F097FB284688
:10455000B0420ED04568036823F07F4213F0806FAD
:10456000EBD121681142F2D013F0807FEAD01743DB
:10457000E8E7236823EA0703236001F0E5F92068F0
:10458000F8BD08B5FFF7B6FF08BD000008B5134633
:104590000A460146014801F08DFF08BD8345000829
:1045A00000F1080343604FF0FF328260C360036193
:1045B00000230360704700230361704743684B602A
:1045C0009A688A60516099600861036801330360EA
:1045D000704730B40D68B5F1FF3F11D000F108030A
:1045E0001C465B681A68AA42FAD963684B609960F6
:1045F0008C606160086103680133036030BC704700
:104600000469F2E70369416882688A604168516021
:104610005A68824206D0002202611A68013A1A6082
:104620001868704782685A60F5E7000082B000237E
:1046300001930D4B1B68B3F1FF3F08D04FF05003BF
:1046400083F31188BFF36F8FBFF34F8FFEE74FF0F7
:10465000500383F31188BFF36F8FBFF34F8F019B1C
:10466000002BFCD002B070470C0000200648006808
:10467000006880F3088862B661B6BFF34F8FBFF35E
:104680006F8F00DF00BF000008ED00E04FF0807387
:1046900040F8043C21F0010140F8081C034B40F8AD
:1046A0000C3C40F8202C4038704700BF2D460008D5
:1046B000074B19680868B0E8F00F80F30988BFF36A
:1046C0006F8F4FF0000080F311884EF00D0E704791
:1046D000881C00204FF0500383F31188BFF36F8FC5
:1046E000BFF34F8F0B4A136801331360012B00D0C7
:1046F00070474FF0E023D3F8043D13F0FF0FF7D0DD
:104700004FF0500383F31188BFF36F8FBFF34F8FC8
:10471000FEE700BF0C000020094B1B6843B94FF0B7
:10472000500383F31188BFF36F8FBFF34F8FFEE702
:10473000013B034A13600BB983F31188704700BF34
:104740000C0000200000000000000000000000003D
:10475000EFF30980BFF36F8F0D4B1A6820E9F00F5C
:1047600010602DE908404FF0500080F3118801F0EF
:104770008DF94FF0000080F31188BDE808401968FA
:104780000868B0E8F00F80F30988BFF36F8F7047B7
:10479000881C002008B54FF0500383F31188BFF345
:1047A0006F8FBFF34F8F01F043F828B14FF0E02334
:1047B0004FF08052C3F8042D002383F3118808BD05
:1047C0004FF0E022002313619361054B1B680549FC
:1047D000A1FB03139B09013B53610723136170473E
:1047E00000000020D34D621010B582B02A4B1A7819
:1047F000D2B20192FF221A701B78DBB28DF803301F
:104800009DF8033003F05003244A1370244B072211
:104810001A6009E0224A1368013B13609DF80330D7
:104820005B00DBB28DF803309DF8033013F0800F8E
:10483000F0D11B4B1B68032B08D04FF0500383F3C0
:104840001188BFF36F8FBFF34F8FFEE71B02144A2F
:10485000136003F4E0631360019BDBB20E4A137034
:104860004FF0E023D3F8202D42F47002C3F8202D3E
:10487000D3F8202D42F07042C3F8202DFFF7A0FF9F
:104880000024084B1C60FFF7F1FE01F0FFF8FFF772
:10489000CDFE204602B010BD00E400E0300B002049
:1048A0002C0B00200C000020EFF305830F2B0FD9F9
:1048B000114A9B5CDBB2114A12789A4208D94FF038
:1048C000500383F31188BFF36F8FBFF34F8FFEE761
:1048D0004FF0E023D3F80C3D03F4E063084A12687C
:1048E000934208D94FF0500383F31188BFF36F8FC1
:1048F000BFF34F8FFEE77047F0E300E0300B00207E
:104900002C0B0020124A12F0070F1ED0D11D21F0EF
:104910000701C1F5406313440A460E4802600021B6
:1049200041601344083B23F007030B4803605960C0
:104930001960991A51601360084B1960084B19608F
:10494000084B4FF000421A6070474FF44063E4E7B1
:104950004C0B0020440B0020400B0020380B0020A3
:104960003C0B0020340B0020154B1A461B68834279
:10497000FBD3516802EB010C844509D0416800EB80
:10498000010C634509D00360904218D01060704755
:104990004068014451601046F0E710B4094C2468A7
:1049A000A3420AD05B681944416013681B68036026
:1049B000904200D0106010BC70470460F8E7704768
:1049C000440B0020400B002038B5044600F01AFFCD
:1049D000364B1B68B3B1364B1B681C424CD1002CC4
:1049E0004CD004F1080214F0070F02D022F00702A5
:1049F0000832002A51D02F4B1B6893424FD32E49C7
:104A00000C6804E0FFF77EFFE5E721461C4663687B
:104A1000934202D22368002BF7D1244B1B68A34298
:104A20003FD00D68083523680B6063689B1A102B14
:104A300010D9A01810F0070F08D04FF0500383F3DF
:104A40001188BFF36F8FBFF34F8FFEE74360626043
:104A5000FFF78AFF626817490B689B1A0B601749BA
:104A600009688B4201D215490B60114B1B68134337
:104A700063600023236002E0002500E0002500F0D1
:104A800063FF15F0070F0ED04FF0500383F311882A
:104A9000BFF36F8FBFF34F8FFEE70025EFE70025D1
:104AA000EDE70025EBE7284638BD00BF400B0020AE
:104AB000340B00203C0B0020440B0020380B00205E
:104AC00080B338B50446A0F1080550F8043C164AF6
:104AD0001268134208D14FF0500383F31188BFF3DB
:104AE0006F8FBFF34F8FFEE750F8081C41B14FF0B6
:104AF000500383F31188BFF36F8FBFF34F8FFEE72F
:104B000023EA020340F8043C00F07CFE54F8041C45
:104B1000064A13680B4413602846FFF725FF00F090
:104B200013FF38BD704700BF340B00203C0B002042
:104B300010B50446FFF7CEFDA26BE36B9A4204D09A
:104B40000024FFF7E9FD204610BD0124F9E710B568
:104B50000446FFF7BFFDA36B23B90124FFF7DCFD7B
:104B6000204610BD0024F9E770B504461546866B53
:104B7000026C5AB903681BB100200136A66370BDF0
:104B8000406801F029F900236360F6E76DB9806899
:104B900001F022FEA368226C1344A3606268934272
:104BA00019D32368A3602846E7E7C06801F014FE24
:104BB000E368226C51429B1AE3602268934202D25E
:104BC00063680B44E360022D01D00020D5E726B1D5
:104BD000013E0020D1E72846CFE70020CDE708B509
:104BE0000346026C62B10846D9681144D960D3F813
:104BF00004C0614501D31968D960D96801F0ECFDA2
:104C000008BD38B50546FFF765FD95F8454064B227
:104C100001E0013C64B2002C0ADD6B6A43B105F18E
:104C2000240000F0E5FF0028F3D001F0B9F8F0E728
:104C3000FF2385F84530FFF76FFDFFF74BFD95F833
:104C4000444064B201E0013C64B2002C0ADD2B69EF
:104C500043B105F1100000F0CBFF0028F3D001F0C4
:104C60009FF8F0E7FF2385F84430FFF755FD38BD86
:104C700038B5E0B10D460446FFF72CFD2368E26B22
:104C8000216C01FB023060600020A063A360013A48
:104C900002FB0133E360FF2384F8443084F845309D
:104CA000FDB9236963B9FFF737FD012038BD4FF027
:104CB000500383F31188BFF36F8FBFF34F8FFEE76D
:104CC00004F1100000F094FF0028ECD04FF0E02336
:104CD0004FF08052C3F8042DBFF34F8FBFF36F8F97
:104CE000E1E704F11000FFF75BFC04F12400FFF79B
:104CF00057FCD8E738B51D46049C0B4649B92460DB
:104D0000E063236401212046FFF7B2FF84F84C5092
:104D100038BD2260F4E740B94FF0500383F31188A7
:104D2000BFF36F8FBFF34F8FFEE710B584B01C4603
:104D3000844653B192B189B94FF0500383F311887F
:104D4000BFF36F8FBFF34F8FFEE74FF0500383F336
:104D50001188BFF36F8FBFF34F8FFEE76AB1502307
:104D60000393039B502B13D04FF0500383F3118810
:104D7000BFF36F8FBFF34F8FFEE70029EFD04FF0E7
:104D8000500383F31188BFF36F8FBFF34F8FFEE79C
:104D9000012384F8463000949DF818306046FFF7F0
:104DA000A9FF204604B010BD40B94FF0500383F373
:104DB0001188BFF36F8FBFF34F8FFEE7F0B583B05D
:104DC0000C4615460746A1B101FB00F05030FFF735
:104DD000FBFD064650B1002380F8463000902B467C
:104DE00000F1500221463846FFF784FF304603B0F9
:104DF000F0BD0846EAE7F0B585B0019288B10F46EC
:104E00001D460446B1B1022D20D1E36B012B1DD00C
:104E10004FF0500383F31188BFF36F8FBFF34F8FB1
:104E2000FEE74FF0500383F31188BFF36F8FBFF39A
:104E30004F8FFEE7036C002BE5D04FF0500383F358
:104E40001188BFF36F8FBFF34F8FFEE700F0B4FF01
:104E5000064658B9019B002B48D04FF0500383F30E
:104E60001188BFF36F8FBFF34F8FFEE700263DE041
:104E70002A4639462046FFF777FE636A7BB948B178
:104E80004FF0E0234FF08052C3F8042DBFF34F8F53
:104E9000BFF36F8FFFF740FC012005B0F0BD04F1B8
:104EA000240000F0A5FE0028F4D04FF0E0234FF0DE
:104EB0008052C3F8042DBFF34F8FBFF36F8FE9E724
:104EC000FFF72AFC0020E8E702A800F01BFF0126FC
:104ED00019E0002384F8443021E0002384F84530B1
:104EE00023E02046FFF78DFE00F02EFDFFF7F2FBDA
:104EF000A26BE36B9A42BBD3022DB9D0019B002B6E
:104F0000DED0002EE0D0FFF707FC00F07BFCFFF7BF
:104F1000E1FB94F8442052B2B2F1FF3FD9D094F8AB
:104F2000452052B2B2F1FF3FD7D0FFF7F5FB01A900
:104F300002A800F0F3FED8B92046FFF7F9FD0028DB
:104F4000CFD0019904F1100000F0F2FD2046FFF7E8
:104F500058FE00F0F9FC0028C8D14FF0E0234FF0D4
:104F60008052C3F8042DBFF34F8FBFF36F8FBDE79F
:104F70002046FFF746FE00F0E7FC00208DE72DE914
:104F8000F84390B10F4616461C460546B1B1022CB7
:104F900020D1EB6B012B1DD04FF0500383F3118810
:104FA000BFF36F8FBFF34F8FFEE74FF0500383F3D4
:104FB0001188BFF36F8FBFF34F8FFEE7036C002B99
:104FC000E5D04FF0500383F31188BFF36F8FBFF329
:104FD0004F8FFEE7FFF768FCEFF311884FF05003A7
:104FE00083F31188BFF36F8FBFF34F8FAA6BEB6B07
:104FF0009A4206D3022C04D0002088F31188BDE821
:10500000F88395F845904FFA89F9224639462846A3
:10501000FFF7AAFDB9F1FF3F06D009F101035BB22A
:1050200085F845300120E8E76B6A0BB90120E4E719
:1050300005F1240000F0DCFD18B126B1012030603C
:10504000DBE70120D9E70120D7E7F0B585B0019271
:1050500090B10F460446C1B100F0AEFE064600BB5B
:10506000019B002B5ED04FF0500383F31188BFF3F8
:105070006F8FBFF34F8FFEE74FF0500383F311881C
:10508000BFF36F8FBFF34F8FFEE7036C002BE3D0AE
:105090004FF0500383F31188BFF36F8FBFF34F8F2F
:1050A000FEE700263EE039462046FFF798FD013D29
:1050B000A563236923B9FFF72FFB012005B0F0BDDD
:1050C00004F1100000F094FD0028F4D04FF0E0232C
:1050D0004FF08052C3F8042DBFF34F8FBFF36F8F93
:1050E000E9E7FFF719FB0020E8E702A800F00AFE55
:1050F000012621E0002384F8443029E0002384F8CD
:1051000045302BE02046FFF77CFD00F01DFC09E058
:105110002046FFF776FD00F017FC2046FFF717FD4D
:1051200000283FD1FFF7D6FAA56B002DBBD1019B1C
:10513000002BD6D0002ED8D0FFF7EEFA00F062FB9D
:10514000FFF7C8FA94F844305BB2B3F1FF3FD1D017
:1051500094F845305BB2B3F1FF3FCFD0FFF7DCFAF4
:1051600001A902A800F0DAFD0028D1D12046FFF7FE
:10517000EEFC0028C6D0019904F1240000F0D8FC10
:105180002046FFF73EFD00F0DFFB0028CAD14FF0BC
:10519000E0234FF08052C3F8042DBFF34F8FBFF3CD
:1051A0006F8FBFE7002089E72DE9F843B0B10D46C6
:1051B00090460446D9B1FFF777FBEFF311874FF024
:1051C000500383F31188BFF36F8FBFF34F8FA66B2C
:1051D000CEB9002087F31188BDE8F8834FF0500363
:1051E00083F31188BFF36F8FBFF34F8FFEE7036C1C
:1051F000002BE0D04FF0500383F31188BFF36F8F83
:10520000BFF34F8FFEE794F844904FFA89F929468F
:105210002046FFF7E4FC731EA363B9F1FF3F06D0FD
:1052200009F101035BB284F844300120D2E723691D
:105230000BB90120CEE704F1100000F0D9FC30B129
:10524000B8F1000F05D00120C8F80000C2E7012026
:10525000C0E70120BEE740B110B50446FFF73AFAB7
:10526000A46BFFF759FA204610BD4FF0500383F3AB
:105270001188BFF36F8FBFF34F8FFEE708B1806BCC
:1052800070474FF0500383F31188BFF36F8FBFF364
:105290004F8FFEE70023072B0CD8074A52F8332024
:1052A0000AB10133F7E7044A42F8331002EBC302B4
:1052B00050607047704700BF4C17002070B504461F
:1052C0000D461646FFF706FA94F844305BB2B3F188
:1052D000FF3F0DD094F845305BB2B3F1FF3F0BD0E8
:1052E000FFF71AFAA36B5BB12046FFF78AFC70BD8B
:1052F000002384F84430EDE7002384F84530EFE7DD
:105300003246294604F1240000F056FCECE7000088
:10531000084B1B681B6823B9074B4FF0FF321A601C
:105320007047044B1B68DB68DB685A68024B1A60E5
:10533000704700BFFC170020941700202DE9F047AC
:1053400080460D4617469946089EDDF824A00A9C23
:105350009200A521206B01F0A5F9236B07F1804293
:10536000013A03EB820727F007074FF0000CBCF16E
:105370000F0F09D815F80C3004EB0C0282F834300A
:1053800013B10CF1010CF2E7002384F84330372EFF
:1053900000D93726E662E66400252565201DFFF763
:1053A0000AF904F11800FFF706F92461C6F138067E
:1053B000A6616462C4F8785184F87C514FF490720D
:1053C000294604F1580001F06DF9194BE36503F12A
:1053D00068022266D033636601220023C4E93C23BD
:1053E00043F20E33A4F8F8304AF6CD33A4F8FA307D
:1053F00041F23423A4F8FC304EF26D63A4F8FE3081
:105400004DF6EC63A4F800310523A4F802310B2318
:10541000A4F804314A4641463846FFF737F9206080
:10542000BAF1000F01D0CAF80040BDE8F08700BF14
:10543000C01D002038B5002407E004EB840293006F
:105440000E481844FFF7ACF80134372CF5D90C4D51
:105450002846FFF7A5F80B4C2046FFF7A1F80A48AD
:10546000FFF79EF80948FFF79BF80948FFF798F8FF
:10547000084B1D60084B1C6038BD00BF2818002079
:105480001418002000180020E4170020D017002076
:10549000B8170020FC170020F817002010B50446AC
:1054A000FFF718F9224A136801331360214B1B6878
:1054B0005BB1214B1B686BB91E4B1B68DA6AE36A50
:1054C0009A4207D81B4B1C6004E01A4B1C601368FF
:1054D000012B29D0194A1368013313606364E06A11
:1054E000174B1B68984201D9154B186000EB8000E0
:1054F000211D144B03EB8000FFF760F8FFF70CF958
:105500000D4B1B687BB10B4B1B68DA6AE36A9A424E
:1055100009D24FF0E0234FF08052C3F8042DBFF3BF
:105520004F8FBFF36F8F10BDFFF784FFD2E700BF2F
:10553000B4170020881C0020A8170020981700200E
:10554000AC1700202818002010B50446583001F090
:10555000B1F894F87D3163B1012B11D0022B0ED03C
:105560004FF0500383F31188BFF36F8FBFF34F8F5A
:10557000FEE7206BFFF7A4FA2046FFF7A1FA10BD63
:105580002046FFF79DFAFAE70F4B1B68D3B110B521
:10559000FFF7A0F80D4BDB68DC68201DFFF732F841
:1055A0000B4A1368013B1360074A1368013B136001
:1055B000FFF7B2F82046FFF7C7FF034B1B68002B2D
:1055C000E6D110BD704700BFCC170020D0170020D7
:1055D000B417002008B5FFF7D7FF074B1B68012B56
:1055E000F9D94FF0E0234FF08052C3F8042DBFF3F8
:1055F0004F8FBFF36F8FEEE72818002070B5044679
:105600000D46174B1E68174B18680430FEF7FAFF5B
:10561000B4F1FF3F0DD03444124B1B685C60A642CE
:1056200010D9114B18680F4B19680431FEF7D1FFE0
:1056300070BD002DEFD00B4B196804310B48FEF7FD
:10564000BDFFF5E70A4B1868064B19680431FEF7F1
:10565000C0FF084B1B68A342EAD9064B1C60E7E772
:10566000B0170020881C0020F8170020B817002071
:10567000FC1700209417002030B587B00B9C8CB12C
:105680000C9DC5B14FF4C0750495049DB5F5C07F60
:105690001AD04FF0500383F31188BFF36F8FBFF31D
:1056A0004F8FFEE74FF0500383F31188BFF36F8FE6
:1056B000BFF34F8FFEE74FF0500383F31188BFF322
:1056C0006F8FBFF34F8FFEE70C9D2C63022485F88C
:1056D0007D4100240394029505AC01940A9C00943A
:1056E000FFF72CFE0C98FFF7D9FE059807B030BDE8
:1056F0002DE9F04385B00746884614461E469000C3
:10570000FFF762F910B381464FF4C070FFF75CF900
:105710000546A8B1C0F83090002380F87D3103938E
:1057200002900D9B01930C9B009333462246414609
:105730003846FFF703FE2846FFF7B0FE012007E0DA
:105740004846FFF7BDF94FF0FF3001E04FF0FF3062
:1057500005B0BDE8F083000010B588B000240594C2
:10576000069407AA06A905A8FEF7A8FD059B0293C3
:10577000069B019300942346079A1A491A48FFF79B
:105780007BFF1A4B1860E8B100F0EAFC01281AD13F
:105790004FF0500383F31188BFF36F8FBFF34F8F28
:1057A000134B1B685833134A1360134B4FF0FF32EF
:1057B0001A60124B01221A60114B00221A60FFF787
:1057C00013F803E00020B0F1FF3F01D008B010BD96
:1057D0004FF0500383F31188BFF36F8FBFF34F8FE8
:1057E000FEE700BFE4680008D555000890170020C8
:1057F000881C00201000002094170020A81700200B
:10580000B0170020024A136801331360704700BFCD
:105810008C170020014B1868704700BFB01700209C
:1058200008B5FFF741F8014B186808BDB017002014
:10583000F8B53A4B1B68002B64D1394B1D68013514
:105840001D60C5B9374B1B681B6843B14FF050034F
:1058500083F31188BFF36F8FBFF34F8FFEE7314A99
:105860001168314B186810601960304A13680133B1
:105870001360FFF74DFD2E4B1B68AB4238D9002754
:105880002C4B1B68DB6A03EB83039A002A4B9B5863
:10589000012B3CD901273AE00127224B1B681B68EA
:1058A00043B3204B1B68DB68DC6863689D4226D3EA
:1058B000261D3046FEF7A6FEA36A1BB104F11800B0
:1058C000FEF7A0FEE36A1D4A1268934201D91B4A03
:1058D000136003EB83039A00314617481044FEF728
:1058E0006DFEE26A134B1B68DB6A9A42D4D2D4E79E
:1058F0000027D2E70E4B4FF0FF321A60C0E70C4A88
:105900001360BDE70E4A13680133136000270D4B87
:105910001B6803B101273846F8BD00BF8C17002073
:10592000B0170020FC170020F81700209C1700205B
:1059300094170020881C002028180020AC17002095
:10594000A4170020A017002038B5354B1B6843B9B9
:105950004FF0500383F31188BFF36F8FBFF34F8F66
:10596000FEE7FEF7B7FE2E4B1A68013A1A601B6875
:10597000002B4FD12B4B1B680BB900244BE00024AC
:10598000294B1B681BB3284BDB68DC6804F118004B
:10599000FEF738FE251D2846FEF734FEE06A234B4D
:1059A0001B68984201D9214B186000EB8000294602
:1059B0001F4B03EB8000FEF701FEE26A1D4B1B68E4
:1059C000DB6A9A42DCD31C4B01221A60D8E70CB187
:1059D000FFF79EFC194B1C6884B9174B1C68D4B1A7
:1059E0004FF0E0234FF08052C3F8042DBFF34F8FE8
:1059F000BFF36F8F01240EE0013C07D0FFF718FFC3
:105A00000028F9D00C4B01221A60F5E70B4B00225D
:105A10001A60E2E70024FEF77FFE204638BD00BF93
:105A20008C170020B4170020E4170020AC170020CA
:105A300028180020881C0020A0170020A417002090
:105A400010B5A8B10446104B1B6843B14FF050038A
:105A500083F31188BFF36F8FBFF34F8FFEE7FFF71C
:105A6000D1FE00212046FFF7C9FDFFF76DFF48B9C1
:105A70004FF0E0234FF08052C3F8042DBFF34F8F57
:105A8000BFF36F8F10BD00BF8C170020224B1B6827
:105A90001BB1224B01221A607047204B00221A6072
:105AA0001F4B1B6803EB83018A001E498A585AB9B1
:105AB0000BB1013BF6E74FF0500383F31188BFF3BE
:105AC0006F8FBFF34F8FFEE7084603EB83018A0019
:105AD000024451684968516003EB830C4FEA8C0221
