:020000040800F2
:10000000005000204D320008B5040008B704000875
:10001000B9040008BB040008BD040008000000008B
:10002000000000000000000000000000E1180008CF
:10003000BF0400080000000081190008C51900086D
:100040009532000895320008953200089532000874
:100050009532000895320008953200089532000864
:100060009532000895320008953200089532000854
:100070009532000895320008953200089532000844
:100080009532000895320008953200089532000834
:10009000C10400089532000895320008D104000818
:1000A00095320008DD0400089532000895320008FA
:1000B0009532000895320008953200089532000804
:1000C00095320008953200089532000895320008F4
:1000D00095320008953200089532000895320008E4
:1000E00095320008953200089532000800000000A3
:1000F0000000000000000000000000000000000000
:0C01000000000000000000005FF808F1A3
:1001100010B5054C237833B9044B13B10448AFF341
:1001200000800123237010BD10000020000000009B
:100130000C33000808B5034B1BB103490348AFF368
:10014000008008BD00000000140000200C330008EF
:1001500008B50D480D4B03601423436000238360F2
:10016000C3604FF4602202614FF480124261037653
:1001700043768376C3760377437700F0DDF900B9E1
:1001800008BD00F0DFF8FBE72C0000200064004011
:1001900010B586B00023029303930493059302687D
:1001A0001E4B9A4201D006B010BD03F5D633DA6972
:1001B00042F00072DA61DA6902F000720092009A8D
:1001C0009A6942F008029A619B6903F0080301935F
:1001D000019B4FF480730293114C02A9204600F05A
:1001E000EBFB4FF400730293022303930323059365
:1001F00002A9204600F0E0FB0A4A536823F4C043FA
:1002000043F0E06343F4804353600022052114204F
:1002100000F0B4FB142000F0C1FBC4E70064004010
:10022000000C01400000014008B5012001F032FA45
:10023000FBE708B5012001F02DFAFBE708B5012026
:1002400001F028FAFBE7000008B50E4A0221102051
:1002500001F042FA0C4B18600C4A00210C4801F0E6
:10026000A3F90C4B18600C4A00210C4801F09CF9D2
:100270000B4B18600B4A00210B4801F095F90B4B12
:10028000186008BD6833000854000020C833000817
:100290002902000860000020A4330008330200088F
:1002A0005C000020803300083D0200085800002058
:1002B00010B588B000240494059406940794184B54
:1002C0009A6942F020029A619A6902F02002019232
:1002D000019A9A6942F004029A619A6902F0040252
:1002E0000292029A9A6942F008029A619B6903F0AD
:1002F00008030393039B802304930A4B0593022373
:10030000069304A9084800F057FB22460521172050
:1003100000F034FB172000F041FB08B010BD00BF17
:1003200000100240000011100008014008B50268EA
:10033000034B9A4200D008BD00F0ECF8FBE700BF89
:10034000002C014072B6FEE700B591B028220021D2
:1003500006A802F0A0FF00230193029303930493E5
:100360000593012206924FF4803307930A920222EA
:100370000D920E934FF4E0130F9306A800F050FC7B
:1003800080B90F23019302210291002303934FF4BC
:1003900080620492059301A800F074FE20B911B0A8
:1003A0005DF804FBFFF7CEFFFFF7CCFF08B500F0C8
:1003B0009FF8FFF7C9FFFFF77BFFFFF7C9FE01F0CA
:1003C000ABF8FFF741FF01F0C9F8FEE700B583B0D5
:1003D000114B9A6942F001029A619A6902F0010296
:1003E0000092009ADA6942F08052DA61DB6903F028
:1003F00080530193019B00220F216FF0010000F058
:10040000BDFA064A536823F0E06343F0007353607B
:1004100003B05DF804FB00BF001002400000014083
:1004200030B589B004461E4B9A6942F400629A6165
:100430009B6903F400630193019B02A903A800F0E8
:10044000EDFE00F0DBFE174AA2FB00239B0C013BF4
:100450001548164A026040F2E732C260436000234A
:1004600003618360836101F029F8054610B12846D5
:1004700009B030BD0C4800F0F1FE05460028F6D169
:10048000192000F08BFA0F2C01D90125EFE700228B
:100490002146192000F072FA054B1C60E7E700BF07
:1004A0000010024083DE1B4364000020002C01404A
:1004B00008000020FEE7FEE7FEE7FEE7FEE77047E4
:1004C00008B5024800F0EBF808BD00BF2C00002082
:1004D00008B5802000F080FB08BD000008B5024888
:1004E00000F0F4FE08BD00BF64000020704700006B
:1004F00008B5074A136843F010031360032000F0A7
:100500002BFA0F20FFF78CFFFFF760FF002008BDDC
:1005100000200240034A1168034B1B780B44136010
:10052000704700BFAC00002004000020014B186899
:10053000704700BFAC000020002800F0A18038B553
:10054000044690F82030D3B12268136843F00103C9
:100550001360FFF7EBFF054623685A6812F0010F9E
:1005600010D1FFF7E3FF401B0A28F5D9636A43F473
:1005700000336362052384F82030012038BDFFF783
:1005800007FEE1E71A6822F002021A60FFF7CEFFC9
:10059000054623685A6812F0020F0DD0FFF7C6FF18
:1005A000401B0A28F5D9636A43F4003363620523CC
:1005B00084F820300120E1E7227E012A3DD01A682C
:1005C00022F080021A60637E012B3BD02268136800
:1005D00023F040031360A37E012B39D022681368F7
:1005E00023F020031360E37E012B37D022681368C9
:1005F00043F010031360237F012B35D0226813686A
:1006000023F008031360637F012B33D02268136843
:1006100023F004031360A368E268134322691343C1
:10062000626913436268013A21681343CB61002079
:100630006062012384F82030A0E71A6842F080024B
:100640001A60C0E72268136843F040031360C2E7F2
:100650002268136843F020031360C4E7226813681C
:1006600023F010031360C6E72268136843F0080301
:100670001360C8E72268136843F004031360CAE7F5
:100680000120704770477047704770477047704748
:1006900070477047704770477047704770472DE943
:1006A000F84F054603685C69D3F804809F68D3F867
:1006B0000CA0D3F81090D3F818B014F001063BD07A
:1006C00017F0010616D001229A6017F0020F08D128
:1006D00017F0040F0CD117F0080606D04FF480561F
:1006E00008E0FFF7CFFF002604E0FFF7CEFF01E0B0
:1006F0004FF4006617F4807F0DD02B684FF48072A2
:100700009A6017F4007F40F0968017F4806F00F035
:10071000968046F4005617F4803F0DD02B684FF4B6
:1007200080329A6017F4003F40F0938017F4802FD6
:1007300000F0938046F4004614F0080F07D01AF03A
:10074000100F04D046F400762B681022DA6014F003
:10075000040F03D01AF0080F40F0898014F0020F44
:1007600005D02B68DB6813F0030F40F0878014F08E
:10077000400F07D019F0100F04D046F480662B68A4
:1007800010221A6114F0200F02D019F0080F79D14D
:1007900014F0100F04D02B681B6913F0030F78D1ED
:1007A00014F4003F02D018F0100F76D114F4803FFB
:1007B00002D018F0080F77D114F4004F37D018F09A
:1007C000040F31D014F4807F04D01BF0010F01D04E
:1007D00046F0010614F4007F04D01BF0020F01D094
:1007E00046F0020614F4806F04D01BF0040F01D011
:1007F00046F0040614F4006F16D01BF0700B13D0F3
:10080000BBF1400F66D056D8BBF1200F5CD0BBF1D6
:10081000300F5CD0BBF1100F01D146F008062A68FA
:10082000936923F0700393612B6804225A60002EB1
:1008300056D1BDE8F88F2846FFF725FF6BE717F480
:10084000006F02D046F4804665E72846FFF71EFF9A
:1008500061E72846FFF718FF6EE717F4002F02D074
:1008600046F4803668E72846FFF711FF64E72B68F7
:100870000822DA602846FFF70CFF6FE72846FFF7EB
:1008800007FF74E72B6808221A612846FFF703FF69
:100890007EE72846FFF7FEFE82E72B6810225A60AB
:1008A0002846FFF7F9FE81E72B6808225A602846A0
:1008B000FFF7F3FE80E7BBF1500F0ED0BBF1600FE6
:1008C000ADD146F48076AAE746F01006A7E746F0D9
:1008D0002006A4E746F04006A1E746F080069EE722
:1008E0006B6A33436B622846FFF7D8FEA1E700002E
:1008F000002808DB0901C9B200F1604000F5614041
:1009000080F80013704700F00F000901C9B2014BD5
:100910001954704714ED00E000B500F00700C0F175
:10092000070CBCF1040F28BF4FF0040C031D062B6D
:100930000FD9C31E4FF0FF3E0EFA0CF021EA000162
:1009400099400EFA03FE22EA0E0241EA02005DF827
:1009500004FB0023EEE70000074AD36823F4E063BA
:100960001B041B0C000200F4E060034343F0BF6370
:1009700043F40033D360704700ED00E010B5044647
:10098000054BD868C0F30220FFF7C6FF014620469A
:10099000FFF7AEFF10BD00BF00ED00E0002807DB51
:1009A00000F01F02400901239340024A42F8203020
:1009B000704700BF00E100E070B582B00024A4469B
:1009C000A1E07E4DAB4214D00CD8A5F58015AB420A
:1009D0000FD005F57025AB420BD0A5F58015AB42C5
:1009E00010D106E0764DAB4203D005F58035AB4221
:1009F00008D18B68002B50D0012B49D042610824CC
:100A000000E0CC68BEF1FF0F49D806464FEA8C02E1
:100A100033680F25954023EA050304FA02F21343D5
:100A200033604B6813F0805F6BD0664B9A6942F07D
:100A300001029A619B6903F001030193019B4FEA54
:100A40009C02951C604B53F825600CF00305AD002B
:100A50000F23AB4026EA03065C4B984226D003F5F1
:100A60008063984200F08C8003F58063984200F028
:100A7000898003F58063984216D0042317E0CC6880
:100A80000434BFE7CC680834BCE7CC680C34B9E761
:100A900002610824B6E70024B4E70424B2E7061D87
:100AA000ACF108029200B3E7032300E00023AB405F
:100AB00033430232444D45F822304B6813F4801F13
:100AC00062D0434A936843EA0E0393604B6813F481
:100AD000001F5FD03E4AD36843EA0E03D3604B68E1
:100AE00013F4003F5CD03A4A536843EA0E03536064
:100AF0004B6813F4803F59D0354A136843EA0E031C
:100B000013600CF1010C0B6833FA0CF254D0012283
:100B100002FA0CF203EA020E32EA0303F1D14B6847
:100B2000122B3FF64EAF122B3FF66CAF01A555F8D6
:100B300023F000BFF3090008030A0008850A000833
:100B4000970A0008050A0008050A0008050A0008B7
:100B5000050A0008050A0008050A0008050A000839
:100B6000050A0008050A0008050A0008050A000829
:100B7000050A0008050A00087F0A00088B0A000819
:100B8000012394E7022392E7114A936823EA0E03B4
:100B900093609BE70E4AD36823EA0E03D3609EE777
:100BA0000B4A536823EA0E035360A1E7084A13680F
:100BB00023EA0E031360A4E702B070BD0000221008
:100BC0000000311000100240000001400008014008
:100BD000000401407047000008B5054B5B69034203
:100BE00000D108BD024B5861FFF7F4FFF9E700BFE1
:100BF0000004014082B0084B1B68084AA2FB032393
:100C00005B0A00FB03F3019300BF019B5A1E019294
:100C1000002BF9D102B0704700000020D34D6210C4
:100C2000002800F0F18170B582B00446036813F02B
:100C3000010F2CD0994B5B6803F00C03042B1DD0E3
:100C4000964B5B6803F00C03082B12D06368B3F576
:100C5000803F41D0002B55D103F1804303F504338D
:100C60001A6822F480321A601A6822F480221A600C
:100C700037E08A4B5B6813F4803FE7D0874B1B68F3
:100C800013F4003F03D06368002B00F0BF8123689A
:100C900013F0020F75D0814B5B6813F00C0F5FD01F
:100CA0007E4B5B6803F00C03082B54D02369002BA8
:100CB00000F08A807A4B01221A60FFF737FC054664
:100CC000764B1B6813F0020F75D1FFF72FFC401B0A
:100CD0000228F5D903209EE1704A136843F480335B
:100CE0001360636843B3FFF721FC05466B4B1B6839
:100CF00013F4003FCBD1FFF719FC401B6428F5D952
:100D0000032088E1B3F5A02F09D0644B1A6822F4C0
:100D100080321A601A6822F480221A60E1E703F137
:100D20008043A3F53C331A6842F480221A601A68A3
:100D300042F480321A60D4E7FFF7F8FB0546574BC0
:100D40001B6813F4003FA2D0FFF7F0FB401B6428A0
:100D5000F5D903205FE1514B5B6813F4803FA5D1C7
:100D60004E4B1B6813F0020F03D02369012B40F098
:100D70004F814A4A136823F0F803616943EAC103CB
:100D80001360236813F0080F33D0A369002B5CD0E5
:100D9000434B0122C3F88024FFF7C8FB05463F4BB5
:100DA0005B6A13F0020F21D1FFF7C0FB401B022842
:100DB000F5D903202FE1394A136823F0F80361695C
:100DC00043EAC1031360DCE7354B00221A60FFF7EA
:100DD000ADFB0546314B1B6813F0020FD1D0FFF776
:100DE000A5FB401B0228F5D9032014E10120FFF7E1
:100DF00001FF236813F0040F00F09680274BDB6996
:100E000013F0805F34D1254BDA6942F08052DA6109
:100E1000DB6903F080530193019B0125214B1B6883
:100E200013F4807F26D0E368012B3DD0002B53D1F3
:100E300003F1804303F504331A6A22F001021A62B7
:100E40001A6A22F004021A6233E0154B0022C3F83A
:100E50008024FFF76BFB0546104B5B6A13F0020F13
:100E6000C7D0FFF763FB401B0228F5D90320D2E06F
:100E70000025D3E70B4A136843F480731360FFF730
:100E800055FB0646074B1B6813F4807FCBD1FFF759
:100E90004DFB801B6428F5D90320BCE00010024004
:100EA00000004242007000405F4A136A43F00103B1
:100EB0001362E36833B3FFF739FB06465A4B1B6AEC
:100EC00013F0020F2FD1FFF731FB801B41F2883363
:100ED0009842F3D903209EE0052B09D0524B1A6AA1
:100EE00022F001021A621A6A22F004021A62E0E792
:100EF0004D4B1A6A42F004021A621A6A42F0010269
:100F00001A62D6E7FFF712FB0646474B1B6A13F03F
:100F1000020F08D0FFF70AFB801B41F2883398428A
:100F2000F3D9032077E0E5B9E369002B72D03E4A9C
:100F3000526802F00C02082A56D0022B17D03B4B05
:100F400000221A66FFF7F2FA0446374B1B6813F0CB
:100F5000007F47D0FFF7EAFA001B0228F5D90320EB
:100F600059E0314AD36923F08053D361DCE72F4B3A
:100F700000221A66FFF7DAFA05462B4B1B6813F0BE
:100F8000007F06D0FFF7D2FA401B0228F5D90320D4
:100F900041E0236AB3F5803F1AD023494B6823F41C
:100FA0007413226A606A024313434B601F4B012291
:100FB0001A66FFF7BBFA04461B4B1B6813F0007F51
:100FC0000ED1FFF7B3FA001B0228F5D9032022E067
:100FD000154A536823F40033A1680B435360DCE7E0
:100FE000002018E0002016E0012B16D00E4B5B68A5
:100FF00003F48031226A914211D103F47013626AC2
:1010000093420ED1002006E001207047012002E04B
:10101000012000E0002002B070BD0120FBE70120AC
:10102000F9E70120F7E700BF00100240000042424C
:101030000F4B5B6803F00C02082A01D00D48704783
:10104000C3F383420C49885C13F4803F0BD0084BF8
:101050005B68C3F34043094AD35C064A02FB00F0D5
:10106000B0FBF3F07047064B03FB00F0704700BF86
:101070000010024000127A0008340008043400080E
:1010800000093D00002800F0A08070B50D46044620
:10109000524B1B6803F007038B420BD24F4A136875
:1010A00023F007030B431360136803F007038B421D
:1010B00040F08D80236813F0020F17D013F0040F57
:1010C00004D0474A536843F4E0635360236813F045
:1010D000080F04D0424A536843F460535360404AB7
:1010E000536823F0F003A1680B435360236813F0A7
:1010F000010F31D06368012B20D0022B25D0384A54
:10110000126812F0020F64D035494A6822F00302D7
:1011100013434B60FFF70AFA0646314B5B6803F056
:101120000C036268B3EB820F16D0FFF7FFF9801B48
:1011300041F288339842F0D9032045E0284A1268EA
:1011400012F4003FE0D101203EE0254A126812F07F
:10115000007FD9D1012037E0204B1B6803F0070343
:10116000AB420AD91D4A136823F007032B431360CF
:10117000136803F00703AB422DD1236813F0040F6B
:1011800006D0174A536823F4E063E1680B435360C9
:10119000236813F0080F07D0114A536823F46053F3
:1011A000216943EAC1035360FFF742FF0C4B5B68C0
:1011B000C3F303130B4AD35CD8400B4B18600B4BA3
:1011C0001868FFF72DF9002070BD0120704701203D
:1011D000FAE70120F8E70120F6E700BF002002400F
:1011E00000100240F4330008000000200800002036
:1011F000014B1868704700BF0000002008B5FFF7DA
:10120000F7FF044B5B68C3F3C223034AD35CD840A7
:1012100008BD00BF00100240EC3300080F2303603C
:101220000B4B5A6802F0030242605A6802F0F00267
:1012300082605A6802F4E062C2605B68DB0803F413
:10124000E0630361034B1B6803F007030B60704707
:1012500000100240002002407047000090F83D302E
:10126000DBB2012B27D1022380F83D300268D3681E
:1012700043F00103D3600368114A934210D0B3F1E5
:10128000804F0DD0A2F59432934209D002F58062CE
:10129000934205D01A6842F001021A60002070479C
:1012A0009A6802F00702062A07D01A6842F0010283
:1012B0001A6000207047012070470020704700BF6F
:1012C000002C0140704770477047704710B50446C6
:1012D00003681A6912F0020F11D0DA6812F0020FD7
:1012E0000DD06FF002021A610123037703689B6936
:1012F00013F0030F70D0FFF7E6FF00232377236876
:101300001A6912F0040F12D0DA6812F0040F0ED02E
:101310006FF004021A610223237723689B6913F498
:10132000407F5FD02046FFF7CEFF0023237723685E
:101330001A6912F0080F12D0DA6812F0080F0ED0F6
:101340006FF008021A61042323772368DB6913F026
:10135000030F4ED02046FFF7B6FF00232377236804
:101360001A6912F0100F12D0DA6812F0100F0ED0B6
:101370006FF010021A61082323772368DB6913F4E6
:10138000407F3DD02046FFF79EFF00232377236850
:101390001A6912F0010F03D0DA6812F0010F36D18A
:1013A00023681A6912F0800F03D0DA6812F0800FF8
:1013B00034D123681A6912F0400F03D0DA6812F0B2
:1013C000400F32D123681A6912F0200F03D0DA6877
:1013D00012F0200F30D110BDFFF774FF2046FFF749
:1013E00073FF8AE72046FFF76DFF2046FFF76CFF8B
:1013F0009BE72046FFF766FF2046FFF765FFACE757
:101400002046FFF75FFF2046FFF75EFFBDE76FF066
:1014100001021A612046FEF789FFC1E76FF08002E2
:101420001A61204600F077F8C3E76FF040021A61B6
:101430002046FFF74AFFC5E76FF020021A612046F9
:1014400000F068F8C7E7000003681B4A90420AD022
:10145000B0F1804F07D0A2F59432904203D002F54C
:101460008062904203D123F070034A681343124A0A
:1014700090420AD0B0F1804F07D0A2F5943290424A
:1014800003D002F58062904203D123F44073CA680E
:10149000134323F080034A69134303608B68C362DC
:1014A0000B688362044B984202D00123436170476A
:1014B0000B690363F9E700BF002C014040B310B58E
:1014C000044690F83D30F3B1022384F83D302146C4
:1014D00051F8040BFFF7B8FF012384F8463084F875
:1014E0003E3084F83F3084F8403084F8413084F84E
:1014F000423084F8433084F8443084F8453084F82E
:101500003D30002010BD80F83C30FFF7A5FEDBE742
:101510000120704770477047EFF3058393B9EFF3ED
:10152000108393B90C4B1868022804D080B90A4B79
:1015300001221A607047EFF31183002BF6D06FF091
:10154000050070476FF0050070476FF005007047A9
:101550004FF0FF30704700BF6807002008B5EFF379
:101560000583B3B9EFF31083B3B90E4B1B68022B9D
:1015700008D0012B13D10B4B02221A6001F056F94F
:10158000002008BDEFF31182002AF2D06FF00500B1
:10159000F7E76FF00500F4E76FF00500F1E74FF0B3
:1015A000FF30EEE768070020F0B587B00024049410
:1015B000EFF30584002C43D1EFF31083002B3FD1D0
:1015C000334B1B68022B16D0002839D000238DF82E
:1015D000173062B3156895B1936903B918235C1E7F
:1015E000372C51D8546814F0010F4FD156694EB1C1
:1015F0004FEA960C08E0EFF311830BBBE4E70DF123
:101600001705E9E74FF0800C94682CB1D7685B2F81
:1016100002D9176907B1B6B914B14FF0FF340CE025
:10162000D46894B914699CB14FF0FF3405E00024EC
:1016300018234FF0800C0DF11705012C0AD0ACB126
:10164000049807B0F0BD0124F7E74FF0FF34F4E74A
:101650000024F2E7146992680292019400930B4609
:101660006246294601F076F80490E9E704AA01925F
:1016700000930B461FFA8CF2294601F0A5F80128C9
:10168000DED000230493DBE70020DAE70020D8E770
:101690006807002008B5EFF30583A3B9EFF31083C3
:1016A000A3B90C4B1B68022B02D040B9002008BD27
:1016B000EFF31183002BF8D06FF00500F7E701F08E
:1016C00017FA0020F3E76FF00500F0E76FF0050070
:1016D000EDE700BF6807002030B583B0EFF3058366
:1016E000002B49D11546EFF31083002B48D1284B2E
:1016F0001B68022B21D0002844D0002944D0A5B378
:10170000AB6853B1EA684F2A07D92A692AB101FBAD
:1017100000F4D5F814C0A44521D2A3B14FF0FF3393
:10172000A3BB002200F058FC044634B305B12D6879
:101730002946204600F050FE1FE0EFF31183002BF6
:10174000D9D0002419E0EB688BB92B6913B14FF0A5
:10175000FF33E5E76B696BB14FF0FF33E0E700243F
:10176000009400F0F0FB0446DFE70023D8E74FF0D9
:10177000FF33D5E70023D3E70024204603B030BD74
:101780000024FAE70024F8E70024F6E70024F4E751
:1017900068070020034B0360034B0B60802313603A
:1017A000704700BF0C0700200C050020034B0360AE
:1017B000034B0B604FF4807313607047B00400203C
:1017C000B000002000F1080343604FF0FF32826058
:1017D000C360036100230360704700230361704707
:1017E00043684B609A688A60516099600861036839
:1017F00001330360704730B40D68B5F1FF3F11D07D
:1018000000F108031C465B681A68AA42FAD96368AB
:101810004B6099608C60616008610368013303600C
:1018200030BC70470469F2E70369416882688A60E6
:10183000416851605A68824206D0002202611A68EB
:10184000013A1A601868704782685A60F5E700002C
:1018500082B0002301930D4B1B68B3F1FF3F08D00A
:101860004FF0500383F31188BFF36F8FBFF34F8F97
:10187000FEE74FF0500383F31188BFF36F8FBFF380
:101880004F8F019B002BFCD002B070470C00002052
:1018900006480068006880F3088862B661B6BFF346
:1018A0004F8FBFF36F8F00DF00BF000008ED00E037
:1018B0004FF0807340F8043C21F0010140F8081C0F
:1018C000034B40F80C3C40F8202C4038704700BFD8
:1018D0005118000800000000000000000000000097
:1018E000074B19680868B0E8F00F80F30988BFF368
:1018F0006F8F4FF0000080F311884EF00D0E70478F
:10190000C81800204FF0500383F31188BFF36F8F86
:10191000BFF34F8F0B4A136801331360012B00D0C4
:1019200070474FF0E023D3F8043D13F0FF0FF7D0DA
:101930004FF0500383F31188BFF36F8FBFF34F8FC6
:10194000FEE700BF0C000020094B1B6843B94FF0B5
:10195000500383F31188BFF36F8FBFF34F8FFEE700
:10196000013B034A13600BB983F31188704700BF32
:101970000C0000200000000000000000000000003B
:10198000EFF30980BFF36F8F0D4B1A6820E9F00F5A
:1019900010602DE908404FF0500080F3118801F0ED
:1019A000CDF84FF0000080F31188BDE808401968B9
:1019B0000868B0E8F00F80F30988BFF36F8F7047B5
:1019C000C818002008B54FF0500383F31188BFF307
:1019D0006F8FBFF34F8F00F083FF28B14FF0E023EC
:1019E0004FF08052C3F8042D002383F3118808BD03
:1019F0004FF0E022002313619361054B1B680549FA
:101A0000A1FB03139B09013B53610723136170473B
:101A100000000020D34D621010B582B02A4B1A7816
:101A2000D2B20192FF221A701B78DBB28DF803301C
:101A30009DF8033003F05003244A1370244B07220F
:101A40001A6009E0224A1368013B13609DF80330D5
:101A50005B00DBB28DF803309DF8033013F0800F8C
:101A6000F0D11B4B1B68032B08D04FF0500383F3BE
:101A70001188BFF36F8FBFF34F8FFEE71B02144A2D
:101A8000136003F4E0631360019BDBB20E4A137032
:101A90004FF0E023D3F8202D42F47002C3F8202D3C
:101AA000D3F8202D42F07042C3F8202DFFF7A0FF9D
:101AB0000024084B1C60FFF7EBFE01F03FF8FFF736
:101AC000C7FE204602B010BD00E400E07007002011
:101AD0006C0700200C000020EFF305830F2B0FD9BB
:101AE000114A9B5CDBB2114A12789A4208D94FF036
:101AF000500383F31188BFF36F8FBFF34F8FFEE75F
:101B00004FF0E023D3F80C3D03F4E063084A126879
:101B1000934208D94FF0500383F31188BFF36F8FBE
:101B2000BFF34F8FFEE77047F0E300E0700700203F
:101B30006C070020124A12F0070F1ED0D11D21F0B1
:101B40000701C1F5406313440A460E4802600021B4
:101B500041601344083B23F007030B4803605960BE
:101B60001960991A51601360084B1960084B19608D
:101B7000084B4FF000421A6070474FF44063E4E7AF
:101B80008C070020840700208007002078070020B1
:101B90007C07002074070020154B1A461B688342FF
:101BA000FBD3516802EB010C844509D0416800EB7E
:101BB000010C634509D00360904218D01060704753
:101BC0004068014451601046F0E710B4094C2468A5
:101BD000A3420AD05B681944416013681B68036024
:101BE000904200D0106010BC70470460F8E7704766
:101BF000840700208007002038B5044600F062FE0C
:101C0000364B1B68B3B1364B1B681C424CD1002CC1
:101C10004CD004F1080214F0070F02D022F00702A2
:101C20000832002A51D02F4B1B6893424FD32E49C4
:101C30000C6804E0FFF77EFFE5E721461C46636879
:101C4000934202D22368002BF7D1244B1B68A34296
:101C50003FD00D68083523680B6063689B1A102B12
:101C600010D9A01810F0070F08D04FF0500383F3DD
:101C70001188BFF36F8FBFF34F8FFEE74360626041
:101C8000FFF78AFF626817490B689B1A0B601749B8
:101C900009688B4201D215490B60114B1B68134335
:101CA00063600023236002E0002500E0002500F0CF
:101CB000A3FE15F0070F0ED04FF0500383F31188E9
:101CC000BFF36F8FBFF34F8FFEE70025EFE70025CF
:101CD000EDE70025EBE7284638BD00BF8007002070
:101CE000740700207C07002084070020780700206C
:101CF00080B338B50446A0F1080550F8043C164AF4
:101D00001268134208D14FF0500383F31188BFF3D8
:101D10006F8FBFF34F8FFEE750F8081C41B14FF0B3
:101D2000500383F31188BFF36F8FBFF34F8FFEE72C
:101D300023EA020340F8043C00F0C4FD54F8041CFC
:101D4000064A13680B4413602846FFF725FF00F08E
:101D500053FE38BD704700BF740700207C07002089
:101D600010B50446FFF7CEFDA26BE36B9A4204D098
:101D70000024FFF7E9FD204610BD0124F9E710B566
:101D80000446FFF7BFFDA36B23B90124FFF7DCFD79
:101D9000204610BD0024F9E770B504461546866B51
:101DA000026C5AB903681BB100200136A66370BDEE
:101DB000406800F0EDFF00236360F6E76DB98068CE
:101DC00001F096FAA368226C1344A3606268934200
:101DD00019D32368A3602846E7E7C06801F088FAB2
:101DE000E368226C51429B1AE3602268934202D25C
:101DF00063680B44E360022D01D00020D5E726B1D3
:101E0000013E0020D1E72846CFE70020CDE708B506
:101E10000346026C62B10846D9681144D960D3F810
:101E200004C0614501D31968D960D96801F060FA2E
:101E300008BD38B50546FFF765FD95F8454064B225
:101E400001E0013C64B2002C0ADD6B6A43B105F18C
:101E5000240000F0F3FE0028F3D000F083FFF0E749
:101E6000FF2385F84530FFF76FFDFFF74BFD95F831
:101E7000444064B201E0013C64B2002C0ADD2B69ED
:101E800043B105F1100000F0D9FE0028F3D000F0B6
:101E900069FFF0E7FF2385F84430FFF755FD38BDB3
:101EA00038B5E0B10D460446FFF72CFD2368E26B20
:101EB000216C01FB023060600020A063A360013A46
:101EC00002FB0133E360FF2384F8443084F845309B
:101ED000FDB9236963B9FFF737FD012038BD4FF025
:101EE000500383F31188BFF36F8FBFF34F8FFEE76B
:101EF00004F1100000F0A2FE0028ECD04FF0E02327
:101F00004FF08052C3F8042DBFF34F8FBFF36F8F94
:101F1000E1E704F11000FFF755FC04F12400FFF79E
:101F200051FCD8E738B51D46049C0B4649B92460DE
:101F3000E063236401212046FFF7B2FF84F84C5090
:101F400038BD2260F4E740B94FF0500383F31188A5
:101F5000BFF36F8FBFF34F8FFEE710B584B01C4601
:101F6000844653B192B189B94FF0500383F311887D
:101F7000BFF36F8FBFF34F8FFEE74FF0500383F334
:101F80001188BFF36F8FBFF34F8FFEE76AB1502305
:101F90000393039B502B13D04FF0500383F311880E
:101FA000BFF36F8FBFF34F8FFEE70029EFD04FF0E5
:101FB000500383F31188BFF36F8FBFF34F8FFEE79A
:101FC000012384F8463000949DF818306046FFF7EE
:101FD000A9FF204604B010BD40B94FF0500383F371
:101FE0001188BFF36F8FBFF34F8FFEE7F0B583B05B
:101FF0000C4615460746A1B101FB00F05030FFF733
:10200000FBFD064650B1002380F8463000902B4679
:1020100000F1500221463846FFF784FF304603B0F6
:10202000F0BD0846EAE7F0B585B0019288B10F46E9
:102030001D460446B1B1022D20D1E36B012B1DD00A
:102040004FF0500383F31188BFF36F8FBFF34F8FAF
:10205000FEE74FF0500383F31188BFF36F8FBFF398
:102060004F8FFEE7036C002BE5D04FF0500383F356
:102070001188BFF36F8FBFF34F8FFEE700F078FE3C
:10208000064658B9019B002B48D04FF0500383F30C
:102090001188BFF36F8FBFF34F8FFEE700263DE03F
:1020A0002A4639462046FFF777FE636A7BB948B176
:1020B0004FF0E0234FF08052C3F8042DBFF34F8F51
:1020C000BFF36F8FFFF740FC012005B0F0BD04F1B6
:1020D000240000F0B3FD0028F4D04FF0E0234FF0CF
:1020E0008052C3F8042DBFF34F8FBFF36F8FE9E722
:1020F000FFF72AFC0020E8E702A800F0E5FD012632
:1021000019E0002384F8443021E0002384F84530AE
:1021100023E02046FFF78DFE00F06EFCFFF7F2FB98
:10212000A26BE36B9A42BBD3022DB9D0019B002B6B
:10213000DED0002EE0D0FFF707FC00F0C3FBFFF776
:10214000E1FB94F8442052B2B2F1FF3FD9D094F8A9
:10215000452052B2B2F1FF3FD7D0FFF7F5FB01A9FE
:1021600002A800F0BDFDD8B92046FFF7F9FD002810
:10217000CFD0019904F1100000F02CFD2046FFF7AC
:1021800058FE00F039FC0028C8D14FF0E0234FF092
:102190008052C3F8042DBFF34F8FBFF36F8FBDE79D
:1021A0002046FFF746FE00F027FC00208DE72DE9D2
:1021B000F84390B10F4616461C460546B1B1022CB5
:1021C00020D1EB6B012B1DD04FF0500383F311880E
:1021D000BFF36F8FBFF34F8FFEE74FF0500383F3D2
:1021E0001188BFF36F8FBFF34F8FFEE7036C002B97
:1021F000E5D04FF0500383F31188BFF36F8FBFF327
:102200004F8FFEE7FFF768FCEFF311884FF05003A4
:1022100083F31188BFF36F8FBFF34F8FAA6BEB6B04
:102220009A4206D3022C04D0002088F31188BDE81E
:10223000F88395F845904FFA89F9224639462846A1
:10224000FFF7AAFDB9F1FF3F06D009F101035BB228
:1022500085F845300120E8E76B6A0BB90120E4E717
:1022600005F1240000F0EAFC18B126B1012030602D
:10227000DBE70120D9E70120D7E7F0B585B001926F
:1022800090B10F460446C1B100F072FD064600BB96
:10229000019B002B5ED04FF0500383F31188BFF3F6
:1022A0006F8FBFF34F8FFEE74FF0500383F311881A
:1022B000BFF36F8FBFF34F8FFEE7036C002BE3D0AC
:1022C0004FF0500383F31188BFF36F8FBFF34F8F2D
:1022D000FEE700263EE039462046FFF798FD013D27
:1022E000A563236923B9FFF72FFB012005B0F0BDDB
:1022F00004F1100000F0A2FC0028F4D04FF0E0231D
:102300004FF08052C3F8042DBFF34F8FBFF36F8F90
:10231000E9E7FFF719FB0020E8E702A800F0D4FC8A
:10232000012621E0002384F8443029E0002384F8CA
:1023300045302BE02046FFF77CFD00F05DFB09E017
:102340002046FFF776FD00F057FB2046FFF717FD0C
:1023500000283FD1FFF7D6FAA56B002DBBD1019B1A
:10236000002BD6D0002ED8D0FFF7EEFA00F0AAFA54
:10237000FFF7C8FA94F844305BB2B3F1FF3FD1D015
:1023800094F845305BB2B3F1FF3FCFD0FFF7DCFAF2
:1023900001A902A800F0A4FC0028D1D12046FFF733
:1023A000EEFC0028C6D0019904F1240000F012FCD4
:1023B0002046FFF73EFD00F01FFB0028CAD14FF07A
:1023C000E0234FF08052C3F8042DBFF34F8FBFF3CB
:1023D0006F8FBFE7002089E70023072B0CD8074A3F
:1023E00052F833200AB10133F7E7044A42F83310B8
:1023F00002EBC30250607047704700BF8C1300208F
:1024000070B504460D461646FFF77CFA94F8443042
:102410005BB2B3F1FF3F0DD094F845305BB2B3F13E
:10242000FF3F0BD0FFF790FAA36B5BB12046FFF79D
:1024300000FD70BD002384F84430EDE7002384F8EC
:102440004530EFE73246294604F1240000F0DAFB7C
:10245000ECE70000084B1B681B6823B9074B4FF0E3
:10246000FF321A607047044B1B68DB68DB685A68F0
:10247000024B1A60704700BF3C140020D4130020A8
:102480002DE9F04780460D4617469946089EDDF82F
:1024900024A00A9C9200A521206B00F0FCFE236B77
:1024A00007F18042013A03EB820727F007074FF05C
:1024B000000CBCF10F0F09D815F80C3004EB0C021E
:1024C00082F8343013B10CF1010CF2E7002384F8E8
:1024D0004330372E00D93726E662E66400252565AD
:1024E000201DFFF77AF904F11800FFF776F924614F
:1024F000C6F13806A6616462656584F858504A469C
:1025000041463846FFF7D4F92060BAF1000F01D0F8
:10251000CAF80040BDE8F08738B5002407E004EBB6
:10252000840293000E481844FFF74CF90134372C0D
:10253000F5D90C4D2846FFF745F90B4C2046FFF71F
:1025400041F90A48FFF73EF90948FFF73BF9094806
:10255000FFF738F9084B1D60084B1C6038BD00BF01
:10256000681400205414002040140020241400207B
:1025700010140020F81300203C1400203814002010
:1025800010B50446FFF7BEF9224A13680133136001
:10259000214B1B685BB1214B1B686BB91E4B1B6841
:1025A000DA6AE36A9A4207D81B4B1C6004E01A4BB4
:1025B0001C601368012B29D0194A1368013313607A
:1025C0006364E06A174B1B68984201D9154B186089
:1025D00000EB8000211D144B03EB8000FFF700F996
:1025E000FFF7B2F90D4B1B687BB10B4B1B68DA6A26
:1025F000E36A9A4209D24FF0E0234FF08052C3F8C9
:10260000042DBFF34F8FBFF36F8F10BDFFF784FF13
:10261000D2E700BFF4130020C8180020E813002000
:10262000D8130020EC1300206814002010B50446D5
:1026300090F8593063B1012B11D0022B0ED04FF01E
:10264000500383F31188BFF36F8FBFF34F8FFEE703
:10265000006BFFF74DFB2046FFF74AFB10BDFFF76D
:1026600047FBFBE70F4B1B68D3B110B5FFF74AF9E7
:102670000D4BDB68DC68201DFFF7D6F80B4A1368AA
:10268000013B1360074A1368013B1360FFF75CF9D5
:102690002046FFF7CBFF034B1B68002BE6D110BD94
:1026A000704700BF0C14002010140020F413002009
:1026B00008B5FFF7D7FF074B1B68012BF9D94FF07F
:1026C000E0234FF08052C3F8042DBFF34F8FBFF3C8
:1026D0006F8FEEE76814002070B504460D46174B67
:1026E0001E68174B18680430FFF79EF8B4F1FF3FDF
:1026F0000DD03444124B1B685C60A64210D9114BBC
:1027000018680F4B19680431FFF775F870BD002D7C
:10271000EFD00B4B196804310B48FFF761F8F5E770
:102720000A4B1868064B19680431FFF764F8084B28
:102730001B68A342EAD9064B1C60E7E7F0130020B0
:10274000C818002038140020F81300203C14002082
:10275000D413002030B587B00B9C7CB10C9DB5B173
:102760005C250495049D5C2D1AD04FF0500383F333
:102770001188BFF36F8FBFF34F8FFEE74FF0500309
:1027800083F31188BFF36F8FBFF34F8FFEE74FF0D6
:10279000500383F31188BFF36F8FBFF34F8FFEE7B2
:1027A0000C9D2C63022485F8594000240394029563
:1027B00005AC01940A9C0094FFF762FE0C98FFF7A9
:1027C000DFFE059807B030BD2DE9F04385B0074620
:1027D000884614461E469000FFF70EFA08B381465D
:1027E0005C20FFF709FA0546A8B1C0F83090002335
:1027F00080F85930039302900D9B01930C9B00933A
:102800003346224641463846FFF73AFE2846FFF750
:10281000B7FE012007E04846FFF76AFA4FF0FF30A5
:1028200001E04FF0FF3005B0BDE8F08310B588B08F
:1028300000240594069407AA06A905A8FEF7AAFF96
:10284000059B0293069B019300942346079A174920
:102850001748FFF77FFF174B1860C0B100F04CFB23
:10286000012815D14FF0500383F31188BFF36F8F08
:10287000BFF34F8F104B4FF0FF321A600F4B012206
:102880001A600F4B00221A60FFF7C6F803E0002021
:10289000B0F1FF3F01D008B010BD4FF0500383F3FB
:1028A0001188BFF36F8FBFF34F8FFEE750330008DF
:1028B000B1260008D0130020D4130020E813002014
:1028C000F0130020024A136801331360704700BF01
:1028D000CC130020014B1868704700BFF013002094
:1028E000F8B53A4B1B68002B64D1394B1D68013594
:1028F0001D60C5B9374B1B681B6843B14FF05003CF
:1029000083F31188BFF36F8FBFF34F8FFEE7314A18
:102910001168314B186810601960304A1368013330
:102920001360FFF797FD2E4B1B68AB4238D9002789
:102930002C4B1B68DB6A03EB83039A002A4B9B58E2
:10294000012B3CD901273AE00127224B1B681B6869
:1029500043B3204B1B68DB68DC6863689D4226D369
:10296000261D3046FEF760FFA36A1BB104F1180074
:10297000FEF75AFFE36A1D4A1268934201D91B4AC7
:10298000136003EB83039A00314617481044FEF7A7
:1029900027FFE26A134B1B68DB6A9A42D4D2D4E762
:1029A0000027D2E70E4B4FF0FF321A60C0E70C4A07
:1029B0001360BDE70E4A13680133136000270D4B07
:1029C0001B6803B101273846F8BD00BFCC130020B7
:1029D000F01300203C14002038140020DC130020E9
:1029E000D4130020C818002068140020EC13002025
:1029F000E4130020E013002038B5354B1B6843B9C1
:102A00004FF0500383F31188BFF36F8FBFF34F8FE5
:102A1000FEE7FEF777FF2E4B1A68013A1A601B6833
:102A2000002B4FD12B4B1B680BB900244BE000242B
:102A3000294B1B681BB3284BDB68DC6804F11800CA
:102A4000FEF7F2FE251D2846FEF7EEFEE06A234B58
:102A50001B68984201D9214B186000EB8000294681
:102A60001F4B03EB8000FEF7BBFEE26A1D4B1B68A9
:102A7000DB6A9A42DCD31C4B01221A60D8E70CB106
:102A8000FFF7E8FC194B1C6884B9174B1C68D4B1DC
:102A90004FF0E0234FF08052C3F8042DBFF34F8F67
:102AA000BFF36F8F01240EE0013C07D0FFF718FF42
:102AB0000028F9D00C4B01221A60F5E70B4B0022DD
:102AC0001A60E2E70024FEF73FFF204638BD00BF52
:102AD000CC130020F413002024140020EC13002059
:102AE00068140020C8180020E0130020E413002020
:102AF00010B5A8B10446104B1B6843B14FF050030A
:102B000083F31188BFF36F8FBFF34F8FFEE7FFF79B
:102B1000D9FE00212046FFF7DFFDFFF76DFF48B922
:102B20004FF0E0234FF08052C3F8042DBFF34F8FD6
:102B3000BFF36F8F10BD00BFCC130020204B1B686C
:102B40001BB1204B01221A6070471E4B00221A60F5
:102B50001D4B1B6803EB83018A001C498A585AB934
:102B60000BB1013BF6E74FF0500383F31188BFF33D
:102B70006F8FBFF34F8FFEE7084603EB83018A0098
:102B8000024451684968516003EB830C4FEA8C02A0
:102B90000832024491420BD003EB830291000B4AAE
:102BA0000A445268D1680A4A1160074A13607047A4
:102BB000486862469100054A0A445060ECE700BF4D
:102BC000CC130020E0130020EC1300206814002038
:102BD000C818002058B110B50C46094A11681831C0
:102BE000FEF709FE01212046FFF776FD10BD4FF0EC
:102BF000500383F31188BFF36F8FBFF34F8FFEE74E
:102C0000C818002038B570B10D4614460A4A11683C
:102C10001831FEF7E5FD0CB14FF0FF35214628468F
:102C2000FFF75AFD38BD4FF0500383F31188BFF30F
:102C30006F8FBFF34F8FFEE7C818002038B5C36809
:102C4000DC6824B304F118052846FEF7EDFD184BA7
:102C50001B682BBB251D2846FEF7E6FDE06A154BD9
:102C60001B68984201D9134B186000EB800029467D
:102C7000114B03EB8000FEF7B3FDE26A0F4B1B68BC
:102C8000DB6A9A4211D901200D4B186038BD4FF014
:102C9000500383F31188BFF36F8FBFF34F8FFEE7AD
:102CA00029460848FEF79CFDE7E70020EEE700BF55
:102CB000CC130020EC13002068140020C81800205A
:102CC000E013002024140020034B1B680360034B17
:102CD0001B684360704700BFDC130020F013002026
:102CE000D8B170B50C46054601B3FEF70BFE1B4B81
:102CF00019686B68C81A2268B2F1FF3F27D0184ED6
:102D00003668D5F800C0B44501D08B4224D9824240
:102D100015D80023236001241AE04FF0500383F3F9
:102D20001188BFF36F8FBFF34F8FFEE74FF0500353
:102D300083F31188BFF36F8FBFF34F8FFEE75B1AEA
:102D4000134423602846FFF7BFFF002400E000245F
:102D5000FEF7FAFD204670BD0124F9E7F0130020CC
:102D6000DC130020014B01221A607047E0130020A1
:102D7000054B1B6833B1054B1B680BB10020704736
:102D80000220704701207047E8130020CC13002078
:102D900000283BD038B504461E4B1B68834208D040
:102DA0004FF0500383F31188BFF36F8FBFF34F8F42
:102DB000FEE7036D43B94FF0500383F31188BFF36F
:102DC0006F8FBFF34F8FFEE7013B0365C16AC26C93
:102DD00091421DD00BB1002038BD051D2846FEF7DD
:102DE00023FDE06CE062C0F13803A3610A4B1B686D
:102DF000984201D9084B186000EB80002946074B28
:102E000003EB8000FEF7ECFC0120E5E700207047B3
:102E10000020E1E7C8180020EC130020681400200F
:102E2000064B1A681368B3FA83F35B09036013B99E
:102E3000D368186870470020704700BFCC19002085
:102E400008B54160006191420CD8D21A83699A4258
:102E500001D3012008BD011D094B1868FEF7CBFC0A
:102E60000020F7E79A4201D2994206D2011D054B94
:102E70001868FEF7C0FC0020ECE70120EAE700BF7D
:102E8000C8190020CC19002030B583B0FEF73AFDF8
:102E9000114B1B681BB1FEF757FD03B030BD0F4D42
:102EA0002846FEF78FFC0E4C2046FEF78BFC0D4BA0
:102EB0001D600D4B1C60002300930C4B0C4A10212D
:102EC0000A20FFF740F8044B18600028E3D00949B6
:102ED000FFF782FADFE700BFC4190020E4190020E1
:102EE000D0190020CC190020C8190020CC180020CF
:102EF0001C1900205833000810B588B0FFF7C4FF34
:102F0000124B1B68CBB100240594069407AA06A9AE
:102F100005A8FEF74BFC059B0293069B0193022339
:102F200000932346079A0A490A48FFF713FC0A4B05
:102F3000186010B1012008B010BD4FF0500383F3AA
:102F40001188BFF36F8FBFF34F8FFEE7C4190020C6
:102F50006033000835320008C0190020B8B19C4623
:102F600003461848006858B300B585B00091019237
:102F7000029305291CDCFFF7FBFE022810D000237A
:102F80001A4669460F480068FFF74DF815E04FF004
:102F9000500383F31188BFF36F8FBFF34F8FFEE7AA
:102FA0000023069A694607480068FFF73CF804E0EA
:102FB000002362466946FFF7FAF805B05DF804FBA6
:102FC00000207047C419002070B582B01A4B1B68EE
:102FD0001A6852B3DB681E68DC68251D2846FEF7B8
:102FE00023FC636A20469847E369012BEED1A3696D
:102FF00033449E4207D26360246129460E4B186811
:10300000FEF7F9FBE2E7002100910B46324620462D
:10301000FFF7A4FF0028D9D14FF0500383F31188A4
:10302000BFF36F8FBFF34F8FFEE7044A106802496A
:103030000860136002B070BDCC190020C8190020D0
:1030400038B50546FFF746FC0446074B1B6883422C
:1030500005D800232B60044B1C60204638BDFFF7C9
:10306000B3FF01232B60F6E7BC19002070B582B0D6
:1030700006460D4614490968C968CC68201DFEF74C
:10308000D3FBE169012904D0636A2046984702B066
:1030900070BDA16933462A4631442046FFF7D0FE71
:1030A0000028F1D0002100910B4632462046FFF760
:1030B00055FF0028E8D14FF0500383F31188BFF388
:1030C0006F8FBFF34F8FFEE7CC19002070B582B031
:1030D00006460C46FFF7F6FB01A8FFF7B1FF019B80
:1030E00023BB054644B9B0420CD3FFF785FC294603
:1030F0003046FFF7BBFF1BE00E4B1B681C68B4FAA1
:1031000084F464092246711B0B4B1868FFF778F9A9
:10311000FFF772FC60B94FF0E0234FF08052C3F824
:10312000042DBFF34F8FBFF36F8F01E0FFF764FCF7
:1031300002B070BDC8190020C419002010B588B0B5
:1031400002E0049B002B0FDA002204A9384B186818
:10315000FFF793F8002869D0049B002BF1DA079958
:103160000698059B9847ECE7069C636913B1201D00
:10317000FEF75AFB03A8FFF763FF049B092BE3D874
:1031800001A252F823F000BFB1310008B1310008AC
:10319000B131000849310008F73100081D3200083C
:1031A000B1310008B131000849310008F731000899
:1031B000059BA169024619442046FFF741FE0028FD
:1031C000C2D0636A20469847E369012BBCD1A2694B
:1031D000002100910B46059802442046FFF7BEFEF1
:1031E0000028B1D14FF0500383F31188BFF36F8FE4
:1031F000BFF34F8FFEE70599A16131B10346024647
:1032000001442046FFF71CFE9EE74FF0500383F376
:103210001188BFF36F8FBFF34F8FFEE794F82C3008
:10322000002B91D12046FEF763FD8DE708B010BD5D
:10323000C419002000B583B001A8FFF7F1FD019982
:10324000FFF744FFFFF77AFFF6E70000FDF74EF9BE
:103250000B480C490C4A002302E0D458C4500433F4
:10326000C4188C42F9D3094A094C002301E01360C9
:103270000432A242FBD300F017F8FDF797F870472D
:103280000000002010000020203400081000002062
:10329000F8190020FEE703460244934200D170472C
:1032A00003F8011BF9E7000070B500260C4D0D4C2A
:1032B000641BA410A64209D100F028F800260A4D8C
:1032C0000A4C641BA410A64205D170BD55F8043BFE
:1032D00098470136EEE755F8043B98470136F2E788
:1032E0001834000818340008183400081C3400088A
:1032F0000A44914200F1FF3300D1704710B511F834
:10330000014B914203F8014FF9D110BDF8B500BF50
:10331000F8BC08BC9E467047F8B500BFF8BC08BCB6
:043320009E4670470E
:1033240043414E5F5100000052504D5F68616E642E
:103334006C65720043414E5F68616E646C65720037
:1033440064656661756C745461736B0049444C45E3
:1033540000000000546D725100000000546D722092
:1033640053766300243300080000000000000000CE
:103374000000000000000000000000002C330008E2
:103384000000000000000000000000000000000039
:1033940000020000300000000000000000000000F7
:1033A40038330008000000000000000000000000A6
:1033B40000000000000200001800000000000000EF
:1033C400000000004433000800000000000000007A
:1033D40000000000000000000002000018000000CF
:1033E40000000000000000000000000001020304CF
:1033F40000000000000000000102030406070809A1
:103404000102000002030405060708090A0B0C0D5B
:043414000E0F101077
:043418003501000872
:04341C001101000892
:103420000024F4000100000010000000AAAAAAAACB
:040000050800324D70
:00000001FF
