:020000040800F2
:100000000050002059440008710B0008730B0008D1
:10001000750B0008770B0008790B00080000000042
:10002000000000000000000000000000D1280008CF
:100030007B0B00080000000071290008B5290008AA
:10004000A1440008A1440008A1440008A1440008FC
:10005000A1440008A1440008A1440008A1440008EC
:10006000A1440008A1440008A1440008A1440008DC
:10007000A1440008A1440008A1440008A1440008CC
:10008000A1440008A1440008A1440008A1440008BC
:100090007D0B0008A1440008A14400088D0B000856
:1000A000A1440008990B0008A1440008A1440008DD
:1000B000A1440008A1440008A1440008A14400088C
:1000C000A1440008A1440008A1440008A14400087C
:1000D000A1440008A1440008A1440008A14400086C
:1000E000A1440008A1440008A14400080000000049
:1000F0000000000000000000000000000000000000
:0C01000000000000000000005FF808F1A3
:1001100080F0004002E000BF81F0004142001FBFBC
:100120005FEA410392EA030F7FEA226C7FEA236CC5
:100130006AD04FEA1262D2EB1363C1BFD2184140BA
:1001400048404140B8BF5B42192B88BF704710F050
:10015000004F40F4000020F07F4018BF404211F0F3
:10016000004F41F4000121F07F4118BF494292EA5B
:10017000030F3FD0A2F1010241FA03FC10EB0C0087
:10018000C3F1200301FA03F100F0004302D5494214
:1001900060EB4000B0F5000F13D3B0F1807F06D3C1
:1001A00040084FEA310102F10102FE2A51D2B1F1B9
:1001B000004F40EBC25008BF20F0010040EA0300AE
:1001C0007047490040EB0000013A28BFB0F5000F2E
:1001D000EDD2B0FA80FCACF1080CB2EB0C0200FAE4
:1001E0000CF0AABF00EBC25052421843BCBFD04033
:1001F0001843704792F0000F81F4000106BF80F4AD
:1002000000000132013BB5E74FEA41037FEA226C6F
:1002100018BF7FEA236C21D092EA030F04D092F03A
:10022000000F08BF0846704790EA010F1CBF00206E
:10023000704712F07F4F04D1400028BF40F00040CB
:10024000704712F100723CBF00F50000704700F0EB
:10025000004343F0FE4040F4000070477FEA226212
:1002600016BF08467FEA23630146420206BF5FEAE3
:10027000412390EA010F40F4800070474FF00003E3
:1002800004E000BF10F0004348BF40425FEA000CAA
:1002900008BF704743F0964301464FF000001CE052
:1002A00050EA010208BF70474FF000030AE000BFA8
:1002B00050EA010208BF704711F0004302D54042E6
:1002C00061EB41015FEA010C02BF84460146002058
:1002D00043F0B64308BFA3F18053A3F50003BCFA73
:1002E0008CF2083AA3EBC25310DB01FA02FC634420
:1002F00000FA02FCC2F12002BCF1004F20FA02F227
:1003000043EB020008BF20F00100704702F1200219
:1003100001FA02FCC2F1200250EA4C0021FA02F27A
:1003200043EB020008BF20EADC7070474FF0FF0C7F
:100330001CEAD0521EBF1CEAD15392EA0C0F93EA7A
:100340000C0F6FD01A4480EA010C400218BF5FEA1C
:1003500041211ED04FF0006343EA501043EA51118F
:10036000A0FB01310CF00040B1F5000F3EBF490089
:1003700041EAD3715B0040EA010062F17F02FD2A8D
:100380001DD8B3F1004F40EBC25008BF20F0010070
:10039000704790F0000F0CF0004C08BF49024CEA87
:1003A000502040EA51207F3AC2BFD2F1FF0340EA19
:1003B000C250704740F400004FF00003013A5DDC8A
:1003C00012F1190FDCBF00F000407047C2F10002CB
:1003D000410021FA02F1C2F1200200FA02FC5FEAB8
:1003E000310040F1000053EA4C0308BF20EADC7002
:1003F000704792F0000F00F0004C02BF400010F474
:10040000000F013AF9D040EA0C0093F0000F01F020
:10041000004C02BF490011F4000F013BF9D041EA42
:100420000C018FE70CEAD15392EA0C0F18BF93EA44
:100430000C0F0AD030F0004C18BF31F0004CD8D16E
:1004400080EA010000F00040704790F0000F17BFF5
:1004500090F0004F084691F0000F91F0004F14D03B
:1004600092EA0C0F01D142020FD193EA0C0F03D193
:100470004B0218BF084608D180EA010000F0004096
:1004800040F0FE4040F40000704740F0FE4040F471
:10049000400070474FF0FF0C1CEAD0521EBF1CEA10
:1004A000D15392EA0C0F93EA0C0F69D0A2EB03022E
:1004B00080EA010C49024FEA402037D04FF08053C8
:1004C00043EA111143EA10130CF000408B4238BF8D
:1004D0005B0042F17D024FF4000C8B4224BF5B1A9B
:1004E00040EA0C00B3EB510F24BFA3EB510340EAE9
:1004F0005C00B3EB910F24BFA3EB910340EA9C0097
:10050000B3EBD10F24BFA3EBD10340EADC001B0106
:1005100018BF5FEA1C1CE0D1FD2A3FF650AF8B42AA
:1005200040EBC25008BF20F0010070470CF0004CB7
:100530004CEA50207F32C2BFD2F1FF0340EAC250E2
:10054000704740F400004FF00003013A37E792F0A3
:10055000000F00F0004C02BF400010F4000F013A01
:10056000F9D040EA0C0093F0000F01F0004C02BFFC
:10057000490011F4000F013BF9D041EA0C0195E765
:100580000CEAD15392EA0C0F08D142027FF47DAFFE
:1005900093EA0C0F7FF470AF084676E793EA0C0FEE
:1005A00004D14B023FF44CAF08466EE730F0004CEC
:1005B00018BF31F0004CCAD130F000427FF45CAF7C
:1005C00031F000437FF43CAF5FE700BF10B5054C4E
:1005D000237833B9044B13B10448AFF300800123EF
:1005E000237010BD60000020000000005447000888
:1005F00008B5034B1BB103490348AFF3008008BDA6
:1006000000000000640000205447000810B51B4A99
:1006100040F2464313600823136100239360D360C4
:10062000174A01211162536113619361D161136013
:1006300053609360D3601348134A026014224260EF
:100640008360C3604FF4602202614FF48012426104
:10065000037643768376C3760377437700F0EEFA2A
:1006600040B9084C0649204600F08EFB204600F0B9
:1006700011FC10BD00F0A8F9F3E700BFD000002086
:10068000A80000207C0000200064004010B586B067
:100690000023029303930493059302681E4B9A422E
:1006A00001D006B010BD03F5D633DA6942F000720E
:1006B000DA61DA6902F000720092009A9A6942F0F7
:1006C00008029A619B6903F008030193019B4FF4B0
:1006D00080730293114C02A9204600F017FE4FF4DC
:1006E00000730293022303930323059302A9204678
:1006F00000F00CFE0A4A536823F4C04343F0E06361
:1007000043F48043536000220521142000F0E0FDF3
:10071000142000F0EDFDC4E700640040000C01402F
:100720000000014008B5012001F082FCFBE7000059
:1007300008B516E0286801F0ABFE144B6522144999
:10074000144800F0D5FB16E0134C104B62681049BA
:10075000104800F0CDFB606803F0ACFE012001F012
:1007600067FC0E4D286801F077FE0446286801F00A
:100770006DFE8442DED24FF0FF3300220649074867
:10078000006801F015FE0028DED0E7E7A400002095
:10079000D00000207C000020FC000020EC000020A5
:1007A00000B585B0114D4FF0FF33002201212868BC
:1007B00001F002FD042003F075FE039000248DF883
:1007C00008400B4800F044F9019001AB0393234625
:1007D000224602A90748006801F09AFD0121286815
:1007E00001F0BAFC012001F023FCDBE7E800002067
:1007F00010010020EC00002008B5114A0221102051
:1008000001F028FD0F4B18600F4A00210F4801F03E
:1008100099FB0F4B18600F4A00210F4801F092FB23
:100820000E4B18600E4A00210E4801F08BFB0E4B58
:1008300018600E4801F01EFC0D4B186008BD00BF8B
:10084000CC470008EC0000202C48000825070008D1
:10085000F80000200848000831070008F4000020D4
:10086000E4470008A1070008F0000020BC4700088A
:10087000E800002070B588B0002404940594069424
:100880000794254B9A6942F010029A619A6902F026
:1008900010020092009A9A6942F020029A619A69C5
:1008A00002F020020192019A9A6942F004029A61D0
:1008B0009A6902F004020292029A9A6942F00802CE
:1008C0009A619B6903F008030393039B134E22462E
:1008D0004FF40051304600F027FE4FF400530493CC
:1008E0000123059306940225079504A9304600F0DC
:1008F0000DFD802304930A4B0593069504A909482E
:1009000000F004FD22460521172000F0E1FC17202D
:1009100000F0EEFC08B070BD001002400010014075
:100920000000111000080140802800D0704770B509
:1009300001F0F2FA174B1860174D2B78174CA4FBF7
:10094000032101F0FC0202EB91029B1ADBB2144975
:100950000A68821A134E46F8232008604FF40051AB
:10096000114800F0E7FD2B78A4FB032404F0FC02FF
:1009700002EB94029B1A13F0FF0F04D0064A13787F
:100980000133137070BD0121084B186801F0A6FBFC
:10099000F4E700BF040100200C010020CDCCCCCC3A
:1009A000080100201001002000100140E800002094
:1009B00008B50268034B9A4200D008BD00F02CF93C
:1009C000FBE700BF002C014072B6FEE700B591B016
:1009D0002822002106A803F023FE0023019302939E
:1009E000039304930593012206924FF480330793F7
:1009F0000A9202220D920E934FF4E0130F9306A871
:100A000000F0C6FD80B90F2301930221029100235B
:100A100003934FF480620492059301A800F0EAFF6B
:100A200020B911B05DF804FBFFF7CEFFFFF7CCFF54
:100A300008B500F0DFF8FFF7C9FFFFF71BFFFFF76E
:100A4000E5FD01F021FAFFF7D7FE01F03FFAFEE7DE
:100A500070B506460024002509E056F82400FFF78B
:100A60000DFC01462846FFF759FB05460134042CCE
:100A7000F3DD04492846FFF70DFD0021FFF756FC82
:100A800070BD00BF0000A04000B583B0114B9A6953
:100A900042F001029A619A6902F001020092009A02
:100AA000DA6942F08052DA61DB6903F08053019326
:100AB000019B00220F216FF0010000F009FC064AA3
:100AC000536823F0E06343F00073536003B05DF8B4
:100AD00004FB00BF001002400000014030B589B0A7
:100AE00004461E4B9A6942F400629A619B6903F4C2
:100AF00000630193019B02A903A801F047F801F0EC
:100B000035F8174AA2FB00239B0C013B1548164AF7
:100B1000026040F2E732C2604360002303618360F9
:100B2000836101F083F9054610B1284609B030BD54
:100B30000C4801F04BF805460028F6D1192000F0CA
:100B4000D7FB0F2C01D90125EFE700222146192000
:100B500000F0BEFB054B1C60E7E700BF0010024041
:100B600083DE1B4320010020002C014008000020F0
:100B7000FEE7FEE7FEE7FEE7FEE7704708B502483E
:100B800000F038FA08BD00BF7C00002008B58020C6
:100B900000F0DAFC08BD000008B5024801F04EF88C
:100BA00008BD00BF2001002010B503460C4A0D49C6
:100BB0000D48006840B10C4800680344521A934243
:100BC00006D8094A136010BD0748084C0460F2E7D4
:100BD00003F03EFD0C2303604FF0FF30F3E700BF4E
:100BE000005000200004000068010020001C0020CC
:100BF0007047000008B5074A136843F010031360FC
:100C0000032000F053FB0F20FFF768FFFFF73CFFC6
:100C1000002008BD00200240034A1168034B1B78E6
:100C20000B441360704700BF6C01002004000020DB
:100C3000014B1868704700BF6C010020002800F0CD
:100C4000A18038B5044690F82030D3B122681368EB
:100C500043F001031360FFF7EBFF054623685A6872
:100C600012F0010F10D1FFF7E3FF401B0A28F5D95E
:100C7000636A43F400336362052384F82030012063
:100C800038BDFFF703FDE1E71A6822F002021A609F
:100C9000FFF7CEFF054623685A6812F0020F0DD009
:100CA000FFF7C6FF401B0A28F5D9636A43F40033F7
:100CB0006362052384F820300120E1E7227E012AC7
:100CC0003DD01A6822F080021A60637E012B3BD06F
:100CD0002268136823F040031360A37E012B39D0F0
:100CE0002268136823F020031360E37E012B37D0C2
:100CF0002268136843F010031360237F012B35D063
:100D00002268136823F008031360637F012B33D03C
:100D10002268136823F004031360A368E268134396
:100D200022691343626913436268013A21681343DD
:100D3000CB6100206062012384F82030A0E71A68AC
:100D400042F080021A60C0E72268136843F0400353
:100D50001360C2E72268136843F020031360C4E7FE
:100D60002268136823F010031360C6E72268136833
:100D700043F008031360C8E72268136843F00403D4
:100D80001360CAE701207047026890F82030013BE9
:100D9000DBB2012B05D9436A43F48023436201206F
:100DA000704710B5D2F8003243F00103C2F80032A8
:100DB0004B6903F01F03012000FA03F3D2F81C0271
:100DC0006FEA030C20EA0300C2F81C02C869C0B92C
:100DD000D2F80C020CEA0000C2F80C028C884869B8
:100DE000D1F80CE044EA0E44483042F830400C8818
:100DF0004869D1F808E044EA0E44483002EBC000EC
:100E00004460C86901281AD0886988BBD2F80402F6
:100E10000CEA0000C2F80402086978BBD2F8140298
:100E20000CEA0000C2F81402096A01292CD0D2F899
:100E3000003223F00103C2F80032002010BDD2F8C6
:100E40000C021843C2F80C028C884869D1F800E003
:100E500044EA0E44483042F830408C894869D1F861
:100E600008E044EA0E44483002EBC0004460CBE79F
:100E7000D2F804021843C2F80402CDE7D2F81402F3
:100E80001843C2F81402CFE7D2F81C120B43C2F881
:100E90001C32CCE770B5044690F82050EDB2012D1D
:100EA00006D0436A43F4002343620125284670BDFF
:100EB000022380F820300268136823F001031360D6
:100EC000FFF7B6FE064623685B6813F0010F0CD0EF
:100ED000FFF7AEFE831B0A2BF5D9636A43F4003398
:100EE0006362052384F82030E0E700256562DDE7D2
:100EF00030B590F820C00468A4680CF1FF3C5FFA9C
:100F00008CFCBCF1010F62D814F0E05F59D0C4F33F
:100F1000016C012404FA0CF41C608B68002B3DD199
:100F20000D68CB68046843EA45550CF118031B01B2
:100F3000E55003680C690CF1180E03EB0E135C60AE
:100F40000B7D012B35D0D17993791B0443EA0163E2
:100F5000517943EA012314790168234301EB0C1111
:100F6000C1F88C31D17893781B0443EA016351783E
:100F700043EA0123117802680B4302EB0C12C2F81A
:100F8000883102680CF1180C4FEA0C1C52F80C3036
:100F900043F0010342F80C3000201DE04C6843EAA6
:100FA000C403CC6823430CF11804240105682B51B9
:100FB000BFE7036803EB0E13596841F48071596071
:100FC000C1E7436A43F400134362012004E0436A2B
:100FD00043F480234362012030BD7047704770475F
:100FE0007047704770477047704770477047704749
:100FF000704770472DE9F84F054603685C69D3F8E0
:1010000004809F68D3F80CA0D3F81090D3F818B0E0
:1010100014F001063BD017F0010616D001229A60A9
:1010200017F0020F08D117F0040F0CD117F00806C3
:1010300006D04FF4805608E0FFF7CFFF002604E00B
:10104000FFF7CEFF01E04FF4006617F4807F0DD06C
:101050002B684FF480729A6017F4007F40F09680FE
:1010600017F4806F00F0968046F4005617F4803F26
:101070000DD02B684FF480329A6017F4003F40F097
:10108000938017F4802F00F0938046F4004614F00C
:10109000080F07D01AF0100F04D046F400762B6822
:1010A0001022DA6014F0040F03D01AF0080F40F099
:1010B000898014F0020F05D02B68DB6813F0030F52
:1010C00040F0878014F0400F07D019F0100F04D0C3
:1010D00046F480662B6810221A6114F0200F02D0AB
:1010E00019F0080F79D114F0100F04D02B681B6988
:1010F00013F0030F78D114F4003F02D018F0100F52
:1011000076D114F4803F02D018F0080F77D114F490
:10111000004F37D018F0040F31D014F4807F04D082
:101120001BF0010F01D046F0010614F4007F04D03B
:101130001BF0020F01D046F0020614F4806F04D0B9
:101140001BF0040F01D046F0040614F4006F16D013
:101150001BF0700B13D0BBF1400F66D056D8BBF11B
:10116000200F5CD0BBF1300F5CD0BBF1100F01D170
:1011700046F008062A68936923F0700393612B6890
:1011800004225A60002E56D1BDE8F88F2846FFF79A
:1011900025FF6BE717F4006F02D046F4804665E741
:1011A0002846FFF71EFF61E72846FFF718FF6EE7A6
:1011B00017F4002F02D046F4803668E72846FFF780
:1011C00011FF64E72B680822DA602846FFF70CFF5E
:1011D0006FE72846FFF707FF74E72B6808221A61BC
:1011E0002846FFF703FF7EE72846FFF7FEFE82E76B
:1011F0002B6810225A602846FFF7F9FE81E72B681A
:1012000008225A602846FFF7F3FE80E7BBF1500F33
:101210000ED0BBF1600FADD146F48076AAE746F060
:101220001006A7E746F02006A4E746F04006A1E72F
:1012300046F080069EE76B6A33436B622846FFF7F1
:10124000D8FEA1E7002808DB0901C9B200F160401F
:1012500000F5614080F80013704700F00F000901AD
:10126000C9B2014B1954704714ED00E000B500F00D
:101270000700C0F1070CBCF1040F28BF4FF0040CAD
:10128000031D062B0FD9C31E4FF0FF3E0EFA0CF0C4
:1012900021EA000199400EFA03FE22EA0E0241EA19
:1012A00002005DF804FB0023EEE70000074AD36864
:1012B00023F4E0631B041B0C000200F4E060034312
:1012C00043F0BF6343F40033D360704700ED00E0A8
:1012D00010B50446054BD868C0F30220FFF7C6FFDF
:1012E00001462046FFF7AEFF10BD00BF00ED00E055
:1012F000002807DB00F01F02400901239340024A47
:1013000042F82030704700BF00E100E070B582B0C5
:101310000024A446A1E07E4DAB4214D00CD8A5F524
:101320008015AB420FD005F57025AB420BD0A5F56B
:101330008015AB4210D106E0764DAB4203D005F5E7
:101340008035AB4208D18B68002B50D0012B49D09F
:101350004261082400E0CC68BEF1FF0F49D8064680
:101360004FEA8C0233680F25954023EA050304FAFF
:1013700002F2134333604B6813F0805F6BD0664B0F
:101380009A6942F001029A619B6903F0010301939B
:10139000019B4FEA9C02951C604B53F825600CF0B2
:1013A0000305AD000F23AB4026EA03065C4B9842D1
:1013B00026D003F58063984200F08C8003F58063AB
:1013C000984200F0898003F58063984216D0042388
:1013D00017E0CC680434BFE7CC680834BCE7CC68BD
:1013E0000C34B9E702610824B6E70024B4E704240A
:1013F000B2E7061DACF108029200B3E7032300E058
:101400000023AB4033430232444D45F822304B6851
:1014100013F4801F62D0434A936843EA0E0393603B
:101420004B6813F4001F5FD03E4AD36843EA0E03B3
:10143000D3604B6813F4003F5CD03A4A536843EAE8
:101440000E0353604B6813F4803F59D0354A13683C
:1014500043EA0E0313600CF1010C0B6833FA0CF233
:1014600054D0012202FA0CF203EA020E32EA03031C
:10147000F1D14B68122B3FF64EAF122B3FF66CAFFB
:1014800001A555F823F000BF4713000857130008C3
:10149000D9130008EB13000859130008591300086A
:1014A000591300085913000859130008591300086C
:1014B000591300085913000859130008591300085C
:1014C000591300085913000859130008D3130008D2
:1014D000DF130008012394E7022392E7114A93687F
:1014E00023EA0E0393609BE70E4AD36823EA0E03B8
:1014F000D3609EE70B4A536823EA0E035360A1E7CB
:10150000084A136823EA0E031360A4E702B070BD13
:1015100000002210000031100010024000000140C5
:1015200000080140000401400AB10161704709044C
:1015300001617047C36801EA030221EA030141EA3D
:10154000024101617047000008B5054B5B69034229
:1015500000D108BD024B5861FFF7E6F9F9E700BF7B
:101560000004014082B0084B1B68084AA2FB032319
:101570005B0A00FB03F3019300BF019B5A1E01921B
:10158000002BF9D102B0704700000020D34D62104B
:10159000002800F0F18170B582B00446036813F0B2
:1015A000010F2CD0994B5B6803F00C03042B1DD06A
:1015B000964B5B6803F00C03082B12D06368B3F5FD
:1015C000803F41D0002B55D103F1804303F5043314
:1015D0001A6822F480321A601A6822F480221A6093
:1015E00037E08A4B5B6813F4803FE7D0874B1B687A
:1015F00013F4003F03D06368002B00F0BF81236821
:1016000013F0020F75D0814B5B6813F00C0F5FD0A5
:101610007E4B5B6803F00C03082B54D02369002B2E
:1016200000F08A807A4B01221A60FFF701FB054621
:10163000764B1B6813F0020F75D1FFF7F9FA401BC8
:101640000228F5D903209EE1704A136843F48033E1
:101650001360636843B3FFF7EBFA05466B4B1B68F7
:1016600013F4003FCBD1FFF7E3FA401B6428F5D910
:10167000032088E1B3F5A02F09D0644B1A6822F447
:1016800080321A601A6822F480221A60E1E703F1BE
:101690008043A3F53C331A6842F480221A601A682A
:1016A00042F480321A60D4E7FFF7C2FA0546574B7E
:1016B0001B6813F4003FA2D0FFF7BAFA401B64285E
:1016C000F5D903205FE1514B5B6813F4803FA5D14E
:1016D0004E4B1B6813F0020F03D02369012B40F01F
:1016E0004F814A4A136823F0F803616943EAC10352
:1016F0001360236813F0080F33D0A369002B5CD06C
:10170000434B0122C3F88024FFF792FA05463F4B72
:101710005B6A13F0020F21D1FFF78AFA401B0228FF
:10172000F5D903202FE1394A136823F0F8036169E2
:1017300043EAC1031360DCE7354B00221A60FFF770
:1017400077FA0546314B1B6813F0020FD1D0FFF733
:101750006FFA401B0228F5D9032014E10120FFF79E
:1017600001FF236813F0040F00F09680274BDB691C
:1017700013F0805F34D1254BDA6942F08052DA6190
:10178000DB6903F080530193019B0125214B1B680A
:1017900013F4807F26D0E368012B3DD0002B53D17A
:1017A00003F1804303F504331A6A22F001021A623E
:1017B0001A6A22F004021A6233E0154B0022C3F8C1
:1017C0008024FFF735FA0546104B5B6A13F0020FD1
:1017D000C7D0FFF72DFA401B0228F5D90320D2E02D
:1017E0000025D3E70B4A136843F480731360FFF7B7
:1017F0001FFA0646074B1B6813F4807FCBD1FFF717
:1018000017FA801B6428F5D90320BCE000100240C1
:1018100000004242007000405F4A136A43F0010337
:101820001362E36833B3FFF703FA06465A4B1B6AA9
:1018300013F0020F2FD1FFF7FBF9801B41F2883321
:101840009842F3D903209EE0052B09D0524B1A6A27
:1018500022F001021A621A6A22F004021A62E0E718
:101860004D4B1A6A42F004021A621A6A42F00102EF
:101870001A62D6E7FFF7DCF90646474B1B6A13F0FE
:10188000020F08D0FFF7D4F9801B41F28833984249
:10189000F3D9032077E0E5B9E369002B72D03E4A23
:1018A000526802F00C02082A56D0022B17D03B4B8C
:1018B00000221A66FFF7BCF90446374B1B6813F089
:1018C000007F47D0FFF7B4F9001B0228F5D90320A9
:1018D00059E0314AD36923F08053D361DCE72F4BC1
:1018E00000221A66FFF7A4F905462B4B1B6813F07C
:1018F000007F06D0FFF79CF9401B0228F5D9032092
:1019000041E0236AB3F5803F1AD023494B6823F4A2
:101910007413226A606A024313434B601F4B012217
:101920001A66FFF785F904461B4B1B6813F0007F0E
:101930000ED1FFF77DF9001B0228F5D9032022E024
:10194000154A536823F40033A1680B435360DCE766
:10195000002018E0002016E0012B16D00E4B5B682B
:1019600003F48031226A914211D103F47013626A48
:1019700093420ED1002006E001207047012002E0D2
:10198000012000E0002002B070BD0120FBE7012033
:10199000F9E70120F7E700BF0010024000004242D3
:1019A0000F4B5B6803F00C02082A01D00D4870470A
:1019B000C3F383420C49885C13F4803F0BD0084B7F
:1019C0005B68C3F34043094AD35C064A02FB00F05C
:1019D000B0FBF3F07047064B03FB00F0704700BF0D
:1019E0000010024000127A006C48000868480008A5
:1019F00000093D00002800F0A08070B50D460446A7
:101A0000524B1B6803F007038B420BD24F4A1368FB
:101A100023F007030B431360136803F007038B42A3
:101A200040F08D80236813F0020F17D013F0040FDD
:101A300004D0474A536843F4E0635360236813F0CB
:101A4000080F04D0424A536843F460535360404A3D
:101A5000536823F0F003A1680B435360236813F02D
:101A6000010F31D06368012B20D0022B25D0384ADA
:101A7000126812F0020F64D035494A6822F003025E
:101A800013434B60FFF7D4F80646314B5B6803F015
:101A90000C036268B3EB820F16D0FFF7C9F8801B06
:101AA00041F288339842F0D9032045E0284A126871
:101AB00012F4003FE0D101203EE0254A126812F006
:101AC000007FD9D1012037E0204B1B6803F00703CA
:101AD000AB420AD91D4A136823F007032B43136056
:101AE000136803F00703AB422DD1236813F0040FF2
:101AF00006D0174A536823F4E063E1680B43536050
:101B0000236813F0080F07D0114A536823F4605379
:101B1000216943EAC1035360FFF742FF0C4B5B6846
:101B2000C3F303130B4AD35CD8400B4B18600B4B29
:101B30001868FEF7D3FF002070BD01207047012018
:101B4000FAE70120F8E70120F6E700BF0020024095
:101B50000010024058480008000000200800002043
:101B6000014B1868704700BF0000002008B5FFF760
:101B7000F7FF044B5B68C3F3C223034AD35CD8402E
:101B800008BD00BF00100240504800080F2303604A
:101B90000B4B5A6802F0030242605A6802F0F002EE
:101BA00082605A6802F4E062C2605B68DB0803F49A
:101BB000E0630361034B1B6803F007030B6070478E
:101BC00000100240002002407047000090F83D30B5
:101BD000DBB2012B27D1022380F83D300268D368A5
:101BE00043F00103D3600368114A934210D0B3F16C
:101BF000804F0DD0A2F59432934209D002F5806255
:101C0000934205D01A6842F001021A600020704722
:101C10009A6802F00702062A07D01A6842F0010209
:101C20001A6000207047012070470020704700BFF5
:101C3000002C0140704770477047704710B504464C
:101C400003681A6912F0020F11D0DA6812F0020F5D
:101C50000DD06FF002021A610123037703689B69BC
:101C600013F0030F70D0FFF7E6FF002323772368FC
:101C70001A6912F0040F12D0DA6812F0040F0ED0B5
:101C80006FF004021A610223237723689B6913F41F
:101C9000407F5FD02046FFF7CEFF002323772368E5
:101CA0001A6912F0080F12D0DA6812F0080F0ED07D
:101CB0006FF008021A61042323772368DB6913F0AD
:101CC000030F4ED02046FFF7B6FF0023237723688B
:101CD0001A6912F0100F12D0DA6812F0100F0ED03D
:101CE0006FF010021A61082323772368DB6913F46D
:101CF000407F3DD02046FFF79EFF002323772368D7
:101D00001A6912F0010F03D0DA6812F0010F36D110
:101D100023681A6912F0800F03D0DA6812F0800F7E
:101D200034D123681A6912F0400F03D0DA6812F038
:101D3000400F32D123681A6912F0200F03D0DA68FD
:101D400012F0200F30D110BDFFF774FF2046FFF7CF
:101D500073FF8AE72046FFF76DFF2046FFF76CFF11
:101D60009BE72046FFF766FF2046FFF765FFACE7DD
:101D70002046FFF75FFF2046FFF75EFFBDE76FF0ED
:101D800001021A612046FEF713FEC1E76FF08002E0
:101D90001A61204600F077F8C3E76FF040021A613D
:101DA0002046FFF74AFFC5E76FF020021A61204680
:101DB00000F068F8C7E7000003681B4A90420AD0A9
:101DC000B0F1804F07D0A2F59432904203D002F5D3
:101DD0008062904203D123F070034A681343124A91
:101DE00090420AD0B0F1804F07D0A2F594329042D1
:101DF00003D002F58062904203D123F44073CA6895
:101E0000134323F080034A69134303608B68C36262
:101E10000B688362044B984202D0012343617047F0
:101E20000B690363F9E700BF002C014040B310B514
:101E3000044690F83D30F3B1022384F83D3021464A
:101E400051F8040BFFF7B8FF012384F8463084F8FB
:101E50003E3084F83F3084F8403084F8413084F8D4
:101E6000423084F8433084F8443084F8453084F8B4
:101E70003D30002010BD80F83C30FFF7A5FEDBE7C9
:101E80000120704770477047EFF3058393B9EFF374
:101E9000108393B90C4B1868022804D080B90A4B00
:101EA00001221A607047EFF31183002BF6D06FF018
:101EB000050070476FF0050070476FF00500704730
:101EC0004FF0FF30704700BF2808002008B5EFF33F
:101ED0000583B3B9EFF31083B3B90E4B1B68022B24
:101EE00008D0012B13D10B4B02221A6001F00CFD1C
:101EF000002008BDEFF31182002AF2D06FF0050038
:101F0000F7E76FF00500F4E76FF00500F1E74FF039
:101F1000FF30EEE72808002008B5EFF305834BB942
:101F2000EFF3108333B9064B1B68022B05D1EFF397
:101F3000118313B101F042FD08BD01F039FDFBE74B
:101F400028080020F0B587B000240494EFF305843E
:101F5000002C43D1EFF31083002B3FD1334B1B6890
:101F6000022B16D0002839D000238DF8173062B329
:101F7000156895B1936903B918235C1E372C51D8A5
:101F8000546814F0010F4FD156694EB14FEA960CC8
:101F900008E0EFF311830BBBE4E70DF11705E9E768
:101FA0004FF0800C94682CB1D7685B2F02D9176969
:101FB00007B1B6B914B14FF0FF340CE0D46894B94E
:101FC00014699CB14FF0FF3405E0002418234FF052
:101FD000800C0DF11705012C0AD0ACB1049807B0A4
:101FE000F0BD0124F7E74FF0FF34F4E70024F2E7F7
:101FF000146992680292019400930B466246294646
:1020000001F016FC0490E9E704AA019200930B4644
:102010001FFA8CF2294601F045FC0128DED000238E
:102020000493DBE70020DAE70020D8E72808002047
:1020300008B5EFF30583A3B9EFF31083A3B90C4BF5
:102040001B68022B02D040B9002008BDEFF31183BA
:10205000002BF8D06FF00500F7E701F0BFFD00207E
:10206000F3E76FF00500F0E76FF00500EDE700BF64
:102070002808002008B5EFF3058333BBEFF3108386
:102080002BBB154B1B68022B0CD0D0B1836813B14E
:10209000C2681F2A11D85BB14FF0FF33CBB900F0F3
:1020A00065FA13E0EFF31183002BEED000200DE072
:1020B000C36843B14FF0FF33F0E7184600F031FA40
:1020C00004E00023EAE70023E8E7002008BD002041
:1020D000FCE70020FAE700BF2808002070B310B525
:1020E00082B00C460346B1F1807F2AD2EFF305821D
:1020F0004AB9EFF3108232B9164A1268022A18D18F
:10210000EFF31182AAB10022019201AA21461846DA
:1021100000F04AFBC8B9019BD3B14FF0E0234FF068
:102120008052C3F8042DBFF34F8FBFF36F8F20464B
:1021300009E02146184600F0EBFA04E06FF00300D6
:1021400070476FF0030002B010BD6FF00200FAE7B5
:102150002046F8E72808002070B518B30C4606465C
:10216000B1F1807F21D2EFF305834BB9EFF31083F8
:1021700033B9104B1B68022B0ED1EFF311835BB107
:10218000304600F0B7FA05462146304600F0A8FA7E
:1021900068B96FF002050AE02146304600F079FA8E
:1021A000054604E06FF0030501E06FF003052846E3
:1021B00070BD00BF28080020B0B370B582B00C46D7
:1021C0001D468446B1F1807F31D2EFF3058393BB86
:1021D000EFF3108393BB1E4B1B68022B13D012F03E
:1021E000010617D0012312F0020F15D0002200952E
:1021F0002146604600F0C8F986B1844219D005B383
:102200006FF0010015E0EFF31183002BE7D06FF0C2
:1022100005000EE00023E6E70122E8E7044208D1CA
:1022200095B16FF0010004E06FF0030070476FF0AC
:10223000030002B070BD6FF00500FAE76FF0050013
:10224000F7E76FF00200F4E76FF00200F1E700BF7C
:102250002808002030B583B0EFF30583002B49D167
:102260001546EFF31083002B48D1284B1B68022B37
:1022700021D0002844D0002944D0A5B3AB6853B185
:10228000EA684F2A07D92A692AB101FB00F4D5F878
:1022900014C0A44521D2A3B14FF0FF33A3BB002249
:1022A00000F092FE044634B305B12D68294620465D
:1022B00001F000F91FE0EFF31183002BD9D00024C7
:1022C00019E0EB688BB92B6913B14FF0FF33E5E7E9
:1022D0006B696BB14FF0FF33E0E70024009400F02E
:1022E0002AFE0446DFE70023D8E74FF0FF33D5E7A7
:1022F0000023D3E70024204603B030BD0024FAE7D2
:102300000024F8E70024F6E70024F4E7280800207A
:1023100010B582B01C46EFF30583B3B9EFF3108319
:102320009BB9224B1B68022B0BD098B3A9B3002397
:10233000224600F070FE012832D09CB36FF00100FD
:102340001AE0EFF31183002BEFD0B8B1C9B1DCB9BB
:102350000023019301AA00F022FF012817D1019860
:1023600050B14FF0E0234FF08052C3F8042DBFF37B
:102370004F8FBFF36F8F002002B010BD6FF00300CE
:10238000FAE76FF00300F7E76FF00300F4E76FF090
:102390000200F1E76FF00300EEE76FF00300EBE7F8
:1023A0000020E9E76FF00200E6E700BF2808002000
:1023B00010B582B01C46EFF30583ABB9EFF3108381
:1023C00093B9214B1B68022B0AD090B3A1B32246CC
:1023D00000F04BFF012832D09CB36FF001001AE0EF
:1023E000EFF31183002BF0D0B8B1C9B1DCB90023F1
:1023F000019301AA00F0E8FF012817D1019850B11C
:102400004FF0E0234FF08052C3F8042DBFF34F8FFD
:10241000BFF36F8F002002B010BD6FF00300FAE72A
:102420006FF00300F7E76FF00300F4E76FF00200CE
:10243000F1E76FF00300EEE76FF00300EBE7002039
:10244000E9E76FF00200E6E72808002008B1C06B5A
:102450007047002070470000B0B108B50346EFF3A5
:1024600005824AB9EFF3108232B9084A1268022A8B
:1024700006D1EFF311821AB1184601F00FF808BD2A
:10248000184600F0F8FFFAE70020704728080020FF
:1024900008B5EFF305839BB9EFF310839BB90D4BA0
:1024A0001B68022B05D088B1002100F0F1FC002050
:1024B00008BDEFF31183002BF5D06FF00500F7E7AF
:1024C0006FF00500F4E76FF00500F1E76FF003002F
:1024D000EEE700BF28080020034B0360034B0B60AE
:1024E00080231360704700BFCC070020CC0500207C
:1024F000034B0360034B0B604FF480731360704712
:1025000070050020700100201AB9084205D110465C
:102510007047814303D0002070470120704701209D
:10252000704780B110B582B0044620230193019B0F
:10253000202B11D04FF0500383F31188BFF36F8F1E
:10254000BFF34F8FFEE74FF0500383F31188BFF3C3
:102550006F8FBFF34F8FFEE7002340F8043B00F07E
:102560002DF901232377204602B010BD38B5202075
:1025700000F03AFB044628B1002540F8045B00F067
:102580001DF92577204638BD88B12DE9F0410C466C
:1025900016461D460746B1F1807F11D34FF0500318
:1025A00083F31188BFF36F8FBFF34F8FFEE74FF0B8
:1025B000500383F31188BFF36F8FBFF34F8FFEE794
:1025C00041B94FF0500383F31188BFF36F8FBFF30E
:1025D0004F8FFEE701F0B2FC50B9069B43B14FF0BC
:1025E000500383F31188BFF36F8FBFF34F8FFEE764
:1025F00001F0D6F9D7F800802A4621464046FFF779
:1026000083FFF8B18EB328EA04033B6000230693EE
:1026100001F068FA069B93B148B94FF0E0234FF000
:102620008052C3F8042DBFF34F8FBFF36F8F01F0BB
:10263000DDFC804610F0007F1AD028F07F4840462D
:10264000BDE8F081069B002BE2D05EB900210DB100
:1026500041F08061069A2143381D01F049FB4FF09B
:102660000008D5E74FF08071F1E700230693CFE72C
:1026700000F040F9D7F800802A4621464046FFF78F
:1026800043FF18B116B128EA04043C6000F054F985
:10269000D3E770B170B50C460546B1F1807F11D318
:1026A0004FF0500383F31188BFF36F8FBFF34F8F49
:1026B000FEE74FF0500383F31188BFF36F8FBFF332
:1026C0004F8FFEE700F016F92E6826EA04042C600E
:1026D00000F032F9304670BD08B5FFF7DAFF08BDEB
:1026E00008B50A4600230146014801F0A1FE08BDD5
:1026F000D9260008EFF311834FF0500282F31188BE
:10270000BFF36F8FBFF34F8F006883F3118870475B
:10271000F8B568B10D460446B1F1807F11D34FF092
:10272000500383F31188BFF36F8FBFF34F8FFEE722
:102730004FF0500383F31188BFF36F8FBFF34F8FB8
:10274000FEE700F10C0601F02BF9206923682B430A
:10275000236000270AE0216832EA010105D111E077
:10276000216841F0007101F051FB2846B0420ED0C3
:102770004568036823F07F4213F0806FEBD1216836
:102780001142F2D013F0807FEAD01743E8E72368C4
:1027900023EA0703236001F0A5F92068F8BD08B516
:1027A000FFF7B6FF08BD000008B513460A4601460C
:1027B000014801F03DFE08BD9F27000800F1080315
:1027C00043604FF0FF328260C36003610023036007
:1027D000704700230361704743684B609A688A60C2
:1027E000516099600861036801330360704730B439
:1027F0000D68B5F1FF3F11D000F108031C465B687E
:102800001A68AA42FAD963684B6099608C6061606B
:10281000086103680133036030BC70470469F2E764
:102820000369416882688A60416851605A688242DF
:1028300006D0002202611A68013A1A6018687047CF
:1028400082685A60F5E7000082B0002301930D4BC7
:102850001B68B3F1FF3F08D04FF0500383F311889A
:10286000BFF36F8FBFF34F8FFEE74FF0500383F33B
:102870001188BFF36F8FBFF34F8F019B002BFCD0EC
:1028800002B070470C00002006480068006880F322
:10289000088862B661B6BFF34F8FBFF36F8F00DF5A
:1028A00000BF000008ED00E04FF0807340F8043CEA
:1028B00021F0010140F8081C034B40F80C3C40F8A3
:1028C000202C4038704700BF492800080000000055
:1028D000074B19680868B0E8F00F80F30988BFF368
:1028E0006F8F4FF0000080F311884EF00D0E70478F
:1028F000881900204FF0500383F31188BFF36F8FC6
:10290000BFF34F8F0B4A136801331360012B00D0C4
:1029100070474FF0E023D3F8043D13F0FF0FF7D0DA
:102920004FF0500383F31188BFF36F8FBFF34F8FC6
:10293000FEE700BF0C000020094B1B6843B94FF0B5
:10294000500383F31188BFF36F8FBFF34F8FFEE700
:10295000013B034A13600BB983F31188704700BF32
:102960000C0000200000000000000000000000003B
:10297000EFF30980BFF36F8F0D4B1A6820E9F00F5A
:1029800010602DE908404FF0500080F3118801F0ED
:102990004BF94FF0000080F31188BDE8084019683A
:1029A0000868B0E8F00F80F30988BFF36F8F7047B5
:1029B0008819002008B54FF0500383F31188BFF346
:1029C0006F8FBFF34F8F01F001F828B14FF0E02374
:1029D0004FF08052C3F8042D002383F3118808BD03
:1029E0004FF0E022002313619361054B1B680549FA
:1029F000A1FB03139B09013B53610723136170473C
:102A000000000020D34D621010B582B02A4B1A7816
:102A1000D2B20192FF221A701B78DBB28DF803301C
:102A20009DF8033003F05003244A1370244B07220F
:102A30001A6009E0224A1368013B13609DF80330D5
:102A40005B00DBB28DF803309DF8033013F0800F8C
:102A5000F0D11B4B1B68032B08D04FF0500383F3BE
:102A60001188BFF36F8FBFF34F8FFEE71B02144A2D
:102A7000136003F4E0631360019BDBB20E4A137032
:102A80004FF0E023D3F8202D42F47002C3F8202D3C
:102A9000D3F8202D42F07042C3F8202DFFF7A0FF9D
:102AA0000024084B1C60FFF7EFFE01F0BDF8FFF7B4
:102AB000CBFE204602B010BD00E400E0300800204C
:102AC0002C0800200C000020EFF305830F2B0FD9FA
:102AD000114A9B5CDBB2114A12789A4208D94FF036
:102AE000500383F31188BFF36F8FBFF34F8FFEE75F
:102AF0004FF0E023D3F80C3D03F4E063084A12687A
:102B0000934208D94FF0500383F31188BFF36F8FBE
:102B1000BFF34F8FFEE77047F0E300E0300800207E
:102B20002C080020124A12F0070F1ED0D11D21F0F0
:102B30000701C1F5406313440A460E4802600021B4
:102B400041601344083B23F007030B4803605960BE
:102B50001960991A51601360084B1960084B19608D
:102B6000084B4FF000421A6070474FF44063E4E7AF
:102B70004C080020440800204008002038080020AD
:102B80003C08002034080020154B1A461B6883427D
:102B9000FBD3516802EB010C844509D0416800EB7E
:102BA000010C634509D00360904218D01060704753
:102BB0004068014451601046F0E710B4094C2468A5
:102BC000A3420AD05B681944416013681B68036024
:102BD000904200D0106010BC70470460F8E7704766
:102BE000440800204008002038B5044600F0D8FE14
:102BF000364B1B68B3B1364B1B681C424CD1002CC2
:102C00004CD004F1080214F0070F02D022F00702A2
:102C10000832002A51D02F4B1B6893424FD32E49C4
:102C20000C6804E0FFF77EFFE5E721461C46636879
:102C3000934202D22368002BF7D1244B1B68A34296
:102C40003FD00D68083523680B6063689B1A102B12
:102C500010D9A01810F0070F08D04FF0500383F3DD
:102C60001188BFF36F8FBFF34F8FFEE74360626041
:102C7000FFF78AFF626817490B689B1A0B601749B8
:102C800009688B4201D215490B60114B1B68134335
:102C900063600023236002E0002500E0002500F0CF
:102CA00021FF15F0070F0ED04FF0500383F311886A
:102CB000BFF36F8FBFF34F8FFEE70025EFE70025CF
:102CC000EDE70025EBE7284638BD00BF40080020AF
:102CD000340800203C080020440800203808002068
:102CE00080B338B50446A0F1080550F8043C164AF4
:102CF0001268134208D14FF0500383F31188BFF3D9
:102D00006F8FBFF34F8FFEE750F8081C41B14FF0B3
:102D1000500383F31188BFF36F8FBFF34F8FFEE72C
:102D200023EA020340F8043C00F03AFE54F8041C85
:102D3000064A13680B4413602846FFF725FF00F08E
:102D4000D1FE38BD704700BF340800203C08002089
:102D500010B50446FFF7CEFDA26BE36B9A4204D098
:102D60000024FFF7E9FD204610BD0124F9E710B566
:102D70000446FFF7BFFDA36B23B90124FFF7DCFD79
:102D8000204610BD0024F9E770B504461546866B51
:102D9000026C5AB903681BB100200136A66370BDEE
:102DA000406801F0DBF800236360F6E76DB98068E6
:102DB00001F07AFCA368226C1344A360626893421A
:102DC00019D32368A3602846E7E7C06801F06CFCCC
:102DD000E368226C51429B1AE3602268934202D25C
:102DE00063680B44E360022D01D00020D5E726B1D3
:102DF000013E0020D1E72846CFE70020CDE708B507
:102E00000346026C62B10846D9681144D960D3F810
:102E100004C0614501D31968D960D96801F044FC48
:102E200008BD38B50546FFF765FD95F8454064B225
:102E300001E0013C64B2002C0ADD6B6A43B105F18C
:102E4000240000F09DFF0028F3D001F071F8F0E7B6
:102E5000FF2385F84530FFF76FFDFFF74BFD95F831
:102E6000444064B201E0013C64B2002C0ADD2B69ED
:102E700043B105F1100000F083FF0028F3D001F00A
:102E800057F8F0E7FF2385F84430FFF755FD38BDCC
:102E900038B5E0B10D460446FFF72CFD2368E26B20
:102EA000216C01FB023060600020A063A360013A46
:102EB00002FB0133E360FF2384F8443084F845309B
:102EC000FDB9236963B9FFF737FD012038BD4FF025
:102ED000500383F31188BFF36F8FBFF34F8FFEE76B
:102EE00004F1100000F04CFF0028ECD04FF0E0237C
:102EF0004FF08052C3F8042DBFF34F8FBFF36F8F95
:102F0000E1E704F11000FFF759FC04F12400FFF79A
:102F100055FCD8E738B51D46049C0B4649B92460DA
:102F2000E063236401212046FFF7B2FF84F84C5090
:102F300038BD2260F4E740B94FF0500383F31188A5
:102F4000BFF36F8FBFF34F8FFEE710B584B01C4601
:102F5000844653B192B189B94FF0500383F311887D
:102F6000BFF36F8FBFF34F8FFEE74FF0500383F334
:102F70001188BFF36F8FBFF34F8FFEE76AB1502305
:102F80000393039B502B13D04FF0500383F311880E
:102F9000BFF36F8FBFF34F8FFEE70029EFD04FF0E5
:102FA000500383F31188BFF36F8FBFF34F8FFEE79A
:102FB000012384F8463000949DF818306046FFF7EE
:102FC000A9FF204604B010BD40B94FF0500383F371
:102FD0001188BFF36F8FBFF34F8FFEE7F0B583B05B
:102FE0000C4615460746A1B101FB00F05030FFF733
:102FF000FBFD064650B1002380F8463000902B467A
:1030000000F1500221463846FFF784FF304603B0F6
:10301000F0BD0846EAE7F0B585B0019288B10F46E9
:103020001D460446B1B1022D20D1E36B012B1DD00A
:103030004FF0500383F31188BFF36F8FBFF34F8FAF
:10304000FEE74FF0500383F31188BFF36F8FBFF398
:103050004F8FFEE7036C002BE5D04FF0500383F356
:103060001188BFF36F8FBFF34F8FFEE700F066FF4D
:10307000064658B9019B002B48D04FF0500383F30C
:103080001188BFF36F8FBFF34F8FFEE700263DE03F
:103090002A4639462046FFF777FE636A7BB948B176
:1030A0004FF0E0234FF08052C3F8042DBFF34F8F51
:1030B000BFF36F8FFFF740FC012005B0F0BD04F1B6
:1030C000240000F05DFE0028F4D04FF0E0234FF024
:1030D0008052C3F8042DBFF34F8FBFF36F8FE9E722
:1030E000FFF72AFC0020E8E702A800F0D3FE012643
:1030F00019E0002384F8443021E0002384F84530AF
:1031000023E02046FFF78DFE00F0ECFCFFF7F2FB1A
:10311000A26BE36B9A42BBD3022DB9D0019B002B6B
:10312000DED0002EE0D0FFF707FC00F039FCFFF7FF
:10313000E1FB94F8442052B2B2F1FF3FD9D094F8A9
:10314000452052B2B2F1FF3FD7D0FFF7F5FB01A9FE
:1031500002A800F0ABFED8B92046FFF7F9FD002821
:10316000CFD0019904F1100000F0AAFD2046FFF72E
:1031700058FE00F0B7FC0028C8D14FF0E0234FF014
:103180008052C3F8042DBFF34F8FBFF36F8FBDE79D
:103190002046FFF746FE00F0A5FC00208DE72DE954
:1031A000F84390B10F4616461C460546B1B1022CB5
:1031B00020D1EB6B012B1DD04FF0500383F311880E
:1031C000BFF36F8FBFF34F8FFEE74FF0500383F3D2
:1031D0001188BFF36F8FBFF34F8FFEE7036C002B97
:1031E000E5D04FF0500383F31188BFF36F8FBFF327
:1031F0004F8FFEE7FFF768FCEFF311884FF05003A5
:1032000083F31188BFF36F8FBFF34F8FAA6BEB6B04
:103210009A4206D3022C04D0002088F31188BDE81E
:10322000F88395F845904FFA89F9224639462846A1
:10323000FFF7AAFDB9F1FF3F06D009F101035BB228
:1032400085F845300120E8E76B6A0BB90120E4E717
:1032500005F1240000F094FD18B126B10120306082
:10326000DBE70120D9E70120D7E7F0B585B001926F
:1032700090B10F460446C1B100F060FE064600BBA7
:10328000019B002B5ED04FF0500383F31188BFF3F6
:103290006F8FBFF34F8FFEE74FF0500383F311881A
:1032A000BFF36F8FBFF34F8FFEE7036C002BE3D0AC
:1032B0004FF0500383F31188BFF36F8FBFF34F8F2D
:1032C000FEE700263EE039462046FFF798FD013D27
:1032D000A563236923B9FFF72FFB012005B0F0BDDB
:1032E00004F1100000F04CFD0028F4D04FF0E02372
:1032F0004FF08052C3F8042DBFF34F8FBFF36F8F91
:10330000E9E7FFF719FB0020E8E702A800F0C2FD9B
:10331000012621E0002384F8443029E0002384F8CA
:1033200045302BE02046FFF77CFD00F0DBFB09E099
:103330002046FFF776FD00F0D5FB2046FFF717FD8E
:1033400000283FD1FFF7D6FAA56B002DBBD1019B1A
:10335000002BD6D0002ED8D0FFF7EEFA00F020FBDD
:10336000FFF7C8FA94F844305BB2B3F1FF3FD1D015
:1033700094F845305BB2B3F1FF3FCFD0FFF7DCFAF2
:1033800001A902A800F092FD0028D1D12046FFF744
:10339000EEFC0028C6D0019904F1240000F090FC56
:1033A0002046FFF73EFD00F09DFB0028CAD14FF0FC
:1033B000E0234FF08052C3F8042DBFF34F8FBFF3CB
:1033C0006F8FBFE7002089E72DE9F843B0B10D46C4
:1033D00090460446D9B1FFF777FBEFF311874FF022
:1033E000500383F31188BFF36F8FBFF34F8FA66B2A
:1033F000CEB9002087F31188BDE8F8834FF0500361
:1034000083F31188BFF36F8FBFF34F8FFEE7036C19
:10341000002BE0D04FF0500383F31188BFF36F8F80
:10342000BFF34F8FFEE794F844904FFA89F929468D
:103430002046FFF7E4FC731EA363B9F1FF3F06D0FB
:1034400009F101035BB284F844300120D2E723691B
:103450000BB90120CEE704F1100000F091FC30B16F
:10346000B8F1000F05D00120C8F80000C2E7012024
:10347000C0E70120BEE740B110B50446FFF73AFAB5
:10348000A46BFFF759FA204610BD4FF0500383F3A9
:103490001188BFF36F8FBFF34F8FFEE708B1806BCA
:1034A00070474FF0500383F31188BFF36F8FBFF362
:1034B0004F8FFEE70023072B0CD8074A52F8332022
:1034C0000AB10133F7E7044A42F8331002EBC302B2
:1034D00050607047704700BF4C14002070B5044620
:1034E0000D461646FFF706FA94F844305BB2B3F186
:1034F000FF3F0DD094F845305BB2B3F1FF3F0BD0E6
:10350000FFF71AFAA36B5BB12046FFF78AFC70BD88
:10351000002384F84430EDE7002384F84530EFE7DA
:103520003246294604F1240000F00EFCECE70000CE
:10353000084B1B681B6823B9074B4FF0FF321A601A
:103540007047044B1B68DB68DB685A68024B1A60E3
:10355000704700BFFC140020941400202DE9F047B0
:1035600080460D4617469946089EDDF824A00A9C21
:103570009200A521206B01F053F8236B07F18042E4
:10358000013A03EB820727F007074FF0000CBCF16C
:103590000F0F09D815F80C3004EB0C0282F8343008
:1035A00013B10CF1010CF2E7002384F84330372EFD
:1035B00000D93726E662E66400252565201DFFF761
:1035C00008F904F11800FFF704F92461C6F1380680
:1035D000A6616462656584F858504A46414638469B
:1035E000FFF762F92060BAF1000F01D0CAF800407D
:1035F000BDE8F08738B5002407E004EB84029300AF
:103600000E481844FFF7DAF80134372CF5D90C4D81
:103610002846FFF7D3F80B4C2046FFF7CFF80A48AF
:10362000FFF7CCF80948FFF7C9F80948FFF7C6F8D3
:10363000084B1D60084B1C6038BD00BF28150020DA
:103640001415002000150020E4140020D0140020E0
:10365000B8140020FC140020F814002010B5044613
:10366000FFF748F9224A136801331360214B1B68A6
:103670005BB1214B1B686BB91E4B1B68DA6AE36AAE
:103680009A4207D81B4B1C6004E01A4B1C6013685D
:10369000012B29D0194A1368013313606364E06A6F
:1036A000174B1B68984201D9154B186000EB80003E
:1036B000211D144B03EB8000FFF78EF8FFF73CF958
:1036C0000D4B1B687BB10B4B1B68DA6AE36A9A42AD
:1036D00009D24FF0E0234FF08052C3F8042DBFF31E
:1036E0004F8FBFF36F8F10BDFFF784FFD2E700BF8E
:1036F000B414002088190020A81400209814002079
:10370000AC1400202815002010B5044690F859305C
:1037100063B1012B11D0022B0ED04FF0500383F375
:103720001188BFF36F8FBFF34F8FFEE7006BFFF77A
:10373000D7FA2046FFF7D4FA10BDFFF7D1FAFBE71E
:103740000F4B1B68D3B110B5FFF7D4F80D4BDB68F6
:10375000DC68201DFFF764F80B4A1368013B136017
:10376000074A1368013B1360FFF7E6F82046FFF7AE
:10377000CBFF034B1B68002BE6D110BD704700BF89
:10378000CC140020D0140020B414002008B5FFF79A
:10379000D7FF074B1B68012BF9D94FF0E0234FF0FF
:1037A0008052C3F8042DBFF34F8FBFF36F8FEEE746
:1037B0002815002070B504460D46174B1E68174BA0
:1037C00018680430FFF72CF8B4F1FF3F0DD03444F3
:1037D000124B1B685C60A64210D9114B18680F4B46
:1037E00019680431FFF703F870BD002DEFD00B4BC3
:1037F000196804310B48FEF7EFFFF5E70A4B18682C
:10380000064B19680431FEF7F2FF084B1B68A34210
:10381000EAD9064B1C60E7E7B014002088190020A5
:10382000F8140020B8140020FC1400209414002088
:1038300030B587B00B9C7CB10C9DB5B15C2504956F
:10384000049D5C2D1AD04FF0500383F31188BFF311
:103850006F8FBFF34F8FFEE74FF0500383F3118854
:10386000BFF36F8FBFF34F8FFEE74FF0500383F32B
:103870001188BFF36F8FBFF34F8FFEE70C9D2C6352
:10388000022485F8594000240394029505AC019464
:103890000A9C0094FFF762FE0C98FFF7DFFE059884
:1038A00007B030BD2DE9F04385B007468846144681
:1038B0001E469000FFF798F908B381465C20FFF799
:1038C00093F90546A8B1C0F83090002380F859302C
:1038D000039302900D9B01930C9B00933346224669
:1038E00041463846FFF73AFE2846FFF7B7FE01206B
:1038F00007E04846FFF7F4F94FF0FF3001E04FF0E2
:10390000FF3005B0BDE8F08310B588B00024059401
:10391000069407AA06A905A8FEF7DEFD059B0293FB
:10392000069B019300942346079A17491748FFF70F
:103930007FFF174B1860C0B100F0D0FB012815D1F4
:103940004FF0500383F31188BFF36F8FBFF34F8F96
:10395000104B4FF0FF321A600F4B01221A600F4BD1
:1039600000221A60FFF750F803E00020B0F1FF3F9B
:1039700001D008B010BD4FF0500383F31188BFF39E
:103980006F8FBFF34F8FFEE7A44700088D37000805
:103990009014002094140020A8140020B0140020DB
:1039A000024A136801331360704700BF8C14002073
:1039B000014B1868704700BFB014002008B5FFF72E
:1039C00083F8014B186808BDB0140020F8B53A4BD5
:1039D0001B68002B64D1394B1D6801351D60C5B9CA
:1039E000374B1B681B6843B14FF0500383F31188BA
:1039F000BFF36F8FBFF34F8FFEE7314A1168314B32
:103A0000186810601960304A136801331360FFF7BB
:103A10008FFD2E4B1B68AB4238D900272C4B1B68FF
:103A2000DB6A03EB83039A002A4B9B58012B3CD99A
:103A300001273AE00127224B1B681B6843B3204B48
:103A40001B68DB68DC6863689D4226D3261D304610
:103A5000FEF7E6FEA36A1BB104F11800FEF7E0FED4
:103A6000E36A1D4A1268934201D91B4A136003EBB3
:103A700083039A00314617481044FEF7ADFEE26A10
:103A8000134B1B68DB6A9A42D4D2D4E70027D2E7F3
:103A90000E4B4FF0FF321A60C0E70C4A1360BDE7CF
:103AA0000E4A13680133136000270D4B1B6803B1E6
:103AB00001273846F8BD00BF8C140020B014002048
:103AC000FC140020F81400209C1400209414002002
:103AD0008819002028150020AC140020A414002010
:103AE000A014002038B5354B1B6843B94FF0500384
:103AF00083F31188BFF36F8FBFF34F8FFEE7FEF79D
:103B0000F9FE2E4B1A68013A1A601B68002B4FD140
:103B10002B4B1B680BB900244BE00024294B1B687E
:103B20001BB3284BDB68DC6804F11800FEF778FE55
:103B3000251D2846FEF774FEE06A234B1B68984259
:103B400001D9214B186000EB800029461F4B03EB85
:103B50008000FEF741FEE26A1D4B1B68DB6A9A4259
:103B6000DCD31C4B01221A60D8E70CB1FFF7E0FC54
:103B7000194B1C6884B9174B1C68D4B14FF0E02373
:103B80004FF08052C3F8042DBFF34F8FBFF36F8FF8
:103B900001240EE0013C07D0FFF718FF0028F9D000
:103BA0000C4B01221A60F5E70B4B00221A60E2E78A
:103BB0000024FEF7C1FE204638BD00BF8C14002053
:103BC000B4140020E4140020AC14002028150020B8
:103BD00088190020A0140020A414002010B5A8B15A
:103BE0000446104B1B6843B14FF0500383F3118818
:103BF000BFF36F8FBFF34F8FFEE7FFF7D1FE0021BA
:103C00002046FFF7D7FDFFF76DFF48B94FF0E023DF
:103C10004FF08052C3F8042DBFF34F8FBFF36F8F67
:103C200010BD00BF8C140020204B1B681BB1204B23
:103C300001221A6070471E4B00221A601D4B1B6840
:103C400003EB83018A001C498A585AB90BB1013B26
:103C5000F6E74FF0500383F31188BFF36F8FBFF384
:103C60004F8FFEE7084603EB83018A000244516848
:103C70004968516003EB830C4FEA8C02083202441E
:103C800091420BD003EB830291000B4A0A44526825
:103C9000D1680A4A1160074A136070474868624653
:103CA0009100054A0A445060ECE700BF8C140020E4
:103CB000A0140020AC140020281500208819002032
:103CC00058B110B50C46094A11681831FEF78FFD3E
:103CD00001212046FFF76EFD10BD4FF0500383F326
:103CE0001188BFF36F8FBFF34F8FFEE78819002055
:103CF00070B110B514460246114B1B688BB94FF0DA
:103D0000500383F31188BFF36F8FBFF34F8FFEE72C
:103D10004FF0500383F31188BFF36F8FBFF34F8FC2
:103D2000FEE7084B186841F00041816119681831BD
:103D30001046FEF751FD01212046FFF73BFD10BD67
:103D40008C1400208819002038B570B10D46144637
:103D50000A4A11681831FEF73FFD0CB14FF0FF35EC
:103D600021462846FFF726FD38BD4FF0500383F368
:103D70001188BFF36F8FBFF34F8FFEE788190020C4
:103D800038B5C368DC6824B304F118052846FEF78B
:103D900047FD184B1B682BBB251D2846FEF740FD31
:103DA000E06A154B1B68984201D9134B186000EB71
:103DB00080002946114B03EB8000FEF70DFDE26AFF
:103DC0000F4B1B68DB6A9A4211D901200D4B18601A
:103DD00038BD4FF0500383F31188BFF36F8FBFF3EB
:103DE0004F8FFEE729460848FEF7F6FCE7E700207C
:103DF000EEE700BF8C140020AC1400202815002032
:103E000088190020A0140020E414002038B51C4BB1
:103E10001B6843B94FF0500383F31188BFF36F8FD2
:103E2000BFF34F8FFEE741F000410160C468F4B179
:103E3000FEF7F6FC251D2846FEF7F2FCE06A114B62
:103E40001B68984201D90F4B186000EB800029468F
:103E50000D4B03EB8000FEF7BFFCE26A0B4B1B68C7
:103E6000DB6A9A4202D90A4B01221A6038BD4FF030
:103E7000500383F31188BFF36F8FBFF34F8FFEE7BB
:103E80008C140020AC140020281500208819002074
:103E9000A0140020034B1B680360034B1B684360A6
:103EA000704700BF9C140020B0140020D8B170B53A
:103EB0000C46054601B3FEF71DFD1B4B19686B68E8
:103EC000C81A2268B2F1FF3F27D0184E3668D5F8DD
:103ED00000C0B44501D08B4224D9824215D80023BA
:103EE000236001241AE04FF0500383F31188BFF3DD
:103EF0006F8FBFF34F8FFEE74FF0500383F31188AE
:103F0000BFF36F8FBFF34F8FFEE75B1A134423603D
:103F10002846FFF7BFFF002400E00024FEF70CFD59
:103F2000204670BD0124F9E7B01400209C14002045
:103F3000014B01221A607047A0140020054B1B683A
:103F400033B1054B1B680BB100207047022070474E
:103F500001207047A81400208C14002000283BD0BA
:103F600038B504461E4B1B68834208D04FF05003FF
:103F700083F31188BFF36F8FBFF34F8FFEE7036D9D
:103F800043B94FF0500383F31188BFF36F8FBFF332
:103F90004F8FFEE7013B0365C16AC26C91421DD0A1
:103FA0000BB1002038BD051D2846FEF739FCE06C3A
:103FB000E062C0F13803A3610A4B1B68984201D943
:103FC000084B186000EB80002946074B03EB80008C
:103FD000FEF702FC0120E5E7002070470020E1E742
:103FE00088190020AC14002028150020044A13680A
:103FF00098691368DB6A1268C3F1380393617047EC
:1040000088190020064B1A681368B3FA83F35B091A
:10401000036013B9D368186870470020704700BF69
:104020008C1A002008B54160006191420CD8D21A68
:1040300083699A4201D3012008BD011D094B18680C
:10404000FEF7D5FB0020F7E79A4201D2994206D24B
:10405000011D054B1868FEF7CAFB0020ECE70120A4
:10406000EAE700BF881A00208C1A002030B583B020
:10407000FEF740FC114B1B681BB1FEF75DFC03B063
:1040800030BD0F4D2846FEF799FB0E4C2046FEF73B
:1040900095FB0D4B1D600D4B1C60002300930C4BDA
:1040A0000C4A10210A20FEF746FF044B1860002836
:1040B000E3D00949FFF7FEF9DFE700BF841A0020CB
:1040C000A41A0020901A00208C1A0020881A0020C0
:1040D0008C190020DC190020AC47000810B588B00E
:1040E000FFF7C4FF124B1B68CBB100240594069464
:1040F00007AA06A905A8FEF7FBF9059B0293069BF4
:104100000193022300932346079A0A490A48FFF7BE
:104110008FFB0A4B186010B1012008B010BD4FF0A2
:10412000500383F31188BFF36F8FBFF34F8FFEE708
:10413000841A0020B447000819440008801A00209F
:10414000B8B19C4603461848006858B300B585B01E
:1041500000910192029305291CDCFFF7EFFE022873
:1041600010D000231A4669460F480068FEF753FF37
:1041700015E04FF0500383F31188BFF36F8FBFF347
:104180004F8FFEE70023069A694607480068FEF74E
:1041900042FF04E0002362466946FFF700F805B0DD
:1041A0005DF804FB00207047841A002070B582B0CF
:1041B0001A4B1B681A6852B3DB681E68DC68251D41
:1041C0002846FEF72DFB636A20469847E369012BDA
:1041D000EED1A36933449E4207D26360246129462D
:1041E0000E4B1868FEF703FBE2E7002100910B4637
:1041F00032462046FFF7A4FF0028D9D14FF05003E4
:1042000083F31188BFF36F8FBFF34F8FFEE7044A2C
:10421000106802490860136002B070BD8C1A00205B
:10422000881A002038B50546FFF7C2FB0446074B45
:104230001B68834205D800232B60044B1C6020467A
:1042400038BDFFF7B3FF01232B60F6E77C1A00208F
:1042500070B582B006460D4614490968C968CC6835
:10426000201DFEF7DDFAE169012904D0636A2046CA
:10427000984702B070BDA16933462A4631442046B2
:10428000FFF7D0FE0028F1D0002100910B46324606
:104290002046FFF755FF0028E8D14FF0500383F385
:1042A0001188BFF36F8FBFF34F8FFEE78C1A00208A
:1042B00070B582B006460C46FFF772FB01A8FFF707
:1042C000B1FF019B23BB054644B9B0420CD3FFF7B5
:1042D00009FC29463046FFF7BBFF1BE00E4B1B686D
:1042E0001C68B4FA84F464092246711B0B4B1868ED
:1042F000FFF7F4F8FFF7F6FB60B94FF0E0234FF05B
:104300008052C3F8042DBFF34F8FBFF36F8F01E0CE
:10431000FFF7E8FB02B070BD881A0020841A002065
:1043200010B588B002E0049B002B0FDA002204A92C
:10433000384B1868FEF799FF002869D0049B002BC2
:10434000F1DA07990698059B9847ECE7069C6369A4
:1043500013B1201DFEF764FA03A8FFF763FF049B67
:10436000092BE3D801A252F823F000BF95430008BF
:1043700095430008954300082D430008DB430008DF
:104380000144000895430008954300082D430008A8
:10439000DB430008059BA169024619442046FFF74C
:1043A00041FE0028C2D0636A20469847E369012B8A
:1043B000BCD1A269002100910B4605980244204619
:1043C000FFF7BEFE0028B1D14FF0500383F31188F0
:1043D000BFF36F8FBFF34F8FFEE70599A16131B136
:1043E0000346024601442046FFF71CFE9EE74FF0BD
:1043F000500383F31188BFF36F8FBFF34F8FFEE736
:1044000094F82C30002B91D12046FEF769FC8DE703
:1044100008B010BD841A002000B583B001A8FFF7D2
:10442000F1FD0199FFF744FFFFF77AFFF6E700007F
:1044300010B584B014461A466FF001030093019042
:10444000029103940023694602480068FEF7A7FE24
:1044500004B010BD841A0020FCF7CAFB0B480C49BD
:104460000C4A002302E0D458C4500433C4188C42D0
:10447000F9D3094A094C002301E013600432A24237
:10448000FBD300F0EBF8FCF7D3FA704700000020F4
:10449000600000208448000860000020001C00200C
:1044A000FEE70000024B0146186800F02DB800BF7F
:1044B00010000020024B0146186800F003B900BF4D
:1044C0001000002070B50F4E0C463168054611B93A
:1044D00000F0AEF830602146284600F0A9F8431CF1
:1044E00003D14FF0FF34204670BDC41C24F00304F8
:1044F000A042F8D0211A284600F09AF80130F2D1F3
:10450000EFE700BFB81A00202DE9F843CD1C25F0D5
:10451000030508350C2D38BF0C25002D064601DBA0
:10452000A94204D90C2333600020BDE8F883DFF8EA
:10453000D48000F069F8D8F800301C4644BB294606
:104540003046FFF7BFFF431C044658D1D8F800405F
:104550002746002F43D1002C4BD0236839463046E4
:1045600004EB030900F064F8814542D1216830462C
:104570006D1A2946FFF7A6FF01303AD023682B4475
:104580002360D8F800305A6862BBC8F800700FE0AA
:104590002268521B20D40B2A17D96119A342256027
:1045A00018BF5960636808BFC8F8001062514B60BB
:1045B000304600F02FF804F10B00231D20F0070017
:1045C000C21A1CBF1B1AA350AFE76268A3420CBFFC
:1045D000C8F800205A60EBE723466468AEE73C4623
:1045E0007F68B6E71A465B68A342FBD1002353609D
:1045F000DEE70C233046336000F00CF894E70560EA
:10460000D6E700BFBC1A0020014800F04BB800BF3D
:10461000FC1B0020014800F046B800BFFC1B002036
:1046200003460244934200D1704703F8011BF9E7A7
:1046300038B50023054D044608462B60FCF7B4FA54
:10464000431C02D12B6803B1236038BDF81B002046
:10465000014B1868704700BF1000002070B500269D
:104660000C4D0D4C641BA410A64209D100F072F849
:1046700000260A4D0A4C641BA410A64205D170BD49
:1046800055F8043B98470136EEE755F8043B984748
:104690000136F2E77C4800087C4800087C480008A6
:1046A00080480008704770470A44914200F1FF3388
:1046B00000D1704710B511F8014B914203F8014F3A
:1046C000F9D110BD38B50546002940D051F8043C59
:1046D0000C1F002BB8BFE418FFF796FF1C4A1368A5
:1046E00033B9636014602846BDE83840FFF792BFD5
:1046F000A34208D9206821188B4201BF19685B6862
:1047000009182160EDE71A465B680BB1A342FAD99C
:1047100011685018A0420BD1206801445018834200
:104720001160E0D118685B68084410605360DAE7F4
:1047300002D90C232B60D6E7206821188B4201BFD9
:1047400019685B680918216063605460CBE738BD65
:10475000BC1A0020F8B500BFF8BC08BC9E467047E4
:0C476000F8B500BFF8BC08BC9E467047CE
:10476C006974725F6576656E7473000043414E5FC9
:10477C005100000052504D5F68616E646C657200B0
:10478C0043414E5F68616E646C657200646566617E
:10479C00756C745461736B0049444C450000000007
:1047AC00546D725100000000546D722053766300FA
:1047BC006C47000800000000000000000000000032
:1047CC007847000800000000000000000000000016
:1047DC0000000000000000008047000800000000FE
:1047EC0000000000000000000000000000020000BB
:1047FC003000000000000000000000008C470008A2
:10480C00000000000000000000000000000000009C
:10481C000002000018000000000000000000000072
:10482C009847000800000000000000000000000095
:10483C000000000000020000180000000000000052
:10484C000000000000000000010203040000000052
:10485C000000000001020304060708090102000021
:10486C0002030405060708090A0B0C0D0E0F1010A5
:04487C00F10500083A
:04488000CD0500085A
:104884000024F4000100000010000000AAAAAAAA53
:104894001400002000000000C01A0020281B002083
:1048A400901B002000000000000000000000000039
:1048B40000000000000000000000000000000000F4
:1048C40000000000000000000000000000000000E4
:1048D40000000000000000000000000000000000D4
:040000050800445952
:00000001FF
