:020000040800F2
:1000000000500020152800081D1000081F100008CF
:10001000211000082310000825100008000000002F
:100020000000000000000000000000002710000891
:1000300029100008000000002B1000082D100008F7
:100040005D2800085D2800085D2800085D2800087C
:100050005D2800085D2800085D2800085D2800086C
:100060005D2800085D2800085D2800085D2800085C
:100070005D2800085D2800085D2800085D2800084C
:100080005D2800085D2800085D2800085D2800083C
:10009000351000085D2800085D2800085D2800086C
:1000A0005D2800085D2800085D2800085D2800081C
:1000B0005D2800085D2800085D2800085D2800080C
:1000C0005D2800085D2800085D2800085D280008FC
:1000D0005D2800085D2800085D2800085D280008EC
:1000E0005D2800085D2800085D2800080000000069
:1000F0000000000000000000000000000000000000
:0C01000000000000000000005FF808F1A3
:10011000034613F8012B002AFBD1181A0138704747
:1001200081F0004102E000BF83F0004330B54FEAA8
:1001300041044FEA430594EA050F08BF90EA020F15
:100140001FBF54EA000C55EA020C7FEA645C7FEAA8
:10015000655C00F0E2804FEA5454D4EB5555B8BFCB
:100160006D420CDD2C4480EA020281EA030382EA3C
:10017000000083EA010180EA020281EA0303362DCE
:1001800088BF30BD11F0004F4FEA01314FF4801CA1
:100190004CEA113102D0404261EB410113F0004FB3
:1001A0004FEA03334CEA133302D0524263EB43036A
:1001B00094EA050F00F0A780A4F10104D5F1200E08
:1001C0000DDB02FA0EFC22FA05F2801841F1000163
:1001D00003FA0EF2801843FA05F359410EE0A5F137
:1001E00020050EF1200E012A03FA0EFC28BF4CF068
:1001F000020C43FA05F3C01851EBE37101F000451E
:1002000007D54FF0000EDCF1000C7EEB00006EEB2A
:100210000101B1F5801F1BD3B1F5001F0CD34908B4
:100220005FEA30004FEA3C0C04F101044FEA44520B
:1002300012F5800F80F09A80BCF1004F08BF5FEA92
:10024000500C50F1000041EB045141EA050130BD72
:100250005FEA4C0C404141EB0101013C28BFB1F584
:10026000801FE9D291F0000F04BF01460020B1FACF
:1002700081F308BF2033A3F10B03B3F120020CDAA2
:100280000C3208DD02F1140CC2F10C0201FA0CF080
:1002900021FA02F10CE002F11402D8BFC2F1200CE5
:1002A00001FA02F120FA0CFCDCBF41EA0C0190409B
:1002B000E41AA2BF01EB0451294330BD6FEA0404E4
:1002C0001F3C1CDA0C340EDC04F11404C4F12002CF
:1002D00020FA04F001FA02F340EA030021FA04F3E1
:1002E00045EA030130BDC4F10C04C4F1200220FA38
:1002F00002F001FA04F340EA0300294630BD21FA76
:1003000004F0294630BD94F0000F83F4801306BF3B
:1003100081F480110134013D4EE77FEA645C18BF2F
:100320007FEA655C29D094EA050F08BF90EA020FC6
:1003300005D054EA000C04BF1946104630BD91EABE
:10034000030F1EBF0021002030BD5FEA545C05D1C1
:100350004000494128BF41F0004130BD14F5800400
:100360003CBF01F5801130BD01F0004545F0FE4174
:1003700041F470014FF0000030BD7FEA645C1ABFA9
:10038000194610467FEA655C1CBF0B46024650EAE0
:10039000013406BF52EA033591EA030F41F400210C
:1003A00030BD00BF90F0000F04BF0021704730B592
:1003B0004FF4806404F132044FF000054FF0000167
:1003C00050E700BF90F0000F04BF0021704730B528
:1003D0004FF4806404F1320410F0004548BF4042FD
:1003E0004FF000013EE700BF42004FEAE2014FEA52
:1003F00031014FEA02701FBF12F07F4393F07F4F2D
:1004000081F06051704732F07F4208BF704793F02F
:100410007F4F04BF41F40021704730B54FF4607442
:1004200001F0004521F000411CE700BF50EA010245
:1004300008BF704730B54FF000050AE050EA0102EE
:1004400008BF704730B511F0004502D5404261EB5E
:1004500041014FF4806404F132045FEA915C3FF49F
:10046000D8AE4FF003025FEADC0C18BF03325FEA3C
:10047000DC0C18BF033202EBDC02C2F1200300FAED
:1004800003FC20FA02F001FA03FE40EA0E0021FA12
:1004900002F11444BDE600BF70B54FF0FF0C4CF400
:1004A000E06C1CEA11541DBF1CEA135594EA0C0FB2
:1004B00095EA0C0F00F0DEF82C4481EA030621EAED
:1004C0004C5123EA4C5350EA013518BF52EA033528
:1004D00041F4801143F4801338D0A0FB02CE4FF0DA
:1004E0000005E1FB02E506F00042E0FB03E54FF00A
:1004F0000006E1FB03569CF0000F18BF4EF0010E02
:10050000A4F1FF04B6F5007F64F5407404D25FEAFD
:100510004E0E6D4146EB060642EAC62141EA5551B0
:100520004FEAC52040EA5E504FEACE2EB4F1FD0CF2
:1005300088BFBCF5E06F1ED8BEF1004F08BF5FEA70
:10054000500E50F1000041EB045170BD06F0004622
:1005500046EA010140EA020081EA0301B4EB5C04CF
:10056000C2BFD4EB0C0541EA045170BD41F48011C7
:100570004FF0000E013C00F3AB8014F1360FDEBFEC
:10058000002001F0004170BDC4F10004203C35DAC8
:100590000C341BDC04F11404C4F1200500FA05F34B
:1005A00020FA04F001FA05F240EA020001F00042EC
:1005B00021F0004110EBD37021FA04F642EB060162
:1005C0005EEA430E08BF20EAD37070BDC4F10C048C
:1005D000C4F1200500FA04F320FA05F001FA04F250
:1005E00040EA020001F0004110EBD37041F100013C
:1005F0005EEA430E08BF20EAD37070BDC4F1200547
:1006000000FA05F24EEA020E20FA04F301FA05F2AE
:1006100043EA020321FA04F001F0004121FA04F256
:1006200020EA020000EBD3705EEA430E08BF20EA26
:10063000D37070BD94F0000F0FD101F00046400060
:1006400041EB010111F4801F08BF013CF7D041EAE2
:10065000060195F0000F18BF704703F000465200E6
:1006600043EB030313F4801F08BF013DF7D043EAB7
:100670000603704794EA0C0F0CEA135518BF95EA6D
:100680000C0F0CD050EA410618BF52EA4306D1D1F4
:1006900081EA030101F000414FF0000070BD50EA13
:1006A000410606BF1046194652EA430619D094EA9D
:1006B0000C0F02D150EA013613D195EA0C0F05D187
:1006C00052EA03361CBF104619460AD181EA0301DB
:1006D00001F0004141F0FE4141F470014FF0000093
:1006E00070BD41F0FE4141F4780170BD70B54FF02E
:1006F000FF0C4CF4E06C1CEA11541DBF1CEA1355AE
:1007000094EA0C0F95EA0C0F00F0A7F8A4EB05048F
:1007100081EA030E52EA03354FEA013100F0888086
:100720004FEA03334FF0805545EA131343EA12634F
:100730004FEA022245EA111545EA10654FEA002604
:100740000EF000419D4208BF964244F1FD0404F5BD
:10075000407402D25B084FEA3202B61A65EB030519
:100760005B084FEA32024FF480104FF4002CB6EBD6
:10077000020E75EB030E22BFB61A754640EA0C0056
:100780005B084FEA3202B6EB020E75EB030E22BF96
:10079000B61A754640EA5C005B084FEA3202B6EBD7
:1007A000020E75EB030E22BFB61A754640EA9C0096
:1007B0005B084FEA3202B6EB020E75EB030E22BF66
:1007C000B61A754640EADC0055EA060E18D04FEA24
:1007D000051545EA16754FEA06164FEAC30343EAC4
:1007E00052734FEAC2025FEA1C1CC0D111F4801F91
:1007F0000BD141EA00014FF000004FF0004CB6E78A
:1008000011F4801F04BF01430020B4F1FD0C88BF28
:10081000BCF5E06F3FF6AFAEB5EB030C04BFB6EB33
:10082000020C5FEA500C50F1000041EB045170BD26
:100830000EF0004E4EEA113114EB5C04C2BFD4EB53
:100840000C0541EA045170BD41F480114FF0000ED7
:10085000013C90E645EA060E8DE60CEA135594EA53
:100860000C0F08BF95EA0C0F3FF43BAF94EA0C0F56
:100870000AD150EA01347FF434AF95EA0C0F7FF4CB
:1008800025AF104619462CE795EA0C0F06D152EA1F
:1008900003353FF4FDAE1046194622E750EA410603
:1008A00018BF52EA43067FF4C5AE50EA41047FF414
:1008B0000DAF52EA43057FF4EBAE12E74FF0FF3C79
:1008C00006E000BF4FF0010C02E000BF4FF0010C4A
:1008D0004DF804CD4FEA410C7FEA6C5C4FEA430CC3
:1008E00018BF7FEA6C5C1BD001B050EA410C0CBF12
:1008F00052EA430C91EA030F02BF90EA020F002074
:10090000704710F1000F91EA030F58BF994208BFDA
:1009100090422CBFD8176FEAE37040F00100704797
:100920004FEA410C7FEA6C5C02D150EA013C07D1EE
:100930004FEA430C7FEA6C5CD6D152EA033CD3D039
:100940005DF8040B704700BF8446104662468C4633
:100950001946634600E000BF01B5FFF7B7FF002866
:1009600048BF10F1000F01BD4DF808EDFFF7F4FF8F
:100970000CBF012000205DF808FB00BF4DF808ED1A
:10098000FFF7EAFF34BF012000205DF808FB00BF3D
:100990004DF808EDFFF7E0FF94BF012000205DF85F
:1009A00008FB00BF4DF808EDFFF7CEFF94BF012014
:1009B00000205DF808FB00BF4DF808EDFFF7C4FF0D
:1009C00034BF012000205DF808FB00BF4FEA410C56
:1009D0007FEA6C5C02D150EA013C0AD14FEA430C39
:1009E0007FEA6C5C02D152EA033C02D14FF0000076
:1009F00070474FF0010070474FEA410212F50012B4
:100A000015D211D56FF47873B3EB625212D94FEA55
:100A1000C12343F0004343EA505311F0004F23FA3F
:100A200002F018BF404270474FF00000704750EA94
:100A3000013005D111F0004008BF6FF00040704751
:100A40004FF00000704700BF10B5054C237833B954
:100A5000044B13B10448AFF300800123237010BD91
:100A6000D401002000000000E454000808B5034B46
:100A70001BB103490348AFF3008008BD000000002C
:100A8000D8010020E454000808B5164A0023536139
:100A900093611361136053609360D3600121D1614E
:100AA00011620E2151621048104A02601422426005
:100AB0008360C3604FF4602202614FF48012426190
:100AC000037643768376C3760377437700F078FB2B
:100AD00020B90449044800F019FC08BD00F0ACF945
:100AE000F7E700BF3C020020F00100200064004056
:100AF00010B586B000230293039304930593026814
:100B00001E4B9A4201D006B010BD03F5D633DA6908
:100B100042F00072DA61DA6902F000720092009A23
:100B20009A6942F008029A619B6903F008030193F5
:100B3000019B4FF480730293114C02A9204600F0F0
:100B40000DFF4FF4007302930223039303230593D5
:100B500002A9204600F002FF0A4A536823F4C0436A
:100B600043F0E06343F480435360002211461420B5
:100B700000F0C2FE142000F0CFFEC4E70064004085
:100B8000000C01400000014030B589B000240494FD
:100B90000594069407941D4B9A6942F010029A61DD
:100BA0009A6902F010020092009A9A6942F02002BB
:100BB0009A619A6902F020020192019A9A6942F0C0
:100BC00008029A619A6902F008020292029A9A69EE
:100BD00042F004029A619B6903F004030393039BB0
:100BE0000B4D22464FF40051284600F0C5FF4FF44C
:100BF000005304930123059306940223079304A949
:100C0000284600F0ABFE09B030BD00BF0010024026
:100C10000010014008B50B480B4B03600B4B4360C1
:100C200000238360C3604FF48042026143618361AB
:100C3000C361036201F040F900B908BD00F0FCF89F
:100C4000FBE700BF7C02002000580040A0860100A6
:100C500010B586B0002302930393049305930268B2
:100C6000114B9A4201D006B010BD104CA36943F05D
:100C70000803A361A36903F008030093009B4FF4EA
:100C800040630293122303930323059302A90848A8
:100C900000F064FEE36943F48003E361E36903F475
:100CA00080030193019BDEE70058004000100240E2
:100CB000000C014000B585B000F0F0030001C0B2A7
:100CC00043F00C028DF80C2043F008038DF80D3032
:100CD00040F00C038DF80E3040F008008DF80F0046
:100CE00064230093042303AA4E21034801F0C2F9B0
:100CF00005B05DF804FB00BF7C02002000B585B0A4
:100D000000F0F0030001C0B243F00D028DF80C209A
:100D100043F009038DF80D3040F00D038DF80E30CF
:100D200040F009008DF80F0064230093042303AA08
:100D30004E21034801F09EF905B05DF804FB00BFA9
:100D40007C02002010B58020FFF7B4FF002403E0F0
:100D50002020FFF7D3FF0134452CF9DD10BD08B585
:100D600020B1012804D141F0C00101E041F080012F
:100D7000C8B2FFF79FFF08BD08B5322000F00CFA9B
:100D80003020FFF797FF052000F006FA3020FFF72C
:100D900091FF012000F000FA3020FFF78BFF0A20BE
:100DA00000F0FAF92020FFF785FF0A2000F0F4F99F
:100DB0002820FFF77FFF012000F0EEF90820FFF761
:100DC00079FF012000F0E8F90120FFF773FF01200F
:100DD00000F0E2F9012000F0DFF90620FFF76AFFDA
:100DE000012000F0D9F90C20FFF764FF08BD10B511
:100DF000044602E00134FFF781FF20780028F9D192
:100E000010BD000008B5074B074A0021074800F055
:100E100031FB074B01221A704FF40051054800F0D6
:100E2000B1FE08BD1802002020020020F0010020C1
:100E3000D80200200010014072B6FEE700B591B064
:100E40002822002106A802F08AFA002301930293C7
:100E5000039304930593012206924FF48033079382
:100E60000A9202220D920E934FF4E0130F9306A8FC
:100E700001F0D2F980B90F230193022102910023DE
:100E800003934FF480620492059301A801F0F6FBEE
:100E900020B911B05DF804FBFFF7CEFFFFF7CCFFE0
:100EA00000B58BB000F054F9FFF7C8FFFFF76CFEF8
:100EB000FFF7EAFDFFF7AEFEFFF75EFF0A2000F046
:100EC0006BF93B4C204600F0A7FA0221204600F0C7
:100ED00086FB3848FFF78BFF374B08221A61002248
:100EE0009A60DA6001221A60344B0A221A701422C6
:100EF0005A701E22DA7028221A7132225A713C224C
:100F00009A714622DA7150229A7036E02C4A06AB6A
:100F10001068516803C30898FFF766FA02460B464B
:100F20002849684602F0B8F900210846FFF717FF84
:100F30006846FFF75CFF0698FFF756FA02460B4635
:100F40002149684602F0A8F96846FFF750FF049867
:100F5000FFF74AFA02460B461C49684602F09CF924
:100F600000210120FFF7FBFE6846FFF740FF184B0A
:100F700000221A70642000F00FF9154B1B78002B2B
:100F8000F8D0FFF7DFFE134B1B68012BBED0042BFC
:100F900007D0002BBFD10A4A08AB1068516803C3C1
:100FA000B9E7074A04AB1068516803C3B3E700BF51
:100FB000F00100200055000864020020D00200204B
:100FC00018020020105500081C550008285500087C
:100FD000D80200202002002082B00E4B9A6942F015
:100FE00001029A619A6902F001020092009ADA699C
:100FF00042F08052DA61DB6903F080530193019B78
:10100000054A536823F0E06343F00073536002B075
:10101000704700BF0010024000000140FEE7FEE7FD
:10102000FEE7FEE7FEE770477047704708B500F03F
:10103000A1F808BD08B5024800F0EFFA08BD00BFEE
:10104000F00100200120704708B502F0DBF91623FB
:1010500003604FF0FF3008BD08B54FF0FF31FFF7D8
:10106000F3FFFEE770B50C461646002506E0AFF329
:101070000080214601F8010B01350C46B542F6DB34
:10108000304670BD70B50C461646002504E014F8D5
:10109000010BAFF300800135B542F8DB304670BD7F
:1010A0004FF0FF3070474FF400534B600020704703
:1010B000012070470020704710B503460C4A0D49C7
:1010C0000D48006840B10C4800680344521A93422E
:1010D00006D8094A136010BD0748084C0460F2E7BF
:1010E00002F090F90C2303604FF0FF30F3E700BFEC
:1010F0000050002000040000DC020020300400202A
:101100007047000010B504460E4B1A784FF47A73FE
:10111000B3FBF2F30C4A1068B0FBF3F000F00AFCEA
:1011200068B90F2C01D901200AE0002221464FF0B6
:10113000FF3000F0E1FB054B1C60002000E00120C7
:1011400010BD00BF040000200000002008000020A7
:1011500008B5074A136843F010031360032000F03A
:10116000B9FB0F20FFF7CEFFFFF736FF002008BDC9
:1011700000200240034A1168034B1B780B441360A4
:10118000704700BFE002002004000020014B1868F7
:10119000704700BFE002002038B50446FFF7F6FFB5
:1011A0000546B4F1FF3F02D0044B1B781C44FFF707
:1011B000EDFF401BA042FAD338BD00BF0400002061
:1011C000002800F0A18038B5044690F82030D3B153
:1011D0002268136843F001031360FFF7D7FF054649
:1011E00023685A6812F0010F10D1FFF7CFFF401BA0
:1011F0000A28F5D9636A43F400336362052384F84F
:101200002030012038BDFFF773FCE1E71A6822F0B7
:1012100002021A60FFF7BAFF054623685A6812F007
:10122000020F0DD0FFF7B2FF401B0A28F5D9636A01
:1012300043F400336362052384F820300120E1E7A2
:10124000227E012A3DD01A6822F080021A60637E55
:10125000012B3BD02268136823F040031360A37E68
:10126000012B39D02268136823F020031360E37E3A
:10127000012B37D02268136843F010031360237FDB
:10128000012B35D02268136823F008031360637FB5
:10129000012B33D02268136823F004031360A36882
:1012A000E268134322691343626913436268013A97
:1012B00021681343CB6100206062012384F8203051
:1012C000A0E71A6842F080021A60C0E7226813683B
:1012D00043F040031360C2E72268136843F0200321
:1012E0001360C4E72268136823F010031360C6E795
:1012F0002268136843F008031360C8E72268136884
:1013000043F004031360CAE701207047026890F8B5
:101310002030013BDBB2012B05D9436A43F4802323
:1013200043620120704710B5D2F8003243F0010348
:10133000C2F800324B6903F01F03012000FA03F3E7
:10134000D2F81C026FEA030C20EA0300C2F81C0268
:10135000C869C0B9D2F80C020CEA0000C2F80C024D
:101360008C884869D1F80CE044EA0E44483042F8D1
:1013700030400C884869D1F808E044EA0E4448300F
:1013800002EBC0004460C86901281AD0886988BB94
:10139000D2F804020CEA0000C2F80402086978BB23
:1013A000D2F814020CEA0000C2F81402096A0129FA
:1013B0002CD0D2F8003223F00103C2F80032002012
:1013C00010BDD2F80C021843C2F80C028C88486990
:1013D000D1F800E044EA0E44483042F830408C89AD
:1013E0004869D1F808E044EA0E44483002EBC000F6
:1013F0004460CBE7D2F804021843C2F80402CDE7F8
:10140000D2F814021843C2F81402CFE7D2F81C1223
:101410000B43C2F81C32CCE770B5044690F820505C
:10142000EDB2012D06D0436A43F400234362012547
:10143000284670BD022380F820300268136823F02C
:1014400001031360FFF7A2FE064623685B6813F0F2
:10145000010F0CD0FFF79AFE831B0A2BF5D9636AA4
:1014600043F400336362052384F82030E0E700256D
:101470006562DDE790F820C00CF1FF3C5FFA8CFC60
:10148000BCF1010F00F2A58030B451B90468E468E2
:1014900014F0030F10D1436A43F400134362012098
:1014A0007EE00468246914F0030F05D1436A43F415
:1014B00000134362012073E0056801F11B0424015D
:1014C0002C5904F004049460002C6BD1056801F1E0
:1014D0001B0424012C59640D1460046801F11B0CD9
:1014E0004FEA0C1C54F80C4004F00204D460046869
:1014F000A444DCF8045015F0080F5BD008241461F4
:10150000046801F11B0C04EB0C146468C4F3072499
:101510009461046804EB0C146468240C5461026840
:1015200002EB0112D2F8B8211A70026802EB011224
:10153000D2F8B821C2F307225A70026802EB0112F6
:10154000D2F8B821C2F307429A70026802EB011286
:10155000D2F8B821120EDA70026802EB0112D2F84A
:10156000BC211A71026802EB0112D2F8BC21C2F34D
:1015700007225A71026802EB0112D2F8BC21C2F3B1
:1015800007429A71026802EB0112D2F8BC21120ED6
:10159000DA71C1B90268D36843F02003D360002038
:1015A00030BC7047056801F11B0424012C59E40884
:1015B000546092E701F11B0504EB0514646804F024
:1015C0000F0414619CE70268136943F02003136160
:1015D000E5E7436A43F4802343620120704790F8B3
:1015E0002030013BDBB2012B05D9436A43F4802351
:1015F000436201207047026853690B435361002026
:101600007047704770477047704770477047704722
:10161000704770477047704770472DE9F84F05468F
:1016200003685C69D3F804809F68D3F80CA0D3F8F2
:101630001090D3F818B014F001063BD017F0010653
:1016400016D001229A6017F0020F08D117F0040F8C
:101650000CD117F0080606D04FF4805608E0FFF7CB
:10166000D0FF002604E0FFF7CFFF01E04FF4006653
:1016700017F4807F0DD02B684FF480729A6017F4B6
:10168000007F40F0968017F4806F00F0968046F45B
:10169000005617F4803F0DD02B684FF480329A60CB
:1016A00017F4003F40F0938017F4802F00F09380F0
:1016B00046F4004614F0080F07D01AF0100F04D0BB
:1016C00046F400762B681022DA6014F0040F03D081
:1016D0001AF0080F40F0898014F0020F05D02B6833
:1016E000DB6813F0030F40F0878014F0400F07D041
:1016F00019F0100F04D046F480662B6810221A618E
:1017000014F0200F02D019F0080F79D114F0100F47
:1017100004D02B681B6913F0030F78D114F4003F39
:1017200002D018F0100F76D114F4803F02D018F0D8
:10173000080F77D114F4004F37D018F0040F31D0D0
:1017400014F4807F04D01BF0010F01D046F0010695
:1017500014F4007F04D01BF0020F01D046F0020603
:1017600014F4806F04D01BF0040F01D046F004067F
:1017700014F4006F16D01BF0700B13D0BBF1400FA8
:1017800066D056D8BBF1200F5CD0BBF1300F5CD0D7
:10179000BBF1100F01D146F008062A68936923F0C7
:1017A000700393612B6804225A60002E56D1BDE865
:1017B000F88F2846FFF726FF6BE717F4006F02D07B
:1017C00046F4804665E72846FFF71FFF61E7284695
:1017D000FFF719FF6EE717F4002F02D046F48036AA
:1017E00068E72846FFF712FF64E72B680822DA60F3
:1017F0002846FFF70CFF6FE72846FFF703FB74E767
:101800002B6808221A612846FFF703FF7EE7284667
:10181000FFF7FEFE82E72B6810225A602846FFF78A
:10182000F9FE81E72B6808225A602846FFF7F3FE8D
:1018300080E7BBF1500F0ED0BBF1600FADD146F485
:101840008076AAE746F01006A7E746F02006A4E750
:1018500046F04006A1E746F080069EE76B6A3343F8
:101860006B622846FFF7D8FEA1E70000002808DBDE
:101870000901C9B200F1604000F5614080F8001331
:10188000704700F00F000901C9B2014B19547047AD
:1018900014ED00E000B500F00700C0F1070CBCF14A
:1018A000040F28BF4FF0040C031D062B0FD9C31ED5
:1018B0004FF0FF3E0EFA0CF021EA000199400EFABB
:1018C00003FE22EA0E0241EA02005DF804FB002357
:1018D000EEE70000074AD36823F4E0631B041B0C07
:1018E000000200F4E060034343F0BF6343F40033BD
:1018F000D360704700ED00E010B50446054BD86892
:10190000C0F30220FFF7C6FF01462046FFF7AEFFF7
:1019100010BD00BF00ED00E0002807DB00F01F0253
:10192000400901239340024A42F82030704700BF2B
:1019300000E100E00138B0F1807F0BD24FF0E023EE
:101940005861054AF02182F823100020986107228F
:101950001A6170470120704700ED00E070B582B059
:101960000024A446A1E07E4DAB4214D00CD8A5F5CE
:101970008015AB420FD005F57025AB420BD0A5F515
:101980008015AB4210D106E0764DAB4203D005F591
:101990008035AB4208D18B68002B50D0012B49D049
:1019A0004261082400E0CC68BEF1FF0F49D806462A
:1019B0004FEA8C0233680F25954023EA050304FAA9
:1019C00002F2134333604B6813F0805F6BD0664BB9
:1019D0009A6942F001029A619B6903F00103019345
:1019E000019B4FEA9C02951C604B53F825600CF05C
:1019F0000305AD000F23AB4026EA03065C4B98427B
:101A000026D003F58063984200F08C8003F5806354
:101A1000984200F0898003F58063984216D0042331
:101A200017E0CC680434BFE7CC680834BCE7CC6866
:101A30000C34B9E702610824B6E70024B4E70424B3
:101A4000B2E7061DACF108029200B3E7032300E001
:101A50000023AB4033430232444D45F822304B68FB
:101A600013F4801F62D0434A936843EA0E039360E5
:101A70004B6813F4001F5FD03E4AD36843EA0E035D
:101A8000D3604B6813F4003F5CD03A4A536843EA92
:101A90000E0353604B6813F4803F59D0354A1368E6
:101AA00043EA0E0313600CF1010C0B6833FA0CF2DD
:101AB00054D0012202FA0CF203EA020E32EA0303C6
:101AC000F1D14B68122B3FF64EAF122B3FF66CAFA5
:101AD00001A555F823F000BF97190008A7190008C1
:101AE000291A00083B1A0008A9190008A9190008BA
:101AF000A9190008A9190008A9190008A9190008BE
:101B0000A9190008A9190008A9190008A9190008AD
:101B1000A9190008A9190008A9190008231A000822
:101B20002F1A0008012394E7022392E7114A9368D1
:101B300023EA0E0393609BE70E4AD36823EA0E0361
:101B4000D3609EE70B4A536823EA0E035360A1E774
:101B5000084A136823EA0E031360A4E702B070BDBD
:101B6000000022100000311000100240000001406F
:101B700000080140000401400AB1016170470904F6
:101B800001617047C36801EA030221EA030141EAE7
:101B900002410161704703685A6912F4806F01D1F4
:101BA000002070476FF480625A6100230363202293
:101BB00080F83D2080F83E30026C42F0040202645E
:101BC00080F83C30012070472DE9F04106460C4674
:101BD000174698463BE0FFF7D9FA069BC01A4045E6
:101BE00002D8B8F1000F32D1012D18D033689B69AB
:101BF00024EA03039BB2B3FA83F35B099F4226D125
:101C000000233363202286F83D2086F83E30326C74
:101C100042F02002326486F83C30012027E033682D
:101C20005B6924EA03039BB2B3FA83F35B09E5E73C
:101C300033685B6924EA030C1FFA8CFCBCFA8CFC49
:101C40004FEA5C1C674511D1B8F1FF3FC3D1C4F323
:101C50000745012DECD033689B6924EA030C1FFA79
:101C60008CFCBCFA8CFC4FEA5C1CEBE70020BDE866
:101C7000F0812DE9F84305460E469046994653E01B
:101C80001A6842F400721A602B686FF480625A611D
:101C900000232B63202285F83D2085F83E302A6CF6
:101CA00042F004022A6485F83C3001204AE0FFF744
:101CB0006DFAA0EB0900404502D8B8F1000F33D10E
:101CC000012F17D02B689B6926EA03039BB2003BC8
:101CD00018BF012343B300232B63202285F83D2046
:101CE00085F83E302A6C42F020022A6485F83C30A8
:101CF000012027E02B685B6926EA03039BB2003BC7
:101D000018BF0123E6E72B689C6926EA0404A4B205
:101D1000003C18BF0124A4B12B685A6912F4806FEB
:101D2000AED1B8F1FF3FC2D1C6F30747012FEAD1C8
:101D30002B685C6926EA0404A4B2003C18BF0124A5
:101D4000E9E70020BDE8F883F0B583B004460D460E
:101D500016461F46C36A082B0DD0012B0BD013F576
:101D6000803F08D0036B122B0AD10268136843F43A
:101D70008073136004E02268136843F48073136077
:101D80000097334600224FF001112046FFF71CFF59
:101D900080B92369B3F5804F16D1236805F0FE059D
:101DA0001D613B46324613492046FFF762FFF8B9F2
:101DB00003B0F0BD23681B6813F4807F02D04FF49A
:101DC000007323640320F3E7EB11226803F006039A
:101DD00043F0F00313613B46324607492046FFF7C4
:101DE00048FF18B92368EDB21D61DAE70120DFE78B
:101DF0000120DDE7020001000800010070B5044683
:101E00000D46164623685B6913F0800F21D12046EA
:101E1000FFF7C1FEF8B9B5F1FF3FF3D0FFF7B6F910
:101E2000801BA84201D8002DECD123685B6913F018
:101E3000800FE7D100232363202284F83D2084F81B
:101E40003E30226C42F02002226484F83C300120B3
:101E500000E0002070BD0120FCE770B504460D468F
:101E6000164623685B6913F0040F21D12046FFF763
:101E700092FEF8B9B5F1FF3FF3D0FFF787F9801B69
:101E8000A84201D8002DECD123685B6913F0040F40
:101E9000E7D100232363202284F83D2084F83E30DC
:101EA000226C42F02002226484F83C30012000E0E1
:101EB000002070BD0120FCE7002800F0CC8070B548
:101EC000044690F83D30002B77D0242384F83D3031
:101ED0002268136823F0010313602268136843F437
:101EE000004313602268136823F40043136000F07A
:101EF00081FC62685A4B9A4264D85A4B98428CBF14
:101F000000230123002B40F0A8805749A1FB00319A
:101F10008B0C25686A6822F03F0242EA91426A60AF
:101F200021680A6A22F03F0266684D4DAE424FD8E2
:101F3000013313430B622168CA6922F44F4222F035
:101F4000FF026568464B9D424CD8431E6D00B3FBB3
:101F5000F5F3013340F6FC70034278D0C3F30B0372
:101F60001A43CA6121680B6823F0C003E269206A42
:101F7000024313430B6021688B6823F4034323F06F
:101F8000FF032269E068024313438B602168CB683A
:101F900023F0FF036269A06902431343CB60226808
:101FA000136843F00103136000202064202384F8A9
:101FB0003D30206384F83E0070BD80F83C30FEF771
:101FC00047FE82E7294B98428CBF0023012399E703
:101FD0004FF4967505FB03F3254DA5FB03539B09B1
:101FE0000133A6E7A668BEB9431E05EB450CB3FB5B
:101FF000FCF30133C3F30B03B3FA83F35B0943BB75
:10200000C6B9431E05EB4505B3FBF5F30133C3F336
:102010000B0343F40043A3E7431E05EB850C0CEBD5
:102020008C0CB3FBFCF30133C3F30B03B3FA83F360
:102030005B09E4E7431E05EB850505EB8505B3FB6E
:10204000F5F30133C3F30B0343F4404388E7042360
:1020500086E7012384E7012070470120ACE700BF39
:10206000A08601007F841E0083DE1B43FF083D0025
:10207000D34D62102DE9F04385B004460F469146DA
:1020800098460C9EFFF782F8054694F83D00C0B2D2
:10209000202804D00227384605B0BDE8F08300951B
:1020A000192301224F492046FFF78EFD002840F0FA
:1020B000928094F83C30012B00F08F80012384F84B
:1020C0003C3023681A6812F0010F03D11A6842F0FD
:1020D00001021A602268136823F40063136021234D
:1020E00084F83D30102384F83E3000232364C4F884
:1020F0002490A4F82A80638D23853B4BE3622B4612
:10210000324639462046FFF71FFE0746002866D1B3
:102110000023039323685A6903929B690393039BEB
:1021200011E0236C042B01D00127B4E72268136867
:1021300043F400731360F7E72A4631462046FFF761
:102140008CFE00282ED1238D002B36D02A46314616
:102150002046FFF753FE0028E3D1626A2368127815
:102160001A61606A431C6362618D89B2013989B268
:102170006185238D013B9BB223852268516911F053
:10218000040FD9D0002BD7D043781361636A013391
:102190006362638D9BB2013B9BB26385238D013BE0
:1021A0002385C9E7236C042B01D0012773E722683C
:1021B000136843F400731360F7E72268136843F46D
:1021C00000731360202384F83D30002384F83E30F0
:1021D00084F83C305FE702275DE702275BE70127D1
:1021E00059E700BF020010000000FFFF82B0084B5B
:1021F0001B68084AA2FB03235B0A00FB03F301935D
:1022000000BF019B5A1E0192002BF9D102B070470A
:1022100000000020D34D6210002800F0F18170B55D
:1022200082B00446036813F0010F2CD0994B5B6811
:1022300003F00C03042B1DD0964B5B6803F00C03DA
:10224000082B12D06368B3F5803F41D0002B55D1E5
:1022500003F1804303F504331A6822F480321A60D4
:102260001A6822F480221A6037E08A4B5B6813F404
:10227000803FE7D0874B1B6813F4003F03D06368AF
:10228000002B00F0BF81236813F0020F75D0814B43
:102290005B6813F00C0F5FD07E4B5B6803F00C03A0
:1022A000082B54D02369002B00F08A807A4B01223E
:1022B0001A60FEF76BFF0546764B1B6813F0020FA2
:1022C00075D1FEF763FF401B0228F5D903209EE17C
:1022D000704A136843F480331360636843B3FEF7B6
:1022E00055FF05466B4B1B6813F4003FCBD1FEF73F
:1022F0004DFF401B6428F5D9032088E1B3F5A02FDA
:1023000009D0644B1A6822F480321A601A6822F4E9
:1023100080221A60E1E703F18043A3F53C331A6899
:1023200042F480221A601A6842F480321A60D4E7BC
:10233000FEF72CFF0546574B1B6813F4003FA2D055
:10234000FEF724FF401B6428F5D903205FE1514BC1
:102350005B6813F4803FA5D14E4B1B6813F0020F4E
:1023600003D02369012B40F04F814A4A136823F0C0
:10237000F803616943EAC1031360236813F0080F8F
:1023800033D0A369002B5CD0434B0122C3F88024D7
:10239000FEF7FCFE05463F4B5B6A13F0020F21D1AE
:1023A000FEF7F4FE401B0228F5D903202FE1394A3D
:1023B000136823F0F803616943EAC1031360DCE7A3
:1023C000354B00221A60FEF7E1FE0546314B1B68D3
:1023D00013F0020FD1D0FEF7D9FE401B0228F5D929
:1023E000032014E10120FFF701FF236813F0040F1D
:1023F00000F09680274BDB6913F0805F34D1254BCA
:10240000DA6942F08052DA61DB6903F080530193AC
:10241000019B0125214B1B6813F4807F26D0E368C4
:10242000012B3DD0002B53D103F1804303F504333E
:102430001A6A22F001021A621A6A22F004021A626F
:1024400033E0154B0022C3F88024FEF79FFE0546BB
:10245000104B5B6A13F0020FC7D0FEF797FE401BCC
:102460000228F5D90320D2E00025D3E70B4A1368F0
:1024700043F480731360FEF789FE0646074B1B6822
:1024800013F4807FCBD1FEF781FE801B6428F5D941
:102490000320BCE0001002400000424200700040F7
:1024A0005F4A136A43F001031362E36833B3FEF734
:1024B0006DFE06465A4B1B6A13F0020F2FD1FEF732
:1024C00065FE801B41F288339842F3D903209EE0D9
:1024D000052B09D0524B1A6A22F001021A621A6ABD
:1024E00022F004021A62E0E74D4B1A6A42F004023D
:1024F0001A621A6A42F001021A62D6E7FEF746FE35
:102500000646474B1B6A13F0020F08D0FEF73EFE4B
:10251000801B41F288339842F3D9032077E0E5B974
:10252000E369002B72D03E4A526802F00C02082A7E
:1025300056D0022B17D03B4B00221A66FEF726FE20
:102540000446374B1B6813F0007F47D0FEF71EFE92
:10255000001B0228F5D9032059E0314AD36923F042
:102560008053D361DCE72F4B00221A66FEF70EFE84
:1025700005462B4B1B6813F0007F06D0FEF706FEC6
:10258000401B0228F5D9032041E0236AB3F5803FC0
:102590001AD023494B6823F47413226A606A0243F9
:1025A00013434B601F4B01221A66FEF7EFFD0446F2
:1025B0001B4B1B6813F0007F0ED1FEF7E7FD001BDD
:1025C0000228F5D9032022E0154A536823F400338A
:1025D000A1680B435360DCE7002018E0002016E000
:1025E000012B16D00E4B5B6803F48031226A9142B6
:1025F00011D103F47013626A93420ED1002006E0F9
:1026000001207047012002E0012000E0002002B01C
:1026100070BD0120FBE70120F9E70120F7E700BFCB
:1026200000100240000042420F4B5B6803F00C02B6
:10263000082A01D00D487047C3F383420C49885CD7
:1026400013F4803F0BD0084B5B68C3F34043094A47
:10265000D35C064A02FB00F0B0FBF3F07047064B78
:1026600003FB00F0704700BF0010024000127A0028
:10267000505500084C55000800093D00002800F0A6
:10268000A08070B50D460446524B1B6803F007034B
:102690008B420BD24F4A136823F007030B4313609E
:1026A000136803F007038B4240F08D80236813F01A
:1026B000020F17D013F0040F04D0474A536843F4B5
:1026C000E0635360236813F0080F04D0424A536854
:1026D00043F460535360404A536823F0F003A16809
:1026E0000B435360236813F0010F31D06368012B53
:1026F00020D0022B25D0384A126812F0020F64D085
:1027000035494A6822F0030213434B60FEF73EFD51
:102710000646314B5B6803F00C036268B3EB820F33
:1027200016D0FEF733FD801B41F288339842F0D972
:10273000032045E0284A126812F4003FE0D101204E
:102740003EE0254A126812F0007FD9D1012037E01F
:10275000204B1B6803F00703AB420AD91D4A1368DC
:1027600023F007032B431360136803F00703AB4206
:102770002DD1236813F0040F06D0174A536823F4B1
:10278000E063E1680B435360236813F0080F07D040
:10279000114A536823F46053216943EAC10353602B
:1027A000FFF742FF0C4B5B68C3F303130B4AD35C88
:1027B000D8400B4B18600B4B1868FEF7A3FC0020A9
:1027C00070BD012070470120FAE70120F8E70120E1
:1027D000F6E700BF00200240001002403C55000810
:1027E0000000002008000020014B1868704700BF5F
:1027F0000000002008B5FFF7F7FF044B5B68C3F348
:102800000223034AD35CD84008BD00BF0010024039
:1028100034550008FEF774FC0B480C490C4A0023A1
:1028200002E0D458C4500433C4188C42F9D3094A86
:10283000094C002301E013600432A242FBD300F0F4
:10284000E7FDFEF72DFB704700000020D4010020BB
:102850001C590008D401002030040020FEE7002BA2
:102860002DE9F0471D46BBBF03F100431D46002381
:102870002D2388B01446B8BF1446129A109E1370C8
:10288000149BDDF84CA023F02008B8F1460F05D0CA
:10289000B8F1450F00D10136022300E0032307AA57
:1028A000049206AACDE902A2CDE9003622462B46C3
:1028B00000F06EFEB8F1470F074619D1119BDB07F8
:1028C0000ED500EB06090022002320462946FEF71C
:1028D0004BF808B1CDF81C903022079B4B451ED316
:1028E0003846079B159ADB1B136008B0BDE8F087DC
:1028F000B8F1460F00EB0609E5D10378302B0AD179
:102900000022002320462946FEF72EF818B9C6F10A
:102910000106CAF80060DAF800309944D3E7591C80
:1029200007911A70D9E7F7B50029B6BF2D232B23DD
:10293000494209290270437029DD0DF107031D4644
:102940000A27B1FBF7F61A4607FB1614303402F8D3
:10295000014C0C46632C314603F1FF33F1DC30317E
:10296000941E03F8011C2346411CAB420AD30DF10F
:1029700009039B1AAC4288BF002302330344181A90
:1029800003B0F0BD13F8016B01F8016FEDE73023E0
:1029900030318370C170031DF1E700002DE9F04F65
:1029A00091B00C46DDF8688016461F46054600F0DB
:1029B000DFFC036818460893FDF7AAFB00230E937B
:1029C000D8F800300990073323F0070303F1080219
:1029D00094F818A0D4F800B0C8F80020D3E9008912
:1029E00029F000430B93CDF828804FF0FF32DDE94A
:1029F0000A01C4E912899C4BFDF7E8FF70BBDDE9D1
:102A00000A014FF0FF32984BFDF7C2FF30BB0022A6
:102A1000002340464946FDF7B1FF10B12D2384F84D
:102A20004330924A924BBAF1470F8CBF904698467A
:102A300003234FF0000923612BF004032360334686
:102A40002146284600970FAA00F0D4F9013040F043
:102A500090804FF0FF3011B0BDE8F08F42464B46FA
:102A600040464946FDF7B2FF48B14B46002BB8BF80
:102A70002D23804AB8BF84F843307F4BD3E7636887
:102A80000AF0DF015A1C3FD10623636000224BF499
:102A90008063236006920EAACDE904A20DAA0392D8
:102AA0000DF13302CDE901326368424600932846B6
:102AB0004B460A91FFF7D3FE0A99804647290D99A4
:102AC00028D1C81C02DB6368994240DDAAF1020AE2
:102AD0005FFA8AFA5246013904F150000D91FFF76E
:102AE00022FF0E9A81461318012A236102DC226814
:102AF000D20701D5013323619DF83330002B9ED0DE
:102B00002D2384F843309AE74729BFD1002BBDD14C
:102B10000123BAE7BAF1650FDCD9BAF1660F18D113
:102B2000002963680BDD216113B92268D00702D543
:102B300001330B4423614FF00009A165DCE713B9B1
:102B40002268D20701D50233F4E70123F2E74FF000
:102B5000670A0E9B994205DB23682161D807EAD5F5
:102B60004B1CE7E70029CCBF0122C1F1020213444C
:102B7000E0E723685A0507D42369424631462846D0
:102B8000B84701302BD164E7BAF1650F40F2DC8021
:102B9000D4E9120100220023FDF7E6FE002833D01D
:102BA000012331462846354AB84701303FF451AF3A
:102BB000DDE90D38434502DB2368D8070FD5DDE991
:102BC000082331462846B84701303FF442AF4FF062
:102BD000000908F1FF3804F11A0AC84509DC236826
:102BE0009B0700F10281E0680F9B9842B8BF18462E
:102BF00031E70123524631462846B84701303FF4B9
:102C000028AF09F10109E8E70D9B002B38DC01230F
:102C100031462846194AB84701303FF41AAFDDE97A
:102C20000D3959EA030302D12368D907D7D5DDE965
:102C3000082331462846B84701303FF40AAF4FF029
:102C4000000A04F11A0B0D9B5B42534501DC4B4615
:102C500093E701235A4631462846B84701303FF4EE
:102C6000F8AE0AF1010AEEE7FFFFEF7F64550008B6
:102C7000605500086C55000868550008705500083C
:102C8000A36DDDF838A05345A8BF5346002B9946E5
:102C900036DC4FF0000B29EAE97904F11A02A36D42
:102CA0000A93A3EB09035B4531DC0D9B9A453ADCA3
:102CB0002368DA0737D40D9BAAEB03090A9BAAEB1A
:102CC00003039945A8BF9946B9F1000F33DC4FF0D3
:102CD000000829EAE97904F11A0B0D9BAAEB03031A
:102CE000A3EB090343457FF77AAF01235A463146E8
:102CF0002846B84701303FF4ACAE08F10108ECE7D4
:102D0000424631462846B8470130C2D1A1E60123E8
:102D1000314628460A92B84701303FF49AAE0A9AE3
:102D20000BF1010BBBE73146DDE908232846B84724
:102D30000130C0D18DE60A9A4B46314628464244BE
:102D4000B8470130C3D184E6DDF838A0BAF1010FED
:102D500001DCDB0736D50123424631462846B84719
:102D600001303FF476AEDDE9082331462846B84706
:102D700001303FF46EAED4E91201002200230AF1C3
:102D8000FF3AFDF7F1FDC0B9534608F101023146A3
:102D90002846B84701300CD15BE601235A4631463C
:102DA0002846B84701303FF454AE08F10108D04539
:102DB000F3DB4B4604F15002E0E64FF0000804F16B
:102DC0001A0BF4E701234246E1E701234A46314664
:102DD0002846B84701303FF43CAE08F10108E368EB
:102DE0000F995B1A4345F0DCFDE64FF0000804F153
:102DF0001909F4E72DE9F047164698468A680B69E9
:102E000007469342B8BF1346336091F843200C46FF
:102E1000DDF820900AB1013333602368990642BF80
:102E2000336802333360256815F0060506D104F1D6
:102E3000190AE36832689B1AAB422BDC94F84330E2
:102E40002268003B18BF0123920630D44146384621
:102E500004F14302C847013023D02368226903F0FC
:102E60000603042B14BF002533684FF0000608BF8B
:102E7000E56804F11A0408BFED1A54F8123C08BFC3
:102E800025EAE5759342C4BF9B1AED18B5421AD1E5
:102E9000002008E00123524641463846C847013029
:102EA00003D14FF0FF30BDE8F0870135C1E7302096
:102EB000E11881F843005A1C94F84510224402336B
:102EC00082F84310C2E70123224641463846C847EC
:102ED0000130E6D00136D9E72DE9FF470F7E914654
:102EE000782F80460C469A460C9E01F1430207D883
:102EF000622F0AD8002F00F0D180582F00F0B88040
:102F000004F1420684F842703AE0A7F16303152BFE
:102F1000F6D801A151F823F0712F0008852F000881
:102F2000012F0008012F0008012F0008012F0008C1
:102F3000852F0008012F0008012F0008012F00082D
:102F4000012F000883300008AF2F00083D30000833
:102F5000012F0008012F0008A5300008012F0008EC
:102F6000AF2F0008012F0008012F0008453000088E
:102F700033681A1D1B68326004F1420684F842303F
:102F800001239CE033682068191D3160060601D5D5
:102F90001D6803E04506FBD5B3F90050002D03DAA8
:102FA0002D236D4284F843300A23584811E02168EC
:102FB0003368080653F8045B02D4490648BFADB233
:102FC0006F2F336014BF0A2308235048002184F870
:102FD00043106668002EA66005DB21682E4321F0B1
:102FE000040121604BD01646B5FBF3F103FB1157EA
:102FF000C75D06F8017D2F46BB420D46F4D9082B6C
:103000000BD12368DF0708D5236961689942DEBFC9
:10301000302306F8013C06F1FF36921B22614B4635
:1030200021464046CDF800A003AAFFF7E3FE013099
:103030004AD14FF0FF3004B0BDE8F087236843F079
:10304000200323607827324884F84570236831686C
:103050001F0651F8045B02D45F0648BFADB2316071
:10306000D90744BF43F0200323601DB11023ADE70F
:103070002648E9E7236823F020032360F6E7164695
:10308000BDE733682568181D616930602E061B682E
:1030900001D5196002E06806FBD5198000231646A9
:1030A0002361BCE7336800211A1D32601E68626824
:1030B000304600F0D4F908B1801B6060636823617A
:1030C000002384F84330AAE7324649464046236944
:1030D000D0470130ADD023689B0713D4E068039B31
:1030E0009842B8BF1846A6E70123324649464046F3
:1030F000D04701309DD00135E36803995B1AAB429C
:10310000F2DCEBE7002504F11906F5E7725500083B
:1031100083550008002310B50446C0E90033C0E918
:103120000433836081814366C2818361194608222A
:103130005C3000F014F90D4B246263620C4BA36207
:103140000C4BE3620C4B23630C4B9C4206D003F107
:103150006802944202D0D0339C4205D104F1580059
:10316000BDE8104000F078B910BD00BFD9320008AA
:10317000FB3200083333000857330008E402002014
:10318000024A0349034800F069B800BF0C00002060
:10319000AD4D00081C00002041680C4B10B5994251
:1031A000044601D001F002FEA168094B994202D009
:1031B000204601F0FBFDE168064B994204D0204611
:1031C000BDE8104001F0F2BD10BD00BFE4020020D8
:1031D0004C030020B403002010B50B4B0B4C0C4AE1
:1031E00020461A6004210022FFF794FF04F16800D2
:1031F00001220921FFF78EFF04F1D0000222BDE871
:1032000010401221FFF786BF1C040020E4020020BA
:1032100081310008014800F020B900BF25040020DA
:10322000014800F01BB900BF2504002010B504467A
:10323000FFF7F0FF236A1BB1BDE81040FFF7F0BFB6
:10324000044B2362044B1B68002BF5D1FFF7C4FF2E
:10325000F2E700BF993100081C0400202DE9F84373
:103260000746884614460026D4E90195B9F10109BC
:1032700005D52468002CF7D13046BDE8F883AB892A
:10328000012B07D9B5F90E30013303D02946384652
:10329000C04706436835E9E70EB46FF0004100B55A
:1032A0009CB01DAB02900690079104910848094913
:1032B00053F8042B0591006802A9019301F0FAFB71
:1032C0000022029B1A701CB05DF804EB03B070473B
:1032D000180000200802FFFF10B50C46B1F90E10CF
:1032E00000F06CF80028ABBF636DA3891B1823F4B2
:1032F0008053ACBF6365A38110BD2DE9F0411F462B
:103300008B890546DB050C46164605D502230022AF
:10331000B1F90E1000F040F8A389324623F480532F
:10332000A38128463B46B4F90E10BDE8F04100F0F9
:1033300057B810B50C46B1F90E1000F02DF8431C2B
:10334000A38915BF606523F4805343F48053A381A0
:1033500018BFA38110BDB1F90E1000F00DB80346DF
:103360000244934200D1704703F8011BF9E70000C3
:10337000004870475801002038B50023054D044629
:1033800008462B60FDF78CFE431C02D12B6803B16D
:10339000236038BD2004002038B504460846114695
:1033A0000022054D2A601A46FDF784FE431C02D117
:1033B0002B6803B1236038BD2004002038B50446D3
:1033C000084611460022054D2A601A46FDF74AFEBE
:1033D000431C02D12B6803B1236038BD20040020B8
:1033E00038B50446084611460022054D2A601A46A3
:1033F000FDF748FE431C02D12B6803B1236038BDA2
:1034000020040020014B1868704700BF18000020FE
:1034100070B500260C4D0D4C641BA410A64209D1BA
:1034200002F060F800260A4D0A4C641BA410A64264
:1034300005D170BD55F8043B98470136EEE755F8C5
:10344000043B98470136F2E7145900081459000864
:103450001459000818590008704770477047034610
:1034600010B5C9B202449342184601D1002003E0CE
:10347000047801338C42F6D110BD2DE9F74F036972
:103480000C690746A3427EDB013CA30000F1140552
:1034900001F11408009305EB8403019358F82430DC
:1034A00055F8242001339A42B2FBF3F608EB840965
:1034B0002ED34FF0000AC446AE46D3465CF8043B18
:1034C00098B206FB00A01B0C020C06FB0323DEF8DF
:1034D000002080B292B2121A5A44DEF800004FEA7D
:1034E000134A9BB2C3EB224303EB104392B242EA6E
:1034F0000342E1454FEA234B4EF8042BDED2009BFA
:10350000EB582BB9019B043B9D421A462FD33C61DB
:10351000384601F06BF9002825DB2946002058F8D1
:10352000042BD1F800C01FFA82FE1FFA8CF3A3EB24
:103530000E030344120CC2EB234202EB1C429BB26B
:1035400043EA0243C1454FEA224041F8043BE6D238
:1035500055F8242005EB840322B9043B9D421A460A
:103560000BD33C610136304603B0BDE8F08F1268E2
:10357000043B002ACBD1013CC6E71268043B002A79
:10358000EFD1013CEAE70020EEE700000000000078
:103590002DE9F04F14461D46C76997B08346CDE923
:1035A0000445239E7FB9102000F0F8FD0246CBF8B9
:1035B0001C0020B9EF21A84BA84801F057FCC0E936
:1035C00001770760C760DBF81C30196859B15A6889
:1035D000012393404A608B60584600F0D5FE0022DC
:1035E000DBF81C301A602B1EAFBF0023012223F032
:1035F00000430593A8BF3360DDF81480984BB8BF33
:10360000326033EA080312D142F20F73229A136038
:10361000C8F31303234300F04685249BDFF844A23C
:10362000002B00F048850AF1030300F042BDDDE9FC
:103630000423CDE90C23DDE90C0100220023FDF772
:1036400093F9074658B10123229A1360249B13B1C2
:10365000854B249A1360DFF814A200F02CBD14AB44
:10366000019315AB00935846DDE90C2301F06EF988
:10367000C8F30A568146002E77D0DDE90C010D9B78
:10368000A6F2FF36C3F3130343F07F5343F4401312
:10369000129719460022764BFCF746FD68A3D3E942
:1036A0000023FCF7F9FE68A3D3E90023FCF73EFDF5
:1036B000044630460D46FCF785FE65A3D3E900239A
:1036C000FCF7EAFE02460B4620462946FCF72EFD93
:1036D00004460D46FDF790F90022074600232046D8
:1036E0002946FDF74BF940B13846FCF76BFE224600
:1036F0002B46FDF739F900B9013F162F53D8DDE904
:103700000C015C4B03EBC703D3E90023FDF736F94B
:1037100000284AD00023013F0F93149B9B1B5A1E85
:1037200046BFC3F1010800234FF00008099248BFCB
:103730000993002F3BDB099B0E973B440993002321
:103740000A93209B092B63D8052BC4BF043B20930D
:10375000209BC8BF0024A3F10203D8BF0124032B80
:1037600062D8DFE803F05153362BDDE914631E44C1
:1037700006F23243202BC1BFC3F1400308FA03F81D
:1037800006F2124324FA03F3D6BFC3F1200348EA3A
:10379000030004FA03F0FCF705FE0122A1F1F8731F
:1037A000013E129275E70123B6E70F90B5E77B4221
:1037B0000A930023A8EB07080E93C2E701230B939B
:1037C000219BFB1808930133012B0393B8BF0123FE
:1037D00006E001230B93219B002B28DD0893039324
:1037E00000210422DBF81C0002F114059D4223D9BC
:1037F0004160584600F088FD824600283ED10246CE
:1038000040F2AF111C4BD7E60023E3E70023D6E7D5
:10381000012400230B9420934FF0FF3300220893E0
:10382000039312232192DBE701230B93F4E7012397
:103830001A4608930393F5E701315200D4E700BF1D
:1038400061436F63A787D23FB3C8608B288AC63FA6
:10385000FB799F501344D33FA1550008B855000889
:103860000000F07F9D550008715500087055000854
:103870000000F83F405700082D560008DBF81C30C8
:103880001860039B0E2B00F2A180002C00F09E809C
:10389000002F33DD9C4B07F00F0203EBC203F8054A
:1038A000D3E90034CDE906344FEA271416D5DDE913
:1038B0000C01964B0326D3E90823FCF717FFCDE94B
:1038C000040104F00F04914D54B9DDE90623DDE94C
:1038D0000401FCF70BFFCDE9040128E00226F2E722
:1038E000E10708D5DDE90601D5E90023FCF7D4FDA1
:1038F000CDE90601013664100835E5E700F0AF8038
:10390000DDE90C017C42804B04F00F0203EBC203A3
:10391000D3E90023FCF7C0FD02260023CDE9040112
:103920007A4D2411002C40F08F80002BD3D1DDE99B
:1039300004450F9B002B00F094800022204629466E
:10394000734BFDF71BF8002800F08B80039B002BC6
:1039500000F08780089B002B34DD7B1E20460693F9
:10396000002229466B4BFCF797FDCDE90401089C2A
:1039700001363046FCF726FDDDE90423FCF78CFD1B
:103980000022654BFCF7D2FB0546A1F15076002CD6
:103990006AD1DDE904010022604BFCF7C5FB024659
:1039A0000B46CDE904232A463346FDF705F80028E7
:1039B00040F08682DDE904012A4606F10043FCF767
:1039C000DDFF38BBDDE90C34CDE90434159B002B59
:1039D000C0F258810E2F00F355814B4B03EBC70308
:1039E000D3E90034CDE90634219B002B80F2E58039
:1039F000039B002B00F3E1800CD1DDE906010022DE
:103A0000464BFCF749FDDDE90423FCF7CBFF00281A
:103A100000F0548200242546219B5646DB43069342
:103A200000272146584600F0AFFC002D00F0BD8075
:103A30002FB1AF4203D03946584600F0A5FC2946C5
:103A4000584600F0A1FCB0E0E20705D5D5E9002317
:103A5000FCF722FD012301366410083562E70226D7
:103A600065E7039C069784E7274B0B9903EBC40398
:103A700053E902235444002954D000202849FCF77C
:103A800035FE33462A46FCF74FFB5646CDE910017A
:103A9000DDE90401FCF7B0FF0546FCF793FC0246A4
:103AA0000B46DDE90401FCF73FFB02460B463035CF
:103AB000CDE90423DDE9102306F8015BFCF75EFF86
:103AC000002872D1DDE9042300201149FCF72CFB0A
:103AD000DDE91023FCF752FF002840F0B480A64235
:103AE0003FF470AFDDE9100100220A4BFCF7D4FC73
:103AF0000022CDE91001DDE90401064BFCF7CCFC06
:103B0000CDE90401C4E700BF40570008185700087A
:103B10000000F03F0000244000001C400000144062
:103B20000000E03F31462846FCF7B6FC5646CDE99A
:103B300010011394DDE90401FCF75EFF0546FCF774
:103B400041FC02460B46DDE90401FCF7EDFA0246B2
:103B50000B46303506F8015BA642CDE904234FF051
:103B6000000224D1DDE91001B14BFCF7DFFA024677
:103B70000B46DDE90401FCF71FFF002863D1DDE9F6
:103B800010230020AA49FCF7CFFA02460B46DDE9D4
:103B90000401FCF7F3FE00283FF414AF139E731EDC
:103BA000139316F8013C302BF8D0069F3BE0A14B55
:103BB000FCF772FCCDE90401BCE75646DDE904459B
:103BC000DDE9062320462946FCF790FDFCF714FFAB
:103BD0008046FCF7F7FBDDE90623FCF75DFC0246B7
:103BE0000B4620462946FCF79FFA08F13004039D56
:103BF00006F8014BA6EB0A04A54202460B4634D157
:103C0000FCF794FADDE9062304460D46FCF7D4FEE2
:103C1000C0B9DDE9062320462946FCF7A5FE10B110
:103C200018F0010F0ED14946584600F0ADFB0023B5
:103C30003370229B01371F60249B002B00F03B82D6
:103C40001E6038E2069733461E4613F8012D392AC6
:103C500007D19A45F8D1069A0132069230228AF8A5
:103C600000201A7801321A709FE70022714BFCF78E
:103C700013FC0022002304460D46FCF775FE0028C5
:103C80009ED0D0E70B9A002A00F0E080209A012A0B
:103C900000F3BF80129A002A00F0B78003F233438A
:103CA0000A9C4646099A01211A44584698440992AA
:103CB00000F01EFC05465EB1099B002B08DDB342F7
:103CC000A8BF3346099AA8EB0308F61AD31A09933A
:103CD0000A9BF3B10B9B002B00F0BC808CB12946F2
:103CE0002246584600F0BCFC4A4601460546584666
:103CF00000F014FC49460690584600F045FB069B30
:103D000099460A9B1A1B04D04946584600F0A8FC65
:103D100081460121584600F0EBFB0E9B0446002B28
:103D200000F0CD811A460146584600F099FC209BD0
:103D30000446012B00F39480049B002B40F08C8000
:103D4000059BC3F31303002B40F08880059B23F0F1
:103D500000431B0D1B052BB1099B08F10108013322
:103D6000099301230A930E9B002B00F0AE81236977
:103D700004EB8303186900F06FFBC0F12000099B7E
:103D8000184410F01F0076D0C0F12003042B6ADD28
:103D9000099BC0F11C000344804406440993B8F118
:103DA000000F05DD49464246584600F0B3FC814607
:103DB000099B002B05DD21461A46584600F0AAFC57
:103DC00004460F9B002B58D02146484600F00EFDBC
:103DD000002852DA7B1E494606930A2200235846E1
:103DE00000F0F4FA0B9B8146002B00F07081002359
:103DF00029460A22584600F0E9FA089B0546002B9E
:103E000066DC209B022B40DC62E0149BC3F136038E
:103E100046E7039B5C1E0A9BA3420DDB1C1B039B16
:103E2000002BBFF63EAF039BA8EB0306002339E748
:103E30000000E03F000024400A9B0E9AE31A1A4457
:103E40000A9446460024039B0E922BE746460A9CA2
:103E50000B9D30E70A9A57E7002383E7049B81E72D
:103E600000230A9383E79AD0099A1C331A44984492
:103E70001E44099293E70346F6E7039B0697002B3F
:103E800020DC0893209B022B1EDD089B002B7FF477
:103E9000C3AD21460522584600F098FA0146044673
:103EA000484600F0A3FC00287FF7B6AD3123564604
:103EB00006F8013B069B01330693B1E5039C069788
:103EC0002546F3E7039B08930B9B002B00F003812F
:103ED000002E05DD29463246584600F01BFC0546FB
:103EE0000A9B002B5AD05846696800F00DFA064626
:103EF00028B9024640F2EF21824BFFF75DBB2A69E9
:103F000005F10C01023292000C3000F0A1FF0122F9
:103F10003146584600F0FEFB2F4605460AF10103E4
:103F20000393089B53440B93049B03F001030A93F0
:103F3000039B2146013B48460493FFF79EFA39460E
:103F4000089000F13008484600F050FC2A460990DD
:103F50002146584600F066FCC268064602BB014690
:103F6000484600F043FC0246314658460C9200F0A9
:103F70000BFA209B0C9A039E42EA03010A9B194309
:103F800010D1B8F1390F29D0099B002B02DD089B15
:103F900003F13108049B83F8008042E52846BBE723
:103FA0000122E1E7099B002B04DB20990B430A99CE
:103FB0000B4320D1002AEDDD49460122584600F08E
:103FC000A9FB2146814600F011FC002803DCE1D169
:103FD00018F0010FDED0B8F1390FD8D13923049A87
:103FE000137033461E4616F8012C013B392A51D076
:103FF00001321A7015E5002A07DDB8F1390FEDD04E
:10400000049A08F1010313700BE5039B0B9A03F864
:10401000018C934228D0494600230A22584600F0DA
:10402000D5F9AF4281464FF000034FF00A023946FE
:10403000584607D100F0CAF907460546039B0133ED
:10404000039375E700F0C2F92946074600230A22C8
:10405000584600F0BBF90546F0E7089B0027002B07
:10406000CCBF1E460126564449460122584600F060
:1040700051FB2146814600F0B9FB0028B1DC02D19A
:1040800018F0010FADD133461E4613F8012D302A2A
:10409000FAD0C6E49A45A5D1069B01330693312395
:1040A0008AF80030BDE4249BDFF85CA01BB10AF164
:1040B0000803249A1360504617B0BDE8F08F209B88
:1040C000012B7FF739AE0E9B0A93012057E6089B20
:1040D000002B7FF7D7AE564621464846FFF7CDF96D
:1040E00000F13008089B06F8018BA6EB0A02934208
:1040F000B3DD494600230A22584600F067F981469D
:10410000EAE700BF2D5600089455000838B505466B
:10411000002940D051F8043C0C1F002BB8BFE41814
:1041200000F0E6F81C4A136833B96360146028464F
:10413000BDE8384000F0E2B8A34208D92068211851
:104140008B4201BF19685B6809182160EDE71A46C8
:104150005B680BB1A342FAD911685018A0420BD189
:1041600020680144501883421160E0D118685B68F0
:10417000084410605360DAE702D90C232B60D6E7BD
:10418000206821188B4201BF19685B6809182160FB
:1041900063605460CBE738BD2C040020024B01461D
:1041A000186800F025B800BF1800002070B50F4E49
:1041B0000C463168054611B900F03AFE30602146E0
:1041C000284600F035FE431C03D14FF0FF34204653
:1041D00070BDC41C24F00304A042F8D0211A284664
:1041E00000F026FE0130F2D1EFE700BF28040020E6
:1041F0002DE9F843CD1C25F0030508350C2D38BFFB
:104200000C25002D064601DBA94204D90C2333609E
:104210000020BDE8F883DFF8D48000F069F8D8F812
:1042200000301C4644BB29463046FFF7BFFF431C05
:10423000044658D1D8F800402746002F43D1002C1F
:104240004BD023683946304604EB030900F0F0FDFB
:10425000814542D1216830466D1A2946FFF7A6FFF5
:1042600001303AD023682B442360D8F800305A68D4
:1042700062BBC8F800700FE02268521B20D40B2AE2
:1042800017D96119A342256018BF5960636808BF38
:10429000C8F8001062514B60304600F02FF804F16E
:1042A0000B00231D20F00700C21A1CBF1B1AA350CD
:1042B000AFE76268A3420CBFC8F800205A60EBE782
:1042C00023466468AEE73C467F68B6E71A465B68FB
:1042D000A342FBD100235360DEE70C23304633605A
:1042E00000F00CF894E70560D6E700BF2C0400202E
:1042F0000148FFF7B2B800BF240400200148FFF7CF
:10430000ADB800BF2404002070B5C66904460D4650
:1043100076B91020FFF742FF0246E06120B96B2119
:10432000174B184800F0A2FDC0E901660660C660A0
:10433000E669F36883B1E369DB6853F82500B8B92F
:10434000012101FA05F6721D2046920000F0ACFD35
:1043500060B1C0E901560EE021220421204600F0A0
:10436000A3FDE369F060DB68002BE4D1002070BDA1
:10437000026843F825200023C0E90333F7E700BFB4
:10438000A15500083E56000870B5C66905460C46A2
:1043900076B91020FFF702FF0246E86120B98F21AD
:1043A000084B094800F062FDC0E901660660C6607E
:1043B0003CB1EB696268DB6853F82210216043F876
:1043C000224070BDA15500083E5600082DE9F0417D
:1043D00007460C461E4600200D6901F1140CDCF85E
:1043E0000030013099B202FB01611E0C0B0C02FB84
:1043F000063389B201EB034185424FEA13464CF87C
:10440000041BECDC0EB3A368AB4219DC61683846D0
:104410000131FFF779FF804628B90246BA210C4BDB
:104420000C4800F023FD226904F10C0102329200D5
:104430000C3000F00DFD21463846FFF7A5FF44463D
:1044400004EB850301355E6125612046BDE8F081FE
:104450002D5600083E5600080346B0F5803F3ABF8F
:10446000030410200020B3F1807F3CBF1B02083002
:10447000B3F1805F3CBF1B010430B3F1804F3CBF00
:104480009B000230002B05DB13F0804F00F1010090
:1044900008BF202070470368024613F007000BD0C6
:1044A000D90721D4980749BF5B089B0801201360F6
:1044B0005CBF02201360704799B209B910201B0C31
:1044C000D9B209B908301B0A190704BF1B09043007
:1044D000990704BF9B080230D90703D45B0800F199
:1044E000010003D013607047002070472020704700
:1044F00010B50C460121FFF707FF024628B940F22C
:104500004511044B044800F0B1FC012344610361F0
:1045100010BD00BF2D5600083E5600082DE9F04F93
:1045200017460A693B6989469A42A2BF3B460F4635
:1045300099463D69D9F810A0BB68796805EB0A0671
:10454000B34285B0B8BF0131FFF7DEFE30B9024695
:104550004FF4B171404B414800F088FC00F1140465
:104560002346002204EB860E734520D307F114087E
:1045700009F1140108EB850501EB8A030293EB1B9B
:10458000153B23F0030304331537BD4238BF042322
:104590000193029B03918B420CD8002E03DD5EF841
:1045A000043D002B55D0066105B0BDE8F08F43F8FF
:1045B000042BD9E7B1F800A0BAF1000F1FD0C44610
:1045C000A14600275CF8042BD9F800301FFA82FBC3
:1045D0009BB20AFB0B333B44D9F80070120C3F0C22
:1045E0000AFB027202EB13429BB243EA02436545A7
:1045F0004FEA124749F8043BE4D8019BE750039B7C
:104600000431B3F80290B9F1000F20D04746A44618
:104610004FF0000A2368B7F800B0BCF802209BB244
:1046200009FB0B22524443EA02434CF8043B57F87F
:10463000043B4FEA134ABCF80030BD4209FB0A3381
:1046400003EB12434FEA134AE5D8019AA35004340E
:104650009FE7013EA1E700BF2D5600083E56000827
:104660002DE9F843154612F0030207460E4607D01F
:10467000254C013A002354F82220FFF7A7FE0646F6
:10468000AD103DD0FC697CB91020FFF787FD0246D4
:10469000F86128B940F2B3111C4B1D4800F0E6FB4D
:1046A000C0E901440460C460D7F81C80D8F8084011
:1046B0004CB940F271213846FFF71AFF0023044637
:1046C000C8F8080003604FF00009EB070AD531462F
:1046D00022463846FFF722FF804631463846FFF72C
:1046E00053FE46466D100BD0206838B9224621464D
:1046F0003846FFF713FF2060C0F800900446E4E757
:104700003046BDE8F88300BF0C570008A1550008EB
:104710003E5600082DE9F0470C46074691462369AE
:10472000496803EB6218A3684FEA621A08F10106B0
:10473000B3420BDB3846FFF7E7FD054648B90246B2
:104740004FF4EF71274B284800F090FB01315B00DC
:10475000EEE7002300F1140100F110021846534562
:1047600033DB20692AEAEA7A04F1140319F01F09FD
:1047700001EB8A0103EB800C2BD08A460022C9F1A1
:10478000200E186800FA09F010434AF8040B53F899
:10479000042B9C4522FA0EF2F3D8ACEB0403153B34
:1047A00023F00303043304F11500604588BF04239C
:1047B000CA500AB108F10206013E384621462E6170
:1047C000FFF7E2FD2846BDE8F08742F8040F013309
:1047D000C5E7043953F8042B9C4541F8042FF9D858
:1047E000EAE700BF2D5600083E56000803460A6956
:1047F000006930B5801A0ED11433143103EB8204F2
:1048000001EB820154F8045D51F8042D954203D068
:1048100005D24FF0FF3030BDA342F3D3FBE70120B8
:10482000F9E700002DE9F74F89460646114648464C
:104830001446FFF7DBFF051E12D129463046FFF76D
:1048400063FD024628B940F237213E4B3E4800F056
:104850000DFB0123C0E90435104603B0BDE8F08F1D
:10486000BCBF4B46A1463046D9F80410BABF1C461F
:1048700001250025FFF748FD024618B940F2452101
:10488000304BE3E700F1140BD9F8107009F1100375
:10489000C5604FF0000C09F11405D946266904F1F2
:1048A000140E05EB87080EEB86060193019B5EF85C
:1048B000040B53F804AF81B201931FFA8AF35B1A19
:1048C000000C6344C0EB1A4000EB23409BB243EA68
:1048D000004376454FEA204C49F8043BE6D8331BA9
:1048E000153B23F0030315340433A64238BF0423D9
:1048F0001D445B441E462C4644450ED308F103017B
:10490000491B21F00301033DA84538BF00210B449A
:1049100053F8041D99B117619EE7E64654F8041B4D
:104920001FFA81FCF444080C714400EB2C4089B25E
:1049300041EA00414FEA204C46F8041BDCE7013F06
:10494000E6E700BF2D5600083E5600082DE97343E8
:10495000012190469946089EFFF7D6FC044630B9DF
:10496000024640F20F31234B234800F07FFAC9F38F
:104970000A55C9F313030DB143F480130193B8F141
:10498000000324D068460093FFF785FDDDE900129F
:10499000D8B1C0F1200302FA03F30B43C2406361B4
:1049A0000192019B002B0CBF01220222A361226114
:1049B000ADB1A5F2334505443560C0F13500099B22
:1049C0001860204602B0BDE870836161E9E701A884
:1049D000FFF761FD019B012263612030E7E7A0F250
:1049E000324004EB820330601869FFF735FDC0EBFD
:1049F0004210E4E72D5600083E5600082DE9F04726
:104A00001F468E688246BE420C4690460B682DD8E3
:104A1000B1F90C2012F4906F26D06569096905EB95
:104A20004505A3EB010905EBD5757B1C4B446D10C7
:104A30009D4238BF1D46530527D52946FFF7D8FBB1
:104A4000064660B34A46216900F002FAA38923F4BE
:104A5000906343F08003A38126614E4426603E4666
:104A60006561A5EB0905A560BE4200D93E46324608
:104A70004146206800F0C2F90020A3689B1BA36098
:104A8000236833442360BDE8F0872A4600F032FAF9
:104A900006460028E0D150462169FFF737FB0C237A
:104AA000CAF80030A3894FF0FF3043F04003A381E0
:104AB000E9E700002DE9F04F98468B8907461B0671
:104AC0000D4614469DB010D50B6973B94021FFF710
:104AD0008FFB2860286130B90C233B604FF0FF301A
:104AE0001DB0BDE8F08F40236B61002309932023A4
:104AF0008DF8293030234FF00109CDF80C80DFF814
:104B000098818DF82A3023469A4613F8012B0AB172
:104B1000252AF9D1BAEB040B0BD05B462246294675
:104B20003846FFF76BFF013000F0A780099A5A441E
:104B300009929AF80030002B00F09F8000234FF07C
:104B4000FF32CDE905230AF1010A049307938DF89A
:104B500053301A935446052214F8011B4E48FEF7B1
:104B60007EFC049AD8B9D00644BF20238DF8533078
:104B7000110744BF2B238DF853309AF800302A2BAD
:104B800015D0544600204FF00A0C079A214611F820
:104B9000013B303B092B4BD9B0B1079214E0A0EB9D
:104BA000080309FA03F31343A2460493D2E7039BD5
:104BB000191D1B680391002BBBBF5B4242F0020230
:104BC00007930793B8BF049223782E2B0AD16378FA
:104BD0002A2B32D1039B02341A1D1B68039243EA2D
:104BE000E3730593DFF8B4A0032250462178FEF763
:104BF00036FC38B14022049BA0EB0A0082401343EC
:104C00000134049314F8011B062225488DF828105E
:104C1000FEF725FC002836D0224B1BBB039B073335
:104C200023F0070308330393099B334409936AE78E
:104C30000C4601200CFB0232A8E700234FF00A0CBF
:104C4000194601340593204610F8012B303A092A01
:104C500003D9002BC6D00591C4E7044601230CFB01
:104C60000121F0E703AB00932A4638460E4B04A916
:104C7000FDF794FE421C0646D6D1AB895B063FF594
:104C80002DAF09982CE703AB00932A463846064B14
:104C900004A9FEF721F9EDE7B4560008BA5600085A
:104CA000BE5600089D290008FD490008B1F90C20F6
:104CB000F8B5160705460C4654D44B68002B02DCA9
:104CC0000B6C002B48DDE66A002E45D0002312F461
:104CD00080522F68216A2B6030D0626DA3895907FA
:104CE00005D56368D21A636B0BB1236CD21A00230B
:104CF0002846E66A216AB047431CA38906D1296881
:104D00001D292BD8284ACA40D60727D50022626021
:104D10002269D904226004D5421C01D12B6803B951
:104D20006065616B2F60B9B104F14403994202D010
:104D30002846FFF7EBF9002363630DE001232846C3
:104D4000B0470246501CC9D12B68002BC6D01D2B82
:104D500001D0162B1DD12F60002021E043F040032D
:104D60001BB21AE00F69002FF6D0930718BF00237B
:104D70000E6808BF4B69F61B0F608B60002EEBDDE1
:104D800033463A462846216AD4F828C0E04700282E
:104D900007DCB4F90C3043F040034FF0FF30A3813F
:104DA000F8BD0744361AE9E70100402038B50B6921
:104DB00005460C4613B90025284638BD18B1036ACC
:104DC0000BB9FEF733FAB4F90C30002BF3D0626E56
:104DD000D00704D4990502D4A06DFEF73EFB284607
:104DE0002146FFF763FF636E0546DA07E4D4A38923
:104DF0009B05E1D4A06DFEF731FBDDE7884210B5DD
:104E000001EB020402D98442234607D8431EA14283
:104E100008D011F8012B03F8012FF8E701460244EE
:104E20008A4200D110BD13F8014D02F8014DF7E799
:104E300038B50023054D044608462B60FCF73CF9C5
:104E4000431C02D12B6803B1236038BD200400202D
:104E50000A44914200F1FF3300D1704710B511F8B8
:104E6000014B914203F8014FF9D110BD1FB5144613
:104E70001A46094B05461B68D8684CB1074BCDE96B
:104E8000013400912B46064900F070F800F080F8DC
:104E9000044B1C46F3E700BF18000020CF56000863
:104EA000DC5600080A57000870B5A1FB025434B95B
:104EB0002946FFF79DF9064628B9304670BD0C22F9
:104EC00000260260F9E72A462146FEF748FAF4E791
:104ED00082B001B901A942B14BB113780B601278CD
:104EE000101E18BF012002B070471046FBE76FF09C
:104EF0000100F8E72DE9F041074614460D4621B9B7
:104F00001146BDE8F041FFF773B92AB9FFF7FEF883
:104F100025462846BDE8F08100F041F88442064667
:104F200002D8B4EB500FF4D821463846FFF760F9A9
:104F3000804608B94546ECE7B4422246294628BFD8
:104F40003246FFF785FF29463846FFF7DFF8F1E7DD
:104F50000346084641B1FF2A04D98A224FF0FF30A8
:104F60001A60704701200A70704700000EB403B544
:104F7000014603AB054853F8042B0068019300F089
:104F80003DF802B05DF804EB03B070471800002054
:104F9000062008B500F006FA0120FCF75DF851F88C
:104FA000043C181F002BBCBF0B58C01870479368F7
:104FB00010B4013B002B936007DA9469A34201DB34
:104FC0000A2902D110BC00F031B91368581C1060D6
:104FD0001970084610BC7047F8B506460F461446CF
:104FE000D518AC4201D1002007E03A46304614F80B
:104FF000011BFFF7DCFF431CF3D1F8BD2DE9F04F97
:105000000D461446984606469DB018B1036A0BB982
:10501000FEF70CF96B6ED90705D4AB899A0502D45B
:10502000A86DFEF71AFAAB891B0701D52B699BB94E
:105030002946304600F038F970B16B6EDC0704D5B4
:105040004FF0FF301DB0BDE8F08FAB899805F7D465
:10505000A86DFEF703FAF3E70023099320238DF8E8
:10506000293030234FF00109CDF80C80DFF8A881FA
:105070008DF82A3023469A4613F8012B0AB1252AC7
:10508000F9D1BAEB040B0BD05B46224629463046D9
:10509000FFF7A2FF013000F0A780099A5A44099255
:1050A0009AF80030002B00F09F8000234FF0FF3271
:1050B000CDE905230AF1010A049307938DF85330D3
:1050C0001A935446052214F8011B5348FEF7C7F9FA
:1050D000049AD8B9D10644BF20238DF85330130762
:1050E00044BF2B238DF853309AF800302A2B15D06B
:1050F000544600204FF00A0C079A214611F8013B54
:10510000303B092B4BD9B0B1079214E0A0EB080358
:1051100009FA03F31343A2460493D2E7039B191D34
:105120001B680391002BBBBF5B4242F00202079356
:105130000793B8BF049223782E2B0AD163782A2BC9
:1051400032D1039B02341A1D1B68039243EAE373B6
:105150000593DFF8C8A0032250462178FEF77FF9B7
:1051600038B14022049BA0EB0A0082401343013473
:10517000049314F8011B062229488DF82810FEF725
:105180006EF900283FD0274B1BBB039B073323F04E
:10519000070308330393099B3B4409936AE70C46D2
:1051A00001200CFB0232A8E700234FF00A0C19463D
:1051B00001340593204610F8012B303A092A03D90F
:1051C000002BC6D00591C4E7044601230CFB012146
:1051D000F0E703AB00932A463046134B04A9FDF7D2
:1051E000DDFB0746781CD6D16B6ED90705D4AB8999
:1051F0009A0502D4A86DFEF731F9AB895B063FF53D
:105200001FAF09981EE703AB00932A463046064BB2
:1052100004A9FDF761FEE4E7B4560008BA56000899
:10522000BE5600089D290008D94F0008F8B50E4663
:105230001446054618B1036A0BB9FDF7F7FFA369D9
:10524000A360A3891A0701D5236943B921462846DB
:1052500000F02AF818B14FF0FF373846F8BD236840
:105260002269F6B2981A63693746834205DC214603
:105270002846FFF79BFD0028EDD1A368013BA36002
:1052800023685A1C22601E706269431C9A4204D033
:10529000A389DB07E1D50A2EDFD121462846FFF797
:1052A00085FD0028D9D0D6E738B5294B05461868C2
:1052B0000C4618B1036A0BB9FDF7B8FFB4F90C300E
:1052C000190722D4DA0607D409222A6043F04003E2
:1052D0004FF0FF30A38133E0580712D5616B41B125
:1052E00004F14403994202D02846FEF70FFF002341
:1052F0006363A38923F02403A381002363602369EC
:105300002360A38943F00803A38123694BB9A389D0
:1053100003F42073B3F5007F03D02146284600F044
:1053200082F8B4F90C3013F001020AD00022A26016
:1053300062695242A261226942B913F08000C5D16C
:1053400038BD990758BF6269A260F4E70020F7E70B
:10535000180000201F2938B505460C4604D916232D
:1053600003604FF0FF3038BDC26B12B152F82130EC
:105370004BB9284600F030F8224601462846BDE8E1
:10538000384000F017B8012B0AD0591C03D116235E
:1053900003600120E7E70021204642F824109847E7
:1053A0000020E0E7024B01461868FFF7D3BF00BFBB
:1053B0001800002038B50023064D04460846114663
:1053C0002B60FBF741FE431C02D12B6803B1236025
:1053D00038BD00BF20040020FBF734BE70B50C467A
:1053E000B1F90E10154600291E4696B00CDAA389B5
:1053F000002113F0800F14BF40234FF4806300207E
:1054000031602B6016B070BD6A4600F049F8002884
:10541000EDDB019901F47041A1F500535942594166
:105420004FF48063EBE78B89F7B59D0706460C4682
:1054300007D504F14703236023610123636103B0AF
:10544000F0BD6A4601ABFFF7C9FF009F054639462C
:105450003046FEF7CDFE48B9B4F90C309A05EED4CB
:1054600023F0030343F00203A381E2E7A389C4E925
:10547000040743F08003A381019B20605BB13046A9
:10548000B4F90E1000F01EF828B1A38923F003032D
:1054900043F00103A381A3891D43A581CFE7000049
:1054A00038B50023064D0446084611462B60FBF72D
:1054B000FAFD431C02D12B6803B1236038BD00BF45
:1054C0002004002038B50023054D044608462B6013
:1054D000FBF7EEFD431C02D12B6803B1236038BDFE
:1054E00020040020F8B500BFF8BC08BC9E467047F9
:0C54F000F8B500BFF8BC08BC9E46704731
:1055000048656C6C6F20776F726C6421000000003E
:1055100072706D2025332E326600000020616463B6
:105520002025332E326600006376742025332E3218
:1055300066000000000000000102030400000000FB
:105540000000000001020304060708090102000030
:1055500002030405060708090A0B0C0D0E0F1010B4
:10556000494E4600696E66004E414E006E616E0007
:1055700030003031323334353637383941424344E4
:10558000454600303132333435363738396162635D
:1055900064656600496E66696E697479004E614E95
:1055A000005245454E54206D616C6C6F63207375DD
:1055B00063636565646564002F5F5F772F61726D5B
:1055C0002D6E6F6E652D656162692D6763632D7841
:1055D0007061636B2F61726D2D6E6F6E652D6561ED
:1055E00062692D6763632D787061636B2F627569E3
:1055F0006C642F6C696E75782D7836342F736F75E7
:10560000726365732F6E65776C69622D6379677756
:10561000696E2F6E65776C69622F6C6962632F7398
:1056200074646C69622F64746F612E630042616CF4
:105630006C6F6320737563636565646564002F5FD9
:105640005F772F61726D2D6E6F6E652D656162697A
:105650002D6763632D787061636B2F61726D2D6EA2
:105660006F6E652D656162692D6763632D7870616A
:10567000636B2F6275696C642F6C696E75782D7819
:1056800036342F736F75726365732F6E65776C692F
:10569000622D63796777696E2F6E65776C69622F0B
:1056A0006C6962632F7374646C69622F6D707265CC
:1056B000632E6300232D302B2000686C4C00656640
:1056C00067454647004300504F534958002E002C71
:1056D0002066756E6374696F6E3A2000617373653E
:1056E0007274696F6E2022257322206661696C6571
:1056F000643A2066696C6520222573222C206C692F
:105700006E65202564257325730A000005000000DE
:10571000190000007D0000000080E03779C341439C
:10572000176E05B5B5B89346F5F93FE9034F384D07
:10573000321D30F94877825A3CBF737FDD4F1575B3
:10574000000000000000F03F0000000000002440C6
:1057500000000000000059400000000000408F40A1
:10576000000000000088C34000000000006AF8400C
:105770000000000080842E4100000000D012634130
:105780000000000084D797410000000065CDCD41A6
:10579000000000205FA00242000000E87648374287
:1057A000000000A2941A6D42000040E59C30A24225
:1057B0000000901EC4BCD64200003426F56B0C439A
:1057C0000080E03779C3414300A0D8855734764341
:1057D00000C84E676DC1AB43003D9160E458E143A2
:1057E000408CB5781DAF154450EFE2D6E41A4B4417
:1057F00092D54D06CFF08044F64AE1C7022DB5445C
:10580000B49DD9794378EA4400202020202020202C
:105810002020282828282820202020202020202060
:105820002020202020202020208810101010101070
:1058300010101010101010101004040404040404BC
:105840000404041010101010101041414141414156
:105850000101010101010101010101010101010138
:105860000101010110101010101042424242424248
:105870000202020202020202020202020202020208
:1058800002020202101010102000000000000000B0
:105890000000000000000000000000000000000008
:1058A00000000000000000000000000000000000F8
:1058B00000000000000000000000000000000000E8
:1058C00000000000000000000000000000000000D8
:1058D00000000000000000000000000000000000C8
:1058E00000000000000000000000000000000000B8
:1058F00000000000000000000000000000000000A8
:0C5900000000000000000000000000009B
:08590C0004A8FF7F0100000068
:045914006D0A000810
:04591800490A000830
:10591C000024F40001000000100000000000000052
:10592C0003000000E40200201C0000200000000026
:10593C00E40200204C030020B4030020000000000F
:10594C00000000000000000000000000000000004B
:10595C00000000000000000000000000000000003B
:10596C00000000000000000000000000000000002B
:10597C0000000000000000004300000000000000D8
:10598C00000000000000000000000000000000000B
:10599C0000000000000000004300000000000000B8
:1059AC0000000000000000000000000000000000EB
:1059BC000000000000000000430000000000000098
:1059CC0000000000000000000000000000000000CB
:1059DC000000000000000000430000000000000078
:1059EC0000000000000000000000000000000000AB
:1059FC000000000000000000430000000000000058
:105A0C00000000000000000000000000000000008A
:105A1C000000000000000000430000000000000037
:105A2C00000000000000000000000000000000006A
:105A3C000000000000000000430000000000000017
:105A4C00000000000000000000000000000000004A
:105A5C000000000000000000514F0008D14E00086B
:105A6C000000000008580008CD5600080A5700082E
:105A7C000A5700080A5700080A5700080A57000876
:105A8C000A5700080A5700080A5700080A57000866
:105A9C00FFFFFFFFFFFFFFFFFFFFFFFFFFFF000008
:105AAC000100415343494900000000000000000080
:105ABC0000000000000000000000000000000000DA
:105ACC000000415343494900000000000000000061
